S01A0000526164696F436F6E74726F6C6C65724E65772E73726563CD
S113000064C07EC07DC0F7C87BC07AC079C078C0A8
S113001077C076C075C075C073C072C071C070C03F
S11300206FC06EC06DC055C7F8C5FDC520C62CC6CF
S113003035C6EBC5EAC538C63EC63BC7E6C54CC7A0
S1130040E4C5E3C563C7B7C807634236B79BD8A7FF
S11300501A39685618AEBAAB558C1D3CB7CC5763E9
S1130060BD6DEDFD753EF6177231BF000000803F97
S113007008000000BE922449123EABAAAA2ABECDB3
S1130080CCCC4C3E00000080BEABAAAAAA3E000025
S11300900000BF000000803F00000000000841781D
S11300A0D3BB4387D1133D190E3CC3BD4282AD2B54
S11300B03E68EC8276BED98FE1A93E4C80EFFFBE4C
S11300C001C4FF7F3F000000000011241FBECFE5E4
S11300D0D4E0DEBFCDBF11E0A0E6B0E0EEEBFAE184
S11300E002C005900D92A430B107D9F723E0A4E033
S11300F0B1E001C01D92A533B207E1F75CD5DDCCB8
S11301007FCF1F920F920FB60F9211248F939F935C
S1130110EF93FF939CB180910701823020F49A30D1
S113012051F09D3041F0E82FF0E0E65DFC4F908304
S11301308F5F80930701FF91EF919F918F910F90B3
S11301400FBE0F901F90189590BD89B988E18AB9A8
S1130150579A86E880BD08955D9BFECF8CB90895BB
S11301605F9B02C08CB1FCCF08950F931F93CF9374
S11301708C01C0E0F801EC0FF11D8081882319F097
S1130180EBDFCF5FF7CFCF911F910F910895CF93FE
S1130190AC01FC0180E090E09F01241B350B261785
S11301A037079CF42191922728E030E0DC01AA0F64
S11301B0BB1F97FF05C0CD01C5E08C27905801C037
S11301C0CD012150310991F7E7CFCF9108954F9296
S11301D05F926F927F928F929F92AF92BF92CF92D3
S11301E0DF92EF92FF921F93CF93DF93CDB7DEB7E9
S11301F062970FB6F894DEBF0FBECDBF8E83182F63
S11302008D836D8170E080E090E094D920E030E04F
S113021040E251E4F4D82DEC3CEC44E151E4EFD855
S11302206B017C0120E030E040EE50E472DA4B01D7
S11302305C0120E030E040EC50E4C701B60169DA2B
S11302402B013C0120E030E040EA50E4C701B60154
S113025060DA6F83788789879A8720E030E040E806
S113026050E4C701B60155DA6B877C878D879E877A
S113027020E030E040E450E4C701B6014ADA6F8779
S1130280788B898B9A8B21E136E349E052E4C501EE
S1130290B401DCD94B015C012EE136ED48E053E4B6
S11302A0C301B201D3D99B01AC01C501B40142D849
S11302B04B015C0127E836E041E653E46F81788521
S11302C089859A85C3D99B01AC01C501B40133D892
S11302D04B015C012CE032E646E453E46B857C85FB
S11302E08D859E85B3D99B01AC01C501B40122D88B
S11302F04B015C0129EC35EC4DEC52E46F857889B7
S113030089899A89A3D99B01AC01C501B40113D889
S11303104B015C01A7019601C701B60197D92CE9ED
S113032033E344E052E492D99B01AC01C501B4012A
S113033001D84B015C0126EC3DE642EE50E4C701D6
S1130340B60184D99B01AC01C501B401F4D722E5FF
S113035039E44DE95CE3EED720E030E048EC52E4C8
S113036075D969837A838B839C8369817A818B8134
S11303709C81ADD89B01AC01AAE0B0E04EDB6115D5
S113038074408105910564F469817A818B819C8133
S11303909ED84AE0469F9001479F300D112402C029
S11303A02FEF33E0111103C08FEF93E00BC014362D
S11303B028F01BBC1ABC84E68E8306C08FEF93E042
S11303C0821B930B9BBD8ABD41E050E060E070E06E
S11303D0CE0106965CDB62960FB6F894DEBF0FBEC4
S11303E0CDBFDF91CF911F91FF90EF90DF90CF9021
S11303F0BF90AF909F908F907F906F905F904F9041
S11304000895B99A8FB580688FBD8FB583608FBD0D
S11304108EB581608EBD08958FE380B911B80895BB
S113042084EA86BF06B607FEFDCF81ED83B984E872
S113043086BF06B607FEFDCF84E886BF06B607FE74
S1130440FDCF83B194E996BF089594EA96BF06B6AA
S113045007FEFDCF90ED93B994E896BF06B607FE6C
S1130460FDCF83B984E886BF06B607FEFDCF6F3F94
S113047019F484E986BF0895862F6AE0AFDA20E193
S1130480829F900D112493B984E886BF06B607FEB7
S1130490FDCFEFCFCF92DF92EF92FF920F931F9396
S11304A0CF93DF93CDB7DEB727970FB6F894DEBFAF
S11304B00FBECDBF6FEF80E0C8DF8BEF96E00197F2
S11304C0F1F700C0ADDF182FABDF082FA9DFF82E3E
S11304D0A7DFC82EA5DFE82EA3DFD82EA1DFEBEF20
S11304E0F6E03197F1F700C02C2D382F4D2D5E2DFD
S11304F06F2D702F812F90E027960FB6F894DEBFF2
S11305000FBECDBFDF91CF911F910F91FF90EF9060
S1130510DF90CF90089580E487B987E886B908957D
S1130520CF93DF9323E0CAE0D0E0009759F0E22FA5
S1130530F0E0EA5DFC4FBE015DDA805D8083CB01B3
S11305402150F3CF233058F480E3809326032223F1
S113055031F080932703223011F480932803DF9134
S1130560CF910895369A3699FECF349A84B195B1D5
S1130570D7DF84B195B10895F8DD8DE0EDDD8AE033
S1130580EBCDEAE0F1E09191981739F091E0E43194
S1130590F907C9F780E090E0089581E090E00895BC
S11305A0CF93C82FEEDF892BC9F4EAE0F1E080E0B5
S11305B090E0219121502E3F28F0FC01E65FFE4F90
S11305C0C08304C001968A30910599F74AE050E04F
S11305D063E570E08AE091E0CF9159CACF91089524
S11305E0EAE0F1E09FEF2081281301C09083319667
S11305F021E0E431F207B9F74AE050E063E570E046
S11306008AE091E044CAEAE2F3E0119283E0E53340
S1130610F807D9F710920701109206010895CF93B5
S1130620DF93EC018BEC90E0A7DF29EA8EE292E005
S1130630215080409040E1F700C000008FEC90E032
S11306409BDF29EA8EE292E0215080409040E1F75E
S113065000C0000086ED90E08FDF29EA8EE292E090
S1130660215080409040E1F700C000008FED90E001
S113067083DF29EA8EE292E0215080409040E1F746
S113068000C000008EEC90E077DFBDDF88818A3007
S113069029F08D3019F0803209F05EDD89818A30CD
S11306A029F08D3019F0803209F056DD86E254DDF0
S11306B02FE88AE497E5215080409040E1F700C09C
S11306C000004EDDDF91CF919ECFCF938BEC90E075
S11306D053DF29EA8EE292E0215080409040E1F716
S11306E000C0000090DF84EE90E046DF29EA8EE24D
S11306F092E0215080409040E1F700C00000EAE21F
S1130700F3E0C0E08191813011F0813309F4C1E05C
S113071023E0E533F207B1F78FED90E02DDF89EAAE
S11307209EE222E0815090402040E1F700C00000AA
S11307308C2FCF910895C09823EA82ED95E1215042
S113074080409040E1F700C00000C09A08950F93E4
S11307501F93CF938C018BEC90E00EDF29EA8EE29D
S113076092E0215080409040E1F700C000008FECFF
S113077090E002DF29EA8EE292E02150804090402E
S1130780E1F700C0000086ED90E0F6DE29EA8EE293
S113079092E0215080409040E1F700C000008FEDCE
S11307A090E0EADE29EA8EE292E021508040904017
S11307B0E1F700C000008EEC90E0DEDE24DFC0E054
S11307C0F801EC0FF11D8081863249F08A3029F05E
S11307D08D3019F0803209F0BFDCCF5FF1CFBCDC83
S11307E02FE88AE497E5215080409040E1F700C06B
S11307F00000EAE2F3E081918F3419F480818B34B4
S113080031F023E0E533F207B1F7C0E001C0C1E005
S1130810A7DCF9DEC11104C0CF911F910F918BCFDA
S1130820CF911F910F910895CF93DF93CDB7DEB78A
S113083027970FB6F894DEBF0FBECDBF9091080185
S1130840A0910901EDEAF0E0A5839683952F929596
S11308509F70905D90875F70505D5187922F929545
S11308609F70905D93872F70205D2487962F9295BB
S11308709F70905D96876F70605D6787972F9295E4
S11308809F70905D918B7F70705D728B942F9295A9
S11308909F70905D948B4F70405D458B982F92951F
S11308A09F70905D978B8F70805D808F832F829572
S11308B08F70805D828F3F70305D338FCF012796BC
S11308C00FB6F894DEBF0FBECDBFDF91CF913FCFFF
S11308D08091080190910901E5E8F0E09583868311
S11308E0A6E2B3E08C91808711968C911197818751
S11308F012968C918287CF012ACFBF92CF92DF923A
S1130900EF92FF920F931F93CF93DF93CDB7DEB790
S113091028970FB6F894DEBF0FBECDBFBBDDC22E45
S1130920132FF42EB52ED62EE72E082F29833A83C3
S11309304B835C836D837E838F8314DE188641E052
S113094050E060E070E0CE01089691D880910801F3
S113095090910901E0E6F0E0958386838B2D8295E2
S11309608F70805D80878B2D8F70805D81878C2D4B
S113097082958F70805D83878C2D8F70805D8487D6
S11309808D2D82958F70805D86878D2D8F70805D13
S113099087878E2D82958F70805D818B8E2D8F70D1
S11309A0805D828B8F2D82958F70805D848B8F2DDF
S11309B08F70805D858B802F82958F70805D878B93
S11309C00F70005D008F812F82958F70805D828F04
S11309D01F70105D138FA6E2B3E08C91858F119682
S11309E08C911197868F12968C91878F888581A31D
S11309F080B382FB882780F9805D83A3CF01A7DEC3
S1130A0028960FB6F894DEBF0FBECDBFDF91CF910D
S1130A101F910F91FF90EF90DF90CF90BF900895BA
S1130A20CF93DF93809108019091090190939500F1
S1130A30809396008BEC90E09FDD29EA8EE292E0B1
S1130A40215080409040E1F700C00000DCDD89EED9
S1130A5090E092DD21E589EE9AE0215080409040BB
S1130A60E1F700C00000CAE2D3E0A8E9B0E0FE016B
S1130A7081918D9323E0E533F207D1F7C4DD8EEE47
S1130A8090E07ADD81E599EE2AE0815090402040A3
S1130A90E1F700C00000E3EAF0E08991819383E08C
S1130AA0C533D807D1F786E28093AE008FED90E08E
S1130AB063DD99EA2EE282E0915020408040E1F724
S1130AC000C0000081E990E0DF91CF9140CE811118
S1130AD002C0929A05C0813021F482B312BA84E62E
S1130AE076CB0895C09A87B3836087BB81B38E6049
S1130AF081BBA29A909A80E090E0E9CFCF93DF93F4
S1130B001F92CDB7DEB742E050E061E570E088E0C7
S1130B1091E0ADD74AE050E063E570E08AE091E00F
S1130B20A6D709DEDFDF78DC8DE290E00DDB69DC3F
S1130B30F2DCECD37894198241E050E060E070E09C
S1130B40CE01019694D789818F3F09F480E03FDB81
S1130B500F90DF91CF910895AC01405F5F4F26E77E
S1130B6038E06FE875E0DC01ED91CD01D901AE27E5
S1130B70FD01E69F9001E79F300DF69F300D112493
S1130B804817590781F7C901880F892F881F990BC6
S1130B90822793279C0153E0220F331F5A95E1F7D4
S1130BA0820F931F9C0165E0220F331F6A95E1F7C2
S1130BB0820F931F0895CF93DF93CDB7DEB7AD9720
S1130BC00FB6F894DEBF0FBECDBF98DF84E621E5F3
S1130BD039EE9AE0215030409040E1F700C0000027
S1130BE08150A9F798EEA92E93E0B92E512C26EF47
S1130BF0822E99249A9432E0632E4DE0342E1BE029
S1130C0056E2452E8091CA0090E0FC013197E13113
S1130C10F105D8F7ED5EFF4F0994A2DAF4DC83E026
S1130C208093CA002CC0909107019B30A0F0809162
S1130C300601811110C080912C03833019F41093A4
S1130C40060109C08A30D9F38F30C9F3DCDC82E4B1
S1130C50809314012BC180910601981798F2882380
S1130C6089F28AE08093CA0010920701CBCF809169
S1130C700401823411F0833429F61093CA0088EEFB
S1130C80A82E83E0B82EBECF05DC29833A834B839C
S1130C905C836D837E838F83C7DD0AC0852D97DADD
S1130CA0511006C080E087C05DDC86E293E010DE70
S1130CB01093CA00A7CFAAE2B3E0FE017196CF0158
S1130CC02D91219323E0A533B207D1F7F0900601CB
S1130CD06F2D70E0625071095ADA082F792E8B89D2
S1130CE0833041F43BE0F312DEC08E899813DBC0FD
S1130CF08F8909C08A3051F48BE0F812D4C08A8DF0
S1130D009813D1C08B8D8013CEC00CC08F3009F0E6
S1130D10CAC09BE0F912C7C08A8D7812C4C08B8DFB
S1130D200813C1C0C988DA88DC24CD24DC24EC880B
S1130D30FD88FE24EF24FE2480910801909109018E
S1130D40019609F46DDE8091080190910901C8169D
S1130D50D90631F48B89833099F08A3009F447C27B
S1130D608C2D0FDC892B19F08B898F3091F0CD28D5
S1130D7009F09ECFFEE5EF16F10409F099CF09C002
S1130D80CD2809F495CF7C8E0D8F4E8ECE014C96D6
S1130D9046DC8B898A3009F078C02FE5E216F1042D
S1130DA029F4598C36E03093CA002CCF8DE5E8162F
S1130DB0F10419F4898D8BDE7BCF9EE5E916F104ED
S1130DC009F045C020E097E0E12CF12CE92FF0E098
S1130DD0EF56FF4F80818632A1F08A3081F08D304A
S1130DE071F0803261F0889FE00CF11C1124E1E085
S1130DF0F0E0EC0FFD1FE20FF11D80832F5F9F5F7A
S1130E00E5CFCE010196A8DECE88DF88C816D906C4
S1130E1019F483EF90E003DCEC14FD0409F048CFEF
S1130E20888D998D98278927982790930901809315
S1130E30080142E050E061E570E088E091E027D6E7
S1130E407C8E0D8F4E8ECE014C96E9DB31CFE3E6DE
S1130E50EE16F10419F4898DA3DB2ACFF4E6EF161C
S1130E60F10419F4898DBCDB23CF20E7E216F104E9
S1130E7009F01ECF33EA82ED95E131508040904075
S1130E80E1F700C0000039DD13CF8F3009F010CF37
S1130E90EFE5EE16F10409F484CFFDE5EF16F10455
S1130EA009F006CF87CF23E4209314013092CA00BF
S1130EB0A9CE1A141B046CF439EA8EE292E0315084
S1130EC080409040E1F700C00000E4E6AE1AB108AB
S1130ED0F0CF6092CA0096CE809105018F5F809317
S1130EE005013ED990DB80911401823449F08334AA
S1130EF009F088CE8093040124E02093CA0082CEB6
S1130F0080930401F4E0F093CA007CCE1DA61CA6D5
S1130F101BA61AA619A618A641E050E061E070E0ED
S1130F20CE018D96A4D58DA5867086958DA7823029
S1130F3009F464C0833009F4E1C0813009F062CE61
S1130F4041E050E063E370E0CE018C9690D541E03F
S1130F5050E064E370E0CE018B9689D541E050E027
S1130F6065E370E0CE018A9682D541E050E066E305
S1130F7070E0CE0189967BD541E050E067E370E0F4
S1130F80CE01889674D586DA2C8F3D8F4E8F5F8F75
S1130F9068A379A38AA3162F1695169516951E7124
S1130FA0812F880F880F180F6F70160F072F069563
S1130FB0069506950E71802F880F880F080F7F7095
S1130FC0070F8BA5081306C08CA5181303C0929AAB
S1130FD088A5FDD889A5081307C08AA5181304C0DD
S1130FE082B312BA80E0F3D833E38DE19DE6315049
S1130FF080409040E1F700C00000C5CF4AE050E0D7
S113100068E370E0CE01419632D54AE050E062E4F4
S113101070E0CE0101962BD545E050E06CE470E021
S1131020CE01839624D536DA2C8F3D8F4E8F5F8F79
S113103068A379A38AA3062F0695069506950E71D3
S1131040802F880F880F080F6F70060F872F8695E3
S1131050869586958E71782E770C770C780E7F7036
S1131060770EFE0171966F019E012F5F3F4F79014C
S1131070212CF601808108130EC0818178120BC0E7
S1131080929A822D8695E3E2F0E0EC0FFD1FE80FC3
S1131090F11D80819CD8F7018081081307C08181EC
S11310A0781204C082B312BA80E091D823942394B6
S11310B0F2E0CF0ED11C22E0E20EF11C3AE0231242
S11310C0D8CF83E39DE1EDE681509040E040E1F725
S11310D000C0000097CD8CA5081303C0929A88A580
S11310E076D889A5F81609F45EC023E33DE18DE6C0
S11310F0215030408040E1F700C00000CBD9062FDA
S1131100F72E2C8F3D8F4E8F5F8F68A379A38AA310
S11311102F70F4E02F9F200D112416EF120F60E1C1
S1131120610F70E041E050E0CE018C96A0D461E103
S1131130610F70E041E050E0CE018B9698D462E1FB
S1131140610F70E041E050E0CE018A9690D463E1F3
S1131150610F70E041E050E0CE01899688D41C5EB6
S1131160612F70E041E050E0CE01889680D4802F5A
S11311708695869586958E71982F990F990F890F6C
S11311800F70080F8F2D8695869586958E71982FF2
S1131190990F990F980F8F2D8F70F92EF80E8BA53C
S11311A0F8129FCF98CF8AA508139FCF82B312BAA3
S11311B080E00DD89ACFD6D9B4011CD484E6860F2A
S11311C006D883DA882329F0CBD71DDA6092CA00C7
S11311D001C0B1DA84E693E5EDE5F4E09150E04036
S11311E0F040E1F700C000008150A9F70BCDCD28F5
S11311F009F4D3CDC8CD1F920F920FB60F921124CC
S11312008F939F93EF93FF9380911E01813019F583
S113121080911D018150E9F480911A0190911B0184
S113122080FF02C0969A01C0969880911A0190910D
S11312301B019695879590931B0180931A018091C9
S11312401C01815080931C01811102C010921E0167
S113125088E080931D018091200181114EC080910E
S113126019018823C9F080911801815080931801D5
S1131270811143C01092190110921F01E0912101C4
S1131280F0E080911701EE5DFE4F80838091210193
S11312908F5F8093210131C080911F01811110C0A3
S11312A087992BC081E080931F01109217019CE065
S11312B09093180198E090931601809315011DC036
S11312C0809118018150B9F480911501879B05C064
S11312D090911701982B90931701880F8093150113
S11312E080911601815080931601811103C081E021
S11312F08093190188E080931801FF91EF919F91E9
S11313008F910F900FBE0F901F90189510921E0191
S113131010921F0110922001969A8F98979A899A99
S113132091988DE583BD89E085BD89B7806889BFC3
S113133014BC08955058BB27AA270ED04DC13ED1E6
S113134030F043D120F031F49F3F11F41EF433C147
S11313500EF4E095E7FB29C1E92F4FD180F3BA17CA
S1131360620773078407950718F071F49EF567C147
S11313700EF4E0950B2EBA2FA02D0B01B9019001AC
S11313800C01CA01A0011124FF27591B99F0593FF0
S113139050F4503E68F11A16F040A22F232F342F38
S11313A04427585FF3CF469537952795A795F04086
S11313B05395C9F77EF41F16BA0B620B730B840B9B
S11313C0BAF09150A1F0FF0FBB1F661F771F881F53
S11313D0C2F70EC0BA0F621F731F841F48F48795AB
S11313E077956795B795F7959E3F08F0B3CF93959A
S11313F0880F08F09927EE0F9795879508950CD0DC
S1131400EBC0E3D040F0DAD030F021F45F3F19F0C4
S1131410CCC0511115C1CFC0F0D098F39923C9F3B2
S11314205523B1F3951B550BBB27AA2762177307E6
S1131430840738F09F5F5F4F220F331F441FAA1F9A
S1131440A9F333D00E2E3AF0E0E830D0915050405A
S1131450E695001CCAF729D0FE2F27D0660F771F08
S1131460881FBB1F261737074807AB07B0E809F0EA
S1131470BB0B802DBF01FF2793585F4F2AF09E3F7F
S1131480510568F092C0DCC05F3FECF3983EDCF39A
S1131490869577956795B795F7959F5FC9F7880FF8
S11314A0911D9695879597F90895E1E0660F771F4A
S11314B0881FBB1F621773078407BA0720F0621BDB
S11314C0730B840BBA0BEE1F88F7E095089504D0D4
S11314D06894B111B5C0089598D088F09F5790F0E2
S11314E0B92F9927B751A0F0D1F0660F771F881F45
S11314F0991F1AF0BA95C9F712C0B13081F09FD084
S1131500B1E008959CC0672F782F8827B85F39F021
S1131510B93FCCF3869577956795B395D9F73EF4A3
S113152090958095709561957F4F8F4F9F4F08954B
S1131530E89409C097FB3EF4909580957095619569
S11315407F4F8F4F9F4F9923A9F0F92F96E9BB271F
S11315509395F695879577956795B795F111F8CF9B
S1131560FAF4BB0F11F460FF1BC06F5F7F4F8F4F06
S11315709F4F16C0882311F096E911C0772321F0FC
S11315809EE8872F762F05C0662371F096E8862F94
S113159070E060E02AF09A95660F771F881FDAF7EB
S11315A0880F9695879597F9089597F99F6780E82E
S11315B070E060E008959FEF80EC089500240A94A1
S11315C01616170618060906089500240A9412161A
S11315D01306140605060895092E0394000C11F44D
S11315E0882352F0BB0F40F4BF2B11F460FF04C0FA
S11315F06F5F7F4F8F4F9F4F089557FD9058440F53
S1131600551F59F05F3F71F04795880F97FB991F5D
S113161061F09F3F79F0879508951216130614061A
S1131620551FF2CF4695F1DF08C0161617061806A7
S1131630991FF1CF86957105610508940895E89482
S1131640BB2766277727CB0197F908950BD0C4CF22
S1131650B5DF28F0BADF18F0952309F0A6CFABCF99
S11316601124EECFCADFA0F3959FD1F3950F50E07C
S1131670551F629FF001729FBB27F00DB11D639F40
S1131680AA27F00DB11DAA1F649F6627B00DA11DE6
S1131690661F829F2227B00DA11D621F739FB00D8C
S11316A0A11D621F839FA00D611D221F749F3327FC
S11316B0A00D611D231F849F600D211D822F762F95
S11316C06A2F11249F5750408AF0E1F088234AF092
S11316D0EE0FFF1FBB1F661F771F881F91505040DE
S11316E0A9F79E3F510570F060CFAACF5F3FECF39E
S11316F0983EDCF3869577956795B795F795E795CA
S11317009F5FC1F7FE2B880F911D9695879597F9DA
S11317100895FA01EE0FFF1F30962105310599F166
S11317206115710561F48038BFE39B0749F1689442
S11317309038810561F08038BFEF9B0741F0992311
S113174042F5FF3FE1053105210511F1E8940894C4
S1131750E795D901AA2329F4AB2FBE2FF85FD0F364
S113176010C0FF5F70F4A695E0F7F73950F019F058
S1131770FF3A38F49F779F930CD00F9007FC905852
S113178008953EF018CF60E070E080E89FE308958C
S11317904FE79F775F934F933F932F939ED02F9163
S11317A03F914F915F9152DF05C019F40EF0FDCEC9
S11317B046CF01CF2ADFC8F39638C0F707F80F9257
S11317C0E8942BE33AEA48EB5FE74EDF0F920F927F
S11317D00F924DB75EB70F92C0D0E8E4F0E016D098
S11317E04F915F91EF91FF91E595EE1FFF1F49F037
S11317F0FE57E0684427EE0F441FFA95E1F7419540
S1131800550B32D00F9007FE26C00895DF93CF9377
S11318101F930F93FF92EF92DF927B018C016894E8
S113182005C0DA2EEF011EDFFE01E894A591259193
S1131830359145915591AEF3EF018EDDFE0197018F
S1131840A801DA9479F7DF90EF90FF900F911F9140
S1131850CF91DF9108959B01AC0160E070E080E8D6
S11318609FE3CDCDA2CEACC0D0DEE8F39923D9F36B
S1131870940F511DBBF39150504094F059F08823BC
S113188032F0660F771F881F91505040C1F79E3F7A
S1131890510544F7880F911D9695879597F90895FA
S11318A05F3FACF0983E9CF0BB2786957795679593
S11318B0B79508F4B1609395C1F7BB0F58F711F4CD
S11318C060FFE8CF6F5F7F4F8F4F9F4FE3CFB8CE5E
S11318D00EF076C070CE689468CE97DEC8F3992374
S11318E0D1F3C6F3DF93CF931F930F93FF92C92FC6
S11318F0DD2788232AF02197660F771F881FDAF7E0
S113190020E030E040E85FEB9FE3883920F0803E40
S113191030F021968F770FDDE0E7F0E003C00BDDB8
S1131920EDE9F0E073DF8B01BE01EC01FB2E6F5794
S113193071097595771F880B990BFCDD28E132E757
S113194041E35FE38FDEAF2D9801AE01FF900F916D
S11319501F91CF91DF9100DD3FCEFA01DC01AA0F88
S1131960BB1F9B01AC01BF5728F422273327442710
S113197050781FC0B75188F4AB2F00244695379593
S11319802795011CA395D2F3002069F0220F331F81
S1131990441FB395DAF30DD0CDCC61307105A0E8C6
S11319A08A07B94630F49B01AC016627772788275C
S11319B09078309621F020833183428353830895B5
S11319C09F3F31F0915020F4879577956795B795AF
S11319D0880F911D9695879597F90895991B79E03D
S11319E004C0991F961708F0961B881F7A95C9F7AB
S11319F08095089597FB072E16F4009406D077FD82
S1131A0008D015D007FC05D03EF4909581959F4FE2
S1131A100895709561957F4F08951DD0A59F900DF1
S1131A20B49F900DA49F800D911D11240895AA1BAD
S1131A30BB1B51E107C0AA1FBB1FA617B70710F0B5
S1131A40A61BB70B881F991F5A95A9F780959095E7
S1131A50BC01CD010895A29FB001B39FC001A39F13
S1131A6001D0B29F700D811D1124911D0895DC01D8
S1131A70CB01FC01E199FECF06C0FFBBEEBBE09AAF
S1131A8031960DB20D9241505040B8F70895DC01E3
S1131A90CB0102C02D9105D041505040D8F7089594
S1131AA0262FE199FECF9FBB8EBB2DBB0FB6F894BA
S1111AB0E29AE19A0FBE01960895F894FFCFD2
S1131ABE23414C4C2D20202D20202F20202F202060
S1131ACE2F20202F20202F20202F20202D202020BB
S1131ADE2D202D2026234144432D20202D2020204F
S1131AEE262349442D20202D202020202020202074
S1131AFE2020202020202020202020202623525465
S1131B0E432D20202D20202F20202F20202F202059
S1131B1E2F20202F20202F202026012B2B2B00417D
S1131B2E5441502031004154524F20313030004145
S1131B3E54434E004154524E0041545348004154B4
S1131B4E534C004861736865642069732065717530
S1071B5E616C0000B2
S9030000FC
