
RadioControllerNew.elf:     file format elf32-avr

Sections:
Idx Name          Size      VMA       LMA       File off  Algn
  0 .text         00001abe  00000000  00000000  00000094  2**1
                  CONTENTS, ALLOC, LOAD, READONLY, CODE
  1 .data         000000a4  00800060  00001abe  00001b52  2**0
                  CONTENTS, ALLOC, LOAD, DATA
  2 .bss          00000231  00800104  00800104  00001bf6  2**0
                  ALLOC
  3 .comment      00000030  00000000  00000000  00001bf6  2**0
                  CONTENTS, READONLY
  4 .note.gnu.avr.deviceinfo 0000003c  00000000  00000000  00001c28  2**2
                  CONTENTS, READONLY

Disassembly of section .text:

00000000 <__vectors>:
       0:	64 c0       	rjmp	.+200    	; 0xca <__ctors_end>
       2:	7e c0       	rjmp	.+252    	; 0x100 <__bad_interrupt>
       4:	7d c0       	rjmp	.+250    	; 0x100 <__bad_interrupt>
       6:	f7 c8       	rjmp	.-3602   	; 0xfffff1f6 <__eeprom_end+0xff7ef1f6>
       8:	7b c0       	rjmp	.+246    	; 0x100 <__bad_interrupt>
       a:	7a c0       	rjmp	.+244    	; 0x100 <__bad_interrupt>
       c:	79 c0       	rjmp	.+242    	; 0x100 <__bad_interrupt>
       e:	78 c0       	rjmp	.+240    	; 0x100 <__bad_interrupt>
      10:	77 c0       	rjmp	.+238    	; 0x100 <__bad_interrupt>
      12:	76 c0       	rjmp	.+236    	; 0x100 <__bad_interrupt>
      14:	75 c0       	rjmp	.+234    	; 0x100 <__bad_interrupt>
      16:	75 c0       	rjmp	.+234    	; 0x102 <__vector_11>
      18:	73 c0       	rjmp	.+230    	; 0x100 <__bad_interrupt>
      1a:	72 c0       	rjmp	.+228    	; 0x100 <__bad_interrupt>
      1c:	71 c0       	rjmp	.+226    	; 0x100 <__bad_interrupt>
      1e:	70 c0       	rjmp	.+224    	; 0x100 <__bad_interrupt>
      20:	6f c0       	rjmp	.+222    	; 0x100 <__bad_interrupt>
      22:	6e c0       	rjmp	.+220    	; 0x100 <__bad_interrupt>
      24:	6d c0       	rjmp	.+218    	; 0x100 <__bad_interrupt>
      26:	55 c7       	rjmp	.+3754   	; 0xed2 <main+0x31c>
      28:	f8 c5       	rjmp	.+3056   	; 0xc1a <main+0x64>
      2a:	fd c5       	rjmp	.+3066   	; 0xc26 <main+0x70>
      2c:	20 c6       	rjmp	.+3136   	; 0xc6e <main+0xb8>
      2e:	2c c6       	rjmp	.+3160   	; 0xc88 <main+0xd2>
      30:	35 c6       	rjmp	.+3178   	; 0xc9c <main+0xe6>
      32:	eb c5       	rjmp	.+3030   	; 0xc0a <main+0x54>
      34:	ea c5       	rjmp	.+3028   	; 0xc0a <main+0x54>
      36:	38 c6       	rjmp	.+3184   	; 0xca8 <main+0xf2>
      38:	3e c6       	rjmp	.+3196   	; 0xcb6 <main+0x100>
      3a:	3b c7       	rjmp	.+3702   	; 0xeb2 <main+0x2fc>
      3c:	e6 c5       	rjmp	.+3020   	; 0xc0a <main+0x54>
      3e:	4c c7       	rjmp	.+3736   	; 0xed8 <main+0x322>
      40:	e4 c5       	rjmp	.+3016   	; 0xc0a <main+0x54>
      42:	e3 c5       	rjmp	.+3014   	; 0xc0a <main+0x54>
      44:	63 c7       	rjmp	.+3782   	; 0xf0c <main+0x356>
      46:	b7 c8       	rjmp	.-3730   	; 0xfffff1b6 <__eeprom_end+0xff7ef1b6>
      48:	07 63       	ori	r16, 0x37	; 55
      4a:	42 36       	cpi	r20, 0x62	; 98
      4c:	b7 9b       	sbis	0x16, 7	; 22
      4e:	d8 a7       	std	Y+40, r29	; 0x28
      50:	1a 39       	cpi	r17, 0x9A	; 154
      52:	68 56       	subi	r22, 0x68	; 104
      54:	18 ae       	std	Y+56, r1	; 0x38
      56:	ba ab       	std	Y+50, r27	; 0x32
      58:	55 8c       	ldd	r5, Z+29	; 0x1d
      5a:	1d 3c       	cpi	r17, 0xCD	; 205
      5c:	b7 cc       	rjmp	.-1682   	; 0xfffff9cc <__eeprom_end+0xff7ef9cc>
      5e:	57 63       	ori	r21, 0x37	; 55
      60:	bd 6d       	ori	r27, 0xDD	; 221
      62:	ed fd       	.word	0xfded	; ????
      64:	75 3e       	cpi	r23, 0xE5	; 229
      66:	f6 17       	cp	r31, r22
      68:	72 31       	cpi	r23, 0x12	; 18
      6a:	bf 00       	.word	0x00bf	; ????
      6c:	00 00       	nop
      6e:	80 3f       	cpi	r24, 0xF0	; 240
      70:	08 00       	.word	0x0008	; ????
      72:	00 00       	nop
      74:	be 92       	st	-X, r11
      76:	24 49       	sbci	r18, 0x94	; 148
      78:	12 3e       	cpi	r17, 0xE2	; 226
      7a:	ab aa       	std	Y+51, r10	; 0x33
      7c:	aa 2a       	or	r10, r26
      7e:	be cd       	rjmp	.-1156   	; 0xfffffbfc <__eeprom_end+0xff7efbfc>
      80:	cc cc       	rjmp	.-1640   	; 0xfffffa1a <__eeprom_end+0xff7efa1a>
      82:	4c 3e       	cpi	r20, 0xEC	; 236
      84:	00 00       	nop
      86:	00 80       	ld	r0, Z
      88:	be ab       	std	Y+54, r27	; 0x36
      8a:	aa aa       	std	Y+50, r10	; 0x32
      8c:	aa 3e       	cpi	r26, 0xEA	; 234
      8e:	00 00       	nop
      90:	00 00       	nop
      92:	bf 00       	.word	0x00bf	; ????
      94:	00 00       	nop
      96:	80 3f       	cpi	r24, 0xF0	; 240
      98:	00 00       	nop
      9a:	00 00       	nop
      9c:	00 08       	sbc	r0, r0
      9e:	41 78       	andi	r20, 0x81	; 129
      a0:	d3 bb       	out	0x13, r29	; 19
      a2:	43 87       	std	Z+11, r20	; 0x0b
      a4:	d1 13       	cpse	r29, r17
      a6:	3d 19       	sub	r19, r13
      a8:	0e 3c       	cpi	r16, 0xCE	; 206
      aa:	c3 bd       	out	0x23, r28	; 35
      ac:	42 82       	std	Z+2, r4	; 0x02
      ae:	ad 2b       	or	r26, r29
      b0:	3e 68       	ori	r19, 0x8E	; 142
      b2:	ec 82       	std	Y+4, r14	; 0x04
      b4:	76 be       	out	0x36, r7	; 54
      b6:	d9 8f       	std	Y+25, r29	; 0x19
      b8:	e1 a9       	ldd	r30, Z+49	; 0x31
      ba:	3e 4c       	sbci	r19, 0xCE	; 206
      bc:	80 ef       	ldi	r24, 0xF0	; 240
      be:	ff be       	out	0x3f, r15	; 63
      c0:	01 c4       	rjmp	.+2050   	; 0x8c4 <send_rtc_packet+0x9c>
      c2:	ff 7f       	andi	r31, 0xFF	; 255
      c4:	3f 00       	.word	0x003f	; ????
      c6:	00 00       	nop
	...

000000ca <__ctors_end>:
      ca:	11 24       	eor	r1, r1
      cc:	1f be       	out	0x3f, r1	; 63
      ce:	cf e5       	ldi	r28, 0x5F	; 95
      d0:	d4 e0       	ldi	r29, 0x04	; 4
      d2:	de bf       	out	0x3e, r29	; 62
      d4:	cd bf       	out	0x3d, r28	; 61

000000d6 <__do_copy_data>:
      d6:	11 e0       	ldi	r17, 0x01	; 1
      d8:	a0 e6       	ldi	r26, 0x60	; 96
      da:	b0 e0       	ldi	r27, 0x00	; 0
      dc:	ee eb       	ldi	r30, 0xBE	; 190
      de:	fa e1       	ldi	r31, 0x1A	; 26
      e0:	02 c0       	rjmp	.+4      	; 0xe6 <__do_copy_data+0x10>
      e2:	05 90       	lpm	r0, Z+
      e4:	0d 92       	st	X+, r0
      e6:	a4 30       	cpi	r26, 0x04	; 4
      e8:	b1 07       	cpc	r27, r17
      ea:	d9 f7       	brne	.-10     	; 0xe2 <__do_copy_data+0xc>

000000ec <__do_clear_bss>:
      ec:	23 e0       	ldi	r18, 0x03	; 3
      ee:	a4 e0       	ldi	r26, 0x04	; 4
      f0:	b1 e0       	ldi	r27, 0x01	; 1
      f2:	01 c0       	rjmp	.+2      	; 0xf6 <.do_clear_bss_start>

000000f4 <.do_clear_bss_loop>:
      f4:	1d 92       	st	X+, r1

000000f6 <.do_clear_bss_start>:
      f6:	a5 33       	cpi	r26, 0x35	; 53
      f8:	b2 07       	cpc	r27, r18
      fa:	e1 f7       	brne	.-8      	; 0xf4 <.do_clear_bss_loop>
      fc:	5c d5       	rcall	.+2744   	; 0xbb6 <main>
      fe:	dd cc       	rjmp	.-1606   	; 0xfffffaba <__eeprom_end+0xff7efaba>

00000100 <__bad_interrupt>:
     100:	7f cf       	rjmp	.-258    	; 0x0 <__vectors>

00000102 <__vector_11>:
     102:	1f 92       	push	r1
     104:	0f 92       	push	r0
     106:	0f b6       	in	r0, 0x3f	; 63
     108:	0f 92       	push	r0
     10a:	11 24       	eor	r1, r1
     10c:	8f 93       	push	r24
     10e:	9f 93       	push	r25
     110:	ef 93       	push	r30
     112:	ff 93       	push	r31
     114:	9c b1       	in	r25, 0x0c	; 12
     116:	80 91 07 01 	lds	r24, 0x0107	; 0x800107 <buffer_index>
     11a:	82 30       	cpi	r24, 0x02	; 2
     11c:	20 f4       	brcc	.+8      	; 0x126 <__vector_11+0x24>
     11e:	9a 30       	cpi	r25, 0x0A	; 10
     120:	51 f0       	breq	.+20     	; 0x136 <__vector_11+0x34>
     122:	9d 30       	cpi	r25, 0x0D	; 13
     124:	41 f0       	breq	.+16     	; 0x136 <__vector_11+0x34>
     126:	e8 2f       	mov	r30, r24
     128:	f0 e0       	ldi	r31, 0x00	; 0
     12a:	e6 5d       	subi	r30, 0xD6	; 214
     12c:	fc 4f       	sbci	r31, 0xFC	; 252
     12e:	90 83       	st	Z, r25
     130:	8f 5f       	subi	r24, 0xFF	; 255
     132:	80 93 07 01 	sts	0x0107, r24	; 0x800107 <buffer_index>
     136:	ff 91       	pop	r31
     138:	ef 91       	pop	r30
     13a:	9f 91       	pop	r25
     13c:	8f 91       	pop	r24
     13e:	0f 90       	pop	r0
     140:	0f be       	out	0x3f, r0	; 63
     142:	0f 90       	pop	r0
     144:	1f 90       	pop	r1
     146:	18 95       	reti

00000148 <USART_Init>:
     148:	90 bd       	out	0x20, r25	; 32
     14a:	89 b9       	out	0x09, r24	; 9
     14c:	88 e1       	ldi	r24, 0x18	; 24
     14e:	8a b9       	out	0x0a, r24	; 10
     150:	57 9a       	sbi	0x0a, 7	; 10
     152:	86 e8       	ldi	r24, 0x86	; 134
     154:	80 bd       	out	0x20, r24	; 32
     156:	08 95       	ret

00000158 <USART_Transmit>:
     158:	5d 9b       	sbis	0x0b, 5	; 11
     15a:	fe cf       	rjmp	.-4      	; 0x158 <USART_Transmit>
     15c:	8c b9       	out	0x0c, r24	; 12
     15e:	08 95       	ret

00000160 <USART_Flush>:
     160:	5f 9b       	sbis	0x0b, 7	; 11
     162:	02 c0       	rjmp	.+4      	; 0x168 <USART_Flush+0x8>
     164:	8c b1       	in	r24, 0x0c	; 12
     166:	fc cf       	rjmp	.-8      	; 0x160 <USART_Flush>
     168:	08 95       	ret

0000016a <send_string>:
     16a:	0f 93       	push	r16
     16c:	1f 93       	push	r17
     16e:	cf 93       	push	r28
     170:	8c 01       	movw	r16, r24
     172:	c0 e0       	ldi	r28, 0x00	; 0
     174:	f8 01       	movw	r30, r16
     176:	ec 0f       	add	r30, r28
     178:	f1 1d       	adc	r31, r1
     17a:	80 81       	ld	r24, Z
     17c:	88 23       	and	r24, r24
     17e:	19 f0       	breq	.+6      	; 0x186 <send_string+0x1c>
     180:	eb df       	rcall	.-42     	; 0x158 <USART_Transmit>
     182:	cf 5f       	subi	r28, 0xFF	; 255
     184:	f7 cf       	rjmp	.-18     	; 0x174 <send_string+0xa>
     186:	cf 91       	pop	r28
     188:	1f 91       	pop	r17
     18a:	0f 91       	pop	r16
     18c:	08 95       	ret

0000018e <CalcCRC16>:
     18e:	cf 93       	push	r28
     190:	ac 01       	movw	r20, r24
     192:	fc 01       	movw	r30, r24
     194:	80 e0       	ldi	r24, 0x00	; 0
     196:	90 e0       	ldi	r25, 0x00	; 0
     198:	9f 01       	movw	r18, r30
     19a:	24 1b       	sub	r18, r20
     19c:	35 0b       	sbc	r19, r21
     19e:	26 17       	cp	r18, r22
     1a0:	37 07       	cpc	r19, r23
     1a2:	9c f4       	brge	.+38     	; 0x1ca <CalcCRC16+0x3c>
     1a4:	21 91       	ld	r18, Z+
     1a6:	92 27       	eor	r25, r18
     1a8:	28 e0       	ldi	r18, 0x08	; 8
     1aa:	30 e0       	ldi	r19, 0x00	; 0
     1ac:	dc 01       	movw	r26, r24
     1ae:	aa 0f       	add	r26, r26
     1b0:	bb 1f       	adc	r27, r27
     1b2:	97 ff       	sbrs	r25, 7
     1b4:	05 c0       	rjmp	.+10     	; 0x1c0 <CalcCRC16+0x32>
     1b6:	cd 01       	movw	r24, r26
     1b8:	c5 e0       	ldi	r28, 0x05	; 5
     1ba:	8c 27       	eor	r24, r28
     1bc:	90 58       	subi	r25, 0x80	; 128
     1be:	01 c0       	rjmp	.+2      	; 0x1c2 <CalcCRC16+0x34>
     1c0:	cd 01       	movw	r24, r26
     1c2:	21 50       	subi	r18, 0x01	; 1
     1c4:	31 09       	sbc	r19, r1
     1c6:	91 f7       	brne	.-28     	; 0x1ac <CalcCRC16+0x1e>
     1c8:	e7 cf       	rjmp	.-50     	; 0x198 <CalcCRC16+0xa>
     1ca:	cf 91       	pop	r28
     1cc:	08 95       	ret

000001ce <set_brightness>:
     1ce:	4f 92       	push	r4
     1d0:	5f 92       	push	r5
     1d2:	6f 92       	push	r6
     1d4:	7f 92       	push	r7
     1d6:	8f 92       	push	r8
     1d8:	9f 92       	push	r9
     1da:	af 92       	push	r10
     1dc:	bf 92       	push	r11
     1de:	cf 92       	push	r12
     1e0:	df 92       	push	r13
     1e2:	ef 92       	push	r14
     1e4:	ff 92       	push	r15
     1e6:	1f 93       	push	r17
     1e8:	cf 93       	push	r28
     1ea:	df 93       	push	r29
     1ec:	cd b7       	in	r28, 0x3d	; 61
     1ee:	de b7       	in	r29, 0x3e	; 62
     1f0:	62 97       	sbiw	r28, 0x12	; 18
     1f2:	0f b6       	in	r0, 0x3f	; 63
     1f4:	f8 94       	cli
     1f6:	de bf       	out	0x3e, r29	; 62
     1f8:	0f be       	out	0x3f, r0	; 63
     1fa:	cd bf       	out	0x3d, r28	; 61
     1fc:	8e 83       	std	Y+6, r24	; 0x06
     1fe:	18 2f       	mov	r17, r24
     200:	8d 83       	std	Y+5, r24	; 0x05
     202:	6d 81       	ldd	r22, Y+5	; 0x05
     204:	70 e0       	ldi	r23, 0x00	; 0
     206:	80 e0       	ldi	r24, 0x00	; 0
     208:	90 e0       	ldi	r25, 0x00	; 0
     20a:	94 d9       	rcall	.-3288   	; 0xfffff534 <__eeprom_end+0xff7ef534>
     20c:	20 e0       	ldi	r18, 0x00	; 0
     20e:	30 e0       	ldi	r19, 0x00	; 0
     210:	40 e2       	ldi	r20, 0x20	; 32
     212:	51 e4       	ldi	r21, 0x41	; 65
     214:	f4 d8       	rcall	.-3608   	; 0xfffff3fe <__eeprom_end+0xff7ef3fe>
     216:	2d ec       	ldi	r18, 0xCD	; 205
     218:	3c ec       	ldi	r19, 0xCC	; 204
     21a:	44 e1       	ldi	r20, 0x14	; 20
     21c:	51 e4       	ldi	r21, 0x41	; 65
     21e:	ef d8       	rcall	.-3618   	; 0xfffff3fe <__eeprom_end+0xff7ef3fe>
     220:	6b 01       	movw	r12, r22
     222:	7c 01       	movw	r14, r24
     224:	20 e0       	ldi	r18, 0x00	; 0
     226:	30 e0       	ldi	r19, 0x00	; 0
     228:	40 ee       	ldi	r20, 0xE0	; 224
     22a:	50 e4       	ldi	r21, 0x40	; 64
     22c:	72 da       	rcall	.-2844   	; 0xfffff712 <__eeprom_end+0xff7ef712>
     22e:	4b 01       	movw	r8, r22
     230:	5c 01       	movw	r10, r24
     232:	20 e0       	ldi	r18, 0x00	; 0
     234:	30 e0       	ldi	r19, 0x00	; 0
     236:	40 ec       	ldi	r20, 0xC0	; 192
     238:	50 e4       	ldi	r21, 0x40	; 64
     23a:	c7 01       	movw	r24, r14
     23c:	b6 01       	movw	r22, r12
     23e:	69 da       	rcall	.-2862   	; 0xfffff712 <__eeprom_end+0xff7ef712>
     240:	2b 01       	movw	r4, r22
     242:	3c 01       	movw	r6, r24
     244:	20 e0       	ldi	r18, 0x00	; 0
     246:	30 e0       	ldi	r19, 0x00	; 0
     248:	40 ea       	ldi	r20, 0xA0	; 160
     24a:	50 e4       	ldi	r21, 0x40	; 64
     24c:	c7 01       	movw	r24, r14
     24e:	b6 01       	movw	r22, r12
     250:	60 da       	rcall	.-2880   	; 0xfffff712 <__eeprom_end+0xff7ef712>
     252:	6f 83       	std	Y+7, r22	; 0x07
     254:	78 87       	std	Y+8, r23	; 0x08
     256:	89 87       	std	Y+9, r24	; 0x09
     258:	9a 87       	std	Y+10, r25	; 0x0a
     25a:	20 e0       	ldi	r18, 0x00	; 0
     25c:	30 e0       	ldi	r19, 0x00	; 0
     25e:	40 e8       	ldi	r20, 0x80	; 128
     260:	50 e4       	ldi	r21, 0x40	; 64
     262:	c7 01       	movw	r24, r14
     264:	b6 01       	movw	r22, r12
     266:	55 da       	rcall	.-2902   	; 0xfffff712 <__eeprom_end+0xff7ef712>
     268:	6b 87       	std	Y+11, r22	; 0x0b
     26a:	7c 87       	std	Y+12, r23	; 0x0c
     26c:	8d 87       	std	Y+13, r24	; 0x0d
     26e:	9e 87       	std	Y+14, r25	; 0x0e
     270:	20 e0       	ldi	r18, 0x00	; 0
     272:	30 e0       	ldi	r19, 0x00	; 0
     274:	40 e4       	ldi	r20, 0x40	; 64
     276:	50 e4       	ldi	r21, 0x40	; 64
     278:	c7 01       	movw	r24, r14
     27a:	b6 01       	movw	r22, r12
     27c:	4a da       	rcall	.-2924   	; 0xfffff712 <__eeprom_end+0xff7ef712>
     27e:	6f 87       	std	Y+15, r22	; 0x0f
     280:	78 8b       	std	Y+16, r23	; 0x10
     282:	89 8b       	std	Y+17, r24	; 0x11
     284:	9a 8b       	std	Y+18, r25	; 0x12
     286:	21 e1       	ldi	r18, 0x11	; 17
     288:	36 e3       	ldi	r19, 0x36	; 54
     28a:	49 e0       	ldi	r20, 0x09	; 9
     28c:	52 e4       	ldi	r21, 0x42	; 66
     28e:	c5 01       	movw	r24, r10
     290:	b4 01       	movw	r22, r8
     292:	dc d9       	rcall	.-3144   	; 0xfffff64c <__eeprom_end+0xff7ef64c>
     294:	4b 01       	movw	r8, r22
     296:	5c 01       	movw	r10, r24
     298:	2e e1       	ldi	r18, 0x1E	; 30
     29a:	36 ed       	ldi	r19, 0xD6	; 214
     29c:	48 e0       	ldi	r20, 0x08	; 8
     29e:	53 e4       	ldi	r21, 0x43	; 67
     2a0:	c3 01       	movw	r24, r6
     2a2:	b2 01       	movw	r22, r4
     2a4:	d3 d9       	rcall	.-3162   	; 0xfffff64c <__eeprom_end+0xff7ef64c>
     2a6:	9b 01       	movw	r18, r22
     2a8:	ac 01       	movw	r20, r24
     2aa:	c5 01       	movw	r24, r10
     2ac:	b4 01       	movw	r22, r8
     2ae:	42 d8       	rcall	.-3964   	; 0xfffff334 <__eeprom_end+0xff7ef334>
     2b0:	4b 01       	movw	r8, r22
     2b2:	5c 01       	movw	r10, r24
     2b4:	27 e8       	ldi	r18, 0x87	; 135
     2b6:	36 e0       	ldi	r19, 0x06	; 6
     2b8:	41 e6       	ldi	r20, 0x61	; 97
     2ba:	53 e4       	ldi	r21, 0x43	; 67
     2bc:	6f 81       	ldd	r22, Y+7	; 0x07
     2be:	78 85       	ldd	r23, Y+8	; 0x08
     2c0:	89 85       	ldd	r24, Y+9	; 0x09
     2c2:	9a 85       	ldd	r25, Y+10	; 0x0a
     2c4:	c3 d9       	rcall	.-3194   	; 0xfffff64c <__eeprom_end+0xff7ef64c>
     2c6:	9b 01       	movw	r18, r22
     2c8:	ac 01       	movw	r20, r24
     2ca:	c5 01       	movw	r24, r10
     2cc:	b4 01       	movw	r22, r8
     2ce:	33 d8       	rcall	.-3994   	; 0xfffff336 <__eeprom_end+0xff7ef336>
     2d0:	4b 01       	movw	r8, r22
     2d2:	5c 01       	movw	r10, r24
     2d4:	2c e0       	ldi	r18, 0x0C	; 12
     2d6:	32 e6       	ldi	r19, 0x62	; 98
     2d8:	46 e4       	ldi	r20, 0x46	; 70
     2da:	53 e4       	ldi	r21, 0x43	; 67
     2dc:	6b 85       	ldd	r22, Y+11	; 0x0b
     2de:	7c 85       	ldd	r23, Y+12	; 0x0c
     2e0:	8d 85       	ldd	r24, Y+13	; 0x0d
     2e2:	9e 85       	ldd	r25, Y+14	; 0x0e
     2e4:	b3 d9       	rcall	.-3226   	; 0xfffff64c <__eeprom_end+0xff7ef64c>
     2e6:	9b 01       	movw	r18, r22
     2e8:	ac 01       	movw	r20, r24
     2ea:	c5 01       	movw	r24, r10
     2ec:	b4 01       	movw	r22, r8
     2ee:	22 d8       	rcall	.-4028   	; 0xfffff334 <__eeprom_end+0xff7ef334>
     2f0:	4b 01       	movw	r8, r22
     2f2:	5c 01       	movw	r10, r24
     2f4:	29 ec       	ldi	r18, 0xC9	; 201
     2f6:	35 ec       	ldi	r19, 0xC5	; 197
     2f8:	4d ec       	ldi	r20, 0xCD	; 205
     2fa:	52 e4       	ldi	r21, 0x42	; 66
     2fc:	6f 85       	ldd	r22, Y+15	; 0x0f
     2fe:	78 89       	ldd	r23, Y+16	; 0x10
     300:	89 89       	ldd	r24, Y+17	; 0x11
     302:	9a 89       	ldd	r25, Y+18	; 0x12
     304:	a3 d9       	rcall	.-3258   	; 0xfffff64c <__eeprom_end+0xff7ef64c>
     306:	9b 01       	movw	r18, r22
     308:	ac 01       	movw	r20, r24
     30a:	c5 01       	movw	r24, r10
     30c:	b4 01       	movw	r22, r8
     30e:	13 d8       	rcall	.-4058   	; 0xfffff336 <__eeprom_end+0xff7ef336>
     310:	4b 01       	movw	r8, r22
     312:	5c 01       	movw	r10, r24
     314:	a7 01       	movw	r20, r14
     316:	96 01       	movw	r18, r12
     318:	c7 01       	movw	r24, r14
     31a:	b6 01       	movw	r22, r12
     31c:	97 d9       	rcall	.-3282   	; 0xfffff64c <__eeprom_end+0xff7ef64c>
     31e:	2c e9       	ldi	r18, 0x9C	; 156
     320:	33 e3       	ldi	r19, 0x33	; 51
     322:	44 e0       	ldi	r20, 0x04	; 4
     324:	52 e4       	ldi	r21, 0x42	; 66
     326:	92 d9       	rcall	.-3292   	; 0xfffff64c <__eeprom_end+0xff7ef64c>
     328:	9b 01       	movw	r18, r22
     32a:	ac 01       	movw	r20, r24
     32c:	c5 01       	movw	r24, r10
     32e:	b4 01       	movw	r22, r8
     330:	01 d8       	rcall	.-4094   	; 0xfffff334 <__eeprom_end+0xff7ef334>
     332:	4b 01       	movw	r8, r22
     334:	5c 01       	movw	r10, r24
     336:	26 ec       	ldi	r18, 0xC6	; 198
     338:	3d e6       	ldi	r19, 0x6D	; 109
     33a:	42 ee       	ldi	r20, 0xE2	; 226
     33c:	50 e4       	ldi	r21, 0x40	; 64
     33e:	c7 01       	movw	r24, r14
     340:	b6 01       	movw	r22, r12
     342:	84 d9       	rcall	.-3320   	; 0xfffff64c <__eeprom_end+0xff7ef64c>
     344:	9b 01       	movw	r18, r22
     346:	ac 01       	movw	r20, r24
     348:	c5 01       	movw	r24, r10
     34a:	b4 01       	movw	r22, r8
     34c:	f4 d7       	rcall	.+4072   	; 0x1336 <__addsf3>
     34e:	22 e5       	ldi	r18, 0x52	; 82
     350:	39 e4       	ldi	r19, 0x49	; 73
     352:	4d e9       	ldi	r20, 0x9D	; 157
     354:	5c e3       	ldi	r21, 0x3C	; 60
     356:	ee d7       	rcall	.+4060   	; 0x1334 <__subsf3>
     358:	20 e0       	ldi	r18, 0x00	; 0
     35a:	30 e0       	ldi	r19, 0x00	; 0
     35c:	48 ec       	ldi	r20, 0xC8	; 200
     35e:	52 e4       	ldi	r21, 0x42	; 66
     360:	75 d9       	rcall	.-3350   	; 0xfffff64c <__eeprom_end+0xff7ef64c>
     362:	69 83       	std	Y+1, r22	; 0x01
     364:	7a 83       	std	Y+2, r23	; 0x02
     366:	8b 83       	std	Y+3, r24	; 0x03
     368:	9c 83       	std	Y+4, r25	; 0x04
     36a:	69 81       	ldd	r22, Y+1	; 0x01
     36c:	7a 81       	ldd	r23, Y+2	; 0x02
     36e:	8b 81       	ldd	r24, Y+3	; 0x03
     370:	9c 81       	ldd	r25, Y+4	; 0x04
     372:	ad d8       	rcall	.-3750   	; 0xfffff4ce <__eeprom_end+0xff7ef4ce>
     374:	9b 01       	movw	r18, r22
     376:	ac 01       	movw	r20, r24
     378:	aa e0       	ldi	r26, 0x0A	; 10
     37a:	b0 e0       	ldi	r27, 0x00	; 0
     37c:	4e db       	rcall	.-2404   	; 0xfffffa1a <__eeprom_end+0xff7efa1a>
     37e:	61 15       	cp	r22, r1
     380:	74 40       	sbci	r23, 0x04	; 4
     382:	81 05       	cpc	r24, r1
     384:	91 05       	cpc	r25, r1
     386:	64 f4       	brge	.+24     	; 0x3a0 <set_brightness+0x1d2>
     388:	69 81       	ldd	r22, Y+1	; 0x01
     38a:	7a 81       	ldd	r23, Y+2	; 0x02
     38c:	8b 81       	ldd	r24, Y+3	; 0x03
     38e:	9c 81       	ldd	r25, Y+4	; 0x04
     390:	9e d8       	rcall	.-3780   	; 0xfffff4ce <__eeprom_end+0xff7ef4ce>
     392:	4a e0       	ldi	r20, 0x0A	; 10
     394:	46 9f       	mul	r20, r22
     396:	90 01       	movw	r18, r0
     398:	47 9f       	mul	r20, r23
     39a:	30 0d       	add	r19, r0
     39c:	11 24       	eor	r1, r1
     39e:	02 c0       	rjmp	.+4      	; 0x3a4 <set_brightness+0x1d6>
     3a0:	2f ef       	ldi	r18, 0xFF	; 255
     3a2:	33 e0       	ldi	r19, 0x03	; 3
     3a4:	11 11       	cpse	r17, r1
     3a6:	03 c0       	rjmp	.+6      	; 0x3ae <set_brightness+0x1e0>
     3a8:	8f ef       	ldi	r24, 0xFF	; 255
     3aa:	93 e0       	ldi	r25, 0x03	; 3
     3ac:	0b c0       	rjmp	.+22     	; 0x3c4 <set_brightness+0x1f6>
     3ae:	14 36       	cpi	r17, 0x64	; 100
     3b0:	28 f0       	brcs	.+10     	; 0x3bc <set_brightness+0x1ee>
     3b2:	1b bc       	out	0x2b, r1	; 43
     3b4:	1a bc       	out	0x2a, r1	; 42
     3b6:	84 e6       	ldi	r24, 0x64	; 100
     3b8:	8e 83       	std	Y+6, r24	; 0x06
     3ba:	06 c0       	rjmp	.+12     	; 0x3c8 <set_brightness+0x1fa>
     3bc:	8f ef       	ldi	r24, 0xFF	; 255
     3be:	93 e0       	ldi	r25, 0x03	; 3
     3c0:	82 1b       	sub	r24, r18
     3c2:	93 0b       	sbc	r25, r19
     3c4:	9b bd       	out	0x2b, r25	; 43
     3c6:	8a bd       	out	0x2a, r24	; 42
     3c8:	41 e0       	ldi	r20, 0x01	; 1
     3ca:	50 e0       	ldi	r21, 0x00	; 0
     3cc:	60 e0       	ldi	r22, 0x00	; 0
     3ce:	70 e0       	ldi	r23, 0x00	; 0
     3d0:	ce 01       	movw	r24, r28
     3d2:	06 96       	adiw	r24, 0x06	; 6
     3d4:	5c db       	rcall	.-2376   	; 0xfffffa8e <__eeprom_end+0xff7efa8e>
     3d6:	62 96       	adiw	r28, 0x12	; 18
     3d8:	0f b6       	in	r0, 0x3f	; 63
     3da:	f8 94       	cli
     3dc:	de bf       	out	0x3e, r29	; 62
     3de:	0f be       	out	0x3f, r0	; 63
     3e0:	cd bf       	out	0x3d, r28	; 61
     3e2:	df 91       	pop	r29
     3e4:	cf 91       	pop	r28
     3e6:	1f 91       	pop	r17
     3e8:	ff 90       	pop	r15
     3ea:	ef 90       	pop	r14
     3ec:	df 90       	pop	r13
     3ee:	cf 90       	pop	r12
     3f0:	bf 90       	pop	r11
     3f2:	af 90       	pop	r10
     3f4:	9f 90       	pop	r9
     3f6:	8f 90       	pop	r8
     3f8:	7f 90       	pop	r7
     3fa:	6f 90       	pop	r6
     3fc:	5f 90       	pop	r5
     3fe:	4f 90       	pop	r4
     400:	08 95       	ret

00000402 <PWM_Init>:
     402:	b9 9a       	sbi	0x17, 1	; 23
     404:	8f b5       	in	r24, 0x2f	; 47
     406:	80 68       	ori	r24, 0x80	; 128
     408:	8f bd       	out	0x2f, r24	; 47
     40a:	8f b5       	in	r24, 0x2f	; 47
     40c:	83 60       	ori	r24, 0x03	; 3
     40e:	8f bd       	out	0x2f, r24	; 47
     410:	8e b5       	in	r24, 0x2e	; 46
     412:	81 60       	ori	r24, 0x01	; 1
     414:	8e bd       	out	0x2e, r24	; 46
     416:	08 95       	ret

00000418 <RTC_Init>:
     418:	8f e3       	ldi	r24, 0x3F	; 63
     41a:	80 b9       	out	0x00, r24	; 0
     41c:	11 b8       	out	0x01, r1	; 1
     41e:	08 95       	ret

00000420 <RTC_Get>:
     420:	84 ea       	ldi	r24, 0xA4	; 164
     422:	86 bf       	out	0x36, r24	; 54
     424:	06 b6       	in	r0, 0x36	; 54
     426:	07 fe       	sbrs	r0, 7
     428:	fd cf       	rjmp	.-6      	; 0x424 <RTC_Get+0x4>
     42a:	81 ed       	ldi	r24, 0xD1	; 209
     42c:	83 b9       	out	0x03, r24	; 3
     42e:	84 e8       	ldi	r24, 0x84	; 132
     430:	86 bf       	out	0x36, r24	; 54
     432:	06 b6       	in	r0, 0x36	; 54
     434:	07 fe       	sbrs	r0, 7
     436:	fd cf       	rjmp	.-6      	; 0x432 <RTC_Get+0x12>
     438:	84 e8       	ldi	r24, 0x84	; 132
     43a:	86 bf       	out	0x36, r24	; 54
     43c:	06 b6       	in	r0, 0x36	; 54
     43e:	07 fe       	sbrs	r0, 7
     440:	fd cf       	rjmp	.-6      	; 0x43c <RTC_Get+0x1c>
     442:	83 b1       	in	r24, 0x03	; 3
     444:	94 e9       	ldi	r25, 0x94	; 148
     446:	96 bf       	out	0x36, r25	; 54
     448:	08 95       	ret

0000044a <RTC_Set>:
     44a:	94 ea       	ldi	r25, 0xA4	; 164
     44c:	96 bf       	out	0x36, r25	; 54
     44e:	06 b6       	in	r0, 0x36	; 54
     450:	07 fe       	sbrs	r0, 7
     452:	fd cf       	rjmp	.-6      	; 0x44e <RTC_Set+0x4>
     454:	90 ed       	ldi	r25, 0xD0	; 208
     456:	93 b9       	out	0x03, r25	; 3
     458:	94 e8       	ldi	r25, 0x84	; 132
     45a:	96 bf       	out	0x36, r25	; 54
     45c:	06 b6       	in	r0, 0x36	; 54
     45e:	07 fe       	sbrs	r0, 7
     460:	fd cf       	rjmp	.-6      	; 0x45c <RTC_Set+0x12>
     462:	83 b9       	out	0x03, r24	; 3
     464:	84 e8       	ldi	r24, 0x84	; 132
     466:	86 bf       	out	0x36, r24	; 54
     468:	06 b6       	in	r0, 0x36	; 54
     46a:	07 fe       	sbrs	r0, 7
     46c:	fd cf       	rjmp	.-6      	; 0x468 <__stack+0x9>
     46e:	6f 3f       	cpi	r22, 0xFF	; 255
     470:	19 f4       	brne	.+6      	; 0x478 <__stack+0x19>
     472:	84 e9       	ldi	r24, 0x94	; 148
     474:	86 bf       	out	0x36, r24	; 54
     476:	08 95       	ret
     478:	86 2f       	mov	r24, r22
     47a:	6a e0       	ldi	r22, 0x0A	; 10
     47c:	af da       	rcall	.-2722   	; 0xfffff9dc <__eeprom_end+0xff7ef9dc>
     47e:	20 e1       	ldi	r18, 0x10	; 16
     480:	82 9f       	mul	r24, r18
     482:	90 0d       	add	r25, r0
     484:	11 24       	eor	r1, r1
     486:	93 b9       	out	0x03, r25	; 3
     488:	84 e8       	ldi	r24, 0x84	; 132
     48a:	86 bf       	out	0x36, r24	; 54
     48c:	06 b6       	in	r0, 0x36	; 54
     48e:	07 fe       	sbrs	r0, 7
     490:	fd cf       	rjmp	.-6      	; 0x48c <__stack+0x2d>
     492:	ef cf       	rjmp	.-34     	; 0x472 <__stack+0x13>

00000494 <RTC_GET>:
     494:	cf 92       	push	r12
     496:	df 92       	push	r13
     498:	ef 92       	push	r14
     49a:	ff 92       	push	r15
     49c:	0f 93       	push	r16
     49e:	1f 93       	push	r17
     4a0:	cf 93       	push	r28
     4a2:	df 93       	push	r29
     4a4:	cd b7       	in	r28, 0x3d	; 61
     4a6:	de b7       	in	r29, 0x3e	; 62
     4a8:	27 97       	sbiw	r28, 0x07	; 7
     4aa:	0f b6       	in	r0, 0x3f	; 63
     4ac:	f8 94       	cli
     4ae:	de bf       	out	0x3e, r29	; 62
     4b0:	0f be       	out	0x3f, r0	; 63
     4b2:	cd bf       	out	0x3d, r28	; 61
     4b4:	6f ef       	ldi	r22, 0xFF	; 255
     4b6:	80 e0       	ldi	r24, 0x00	; 0
     4b8:	c8 df       	rcall	.-112    	; 0x44a <RTC_Set>
     4ba:	8b ef       	ldi	r24, 0xFB	; 251
     4bc:	96 e0       	ldi	r25, 0x06	; 6
     4be:	01 97       	sbiw	r24, 0x01	; 1
     4c0:	f1 f7       	brne	.-4      	; 0x4be <RTC_GET+0x2a>
     4c2:	00 c0       	rjmp	.+0      	; 0x4c4 <RTC_GET+0x30>
     4c4:	ad df       	rcall	.-166    	; 0x420 <RTC_Get>
     4c6:	18 2f       	mov	r17, r24
     4c8:	ab df       	rcall	.-170    	; 0x420 <RTC_Get>
     4ca:	08 2f       	mov	r16, r24
     4cc:	a9 df       	rcall	.-174    	; 0x420 <RTC_Get>
     4ce:	f8 2e       	mov	r15, r24
     4d0:	a7 df       	rcall	.-178    	; 0x420 <RTC_Get>
     4d2:	c8 2e       	mov	r12, r24
     4d4:	a5 df       	rcall	.-182    	; 0x420 <RTC_Get>
     4d6:	e8 2e       	mov	r14, r24
     4d8:	a3 df       	rcall	.-186    	; 0x420 <RTC_Get>
     4da:	d8 2e       	mov	r13, r24
     4dc:	a1 df       	rcall	.-190    	; 0x420 <RTC_Get>
     4de:	eb ef       	ldi	r30, 0xFB	; 251
     4e0:	f6 e0       	ldi	r31, 0x06	; 6
     4e2:	31 97       	sbiw	r30, 0x01	; 1
     4e4:	f1 f7       	brne	.-4      	; 0x4e2 <RTC_GET+0x4e>
     4e6:	00 c0       	rjmp	.+0      	; 0x4e8 <RTC_GET+0x54>
     4e8:	2c 2d       	mov	r18, r12
     4ea:	38 2f       	mov	r19, r24
     4ec:	4d 2d       	mov	r20, r13
     4ee:	5e 2d       	mov	r21, r14
     4f0:	6f 2d       	mov	r22, r15
     4f2:	70 2f       	mov	r23, r16
     4f4:	81 2f       	mov	r24, r17
     4f6:	90 e0       	ldi	r25, 0x00	; 0
     4f8:	27 96       	adiw	r28, 0x07	; 7
     4fa:	0f b6       	in	r0, 0x3f	; 63
     4fc:	f8 94       	cli
     4fe:	de bf       	out	0x3e, r29	; 62
     500:	0f be       	out	0x3f, r0	; 63
     502:	cd bf       	out	0x3d, r28	; 61
     504:	df 91       	pop	r29
     506:	cf 91       	pop	r28
     508:	1f 91       	pop	r17
     50a:	0f 91       	pop	r16
     50c:	ff 90       	pop	r15
     50e:	ef 90       	pop	r14
     510:	df 90       	pop	r13
     512:	cf 90       	pop	r12
     514:	08 95       	ret

00000516 <adc_init>:
     516:	80 e4       	ldi	r24, 0x40	; 64
     518:	87 b9       	out	0x07, r24	; 7
     51a:	87 e8       	ldi	r24, 0x87	; 135
     51c:	86 b9       	out	0x06, r24	; 6
     51e:	08 95       	ret

00000520 <int_to_char_array>:
     520:	cf 93       	push	r28
     522:	df 93       	push	r29
     524:	23 e0       	ldi	r18, 0x03	; 3
     526:	ca e0       	ldi	r28, 0x0A	; 10
     528:	d0 e0       	ldi	r29, 0x00	; 0
     52a:	00 97       	sbiw	r24, 0x00	; 0
     52c:	59 f0       	breq	.+22     	; 0x544 <int_to_char_array+0x24>
     52e:	e2 2f       	mov	r30, r18
     530:	f0 e0       	ldi	r31, 0x00	; 0
     532:	ea 5d       	subi	r30, 0xDA	; 218
     534:	fc 4f       	sbci	r31, 0xFC	; 252
     536:	be 01       	movw	r22, r28
     538:	5d da       	rcall	.-2886   	; 0xfffff9f4 <__eeprom_end+0xff7ef9f4>
     53a:	80 5d       	subi	r24, 0xD0	; 208
     53c:	80 83       	st	Z, r24
     53e:	cb 01       	movw	r24, r22
     540:	21 50       	subi	r18, 0x01	; 1
     542:	f3 cf       	rjmp	.-26     	; 0x52a <int_to_char_array+0xa>
     544:	23 30       	cpi	r18, 0x03	; 3
     546:	58 f4       	brcc	.+22     	; 0x55e <int_to_char_array+0x3e>
     548:	80 e3       	ldi	r24, 0x30	; 48
     54a:	80 93 26 03 	sts	0x0326, r24	; 0x800326 <mychar>
     54e:	22 23       	and	r18, r18
     550:	31 f0       	breq	.+12     	; 0x55e <int_to_char_array+0x3e>
     552:	80 93 27 03 	sts	0x0327, r24	; 0x800327 <mychar+0x1>
     556:	22 30       	cpi	r18, 0x02	; 2
     558:	11 f4       	brne	.+4      	; 0x55e <int_to_char_array+0x3e>
     55a:	80 93 28 03 	sts	0x0328, r24	; 0x800328 <mychar+0x2>
     55e:	df 91       	pop	r29
     560:	cf 91       	pop	r28
     562:	08 95       	ret

00000564 <get_illumination>:
     564:	36 9a       	sbi	0x06, 6	; 6
     566:	36 99       	sbic	0x06, 6	; 6
     568:	fe cf       	rjmp	.-4      	; 0x566 <get_illumination+0x2>
     56a:	34 9a       	sbi	0x06, 4	; 6
     56c:	84 b1       	in	r24, 0x04	; 4
     56e:	95 b1       	in	r25, 0x05	; 5
     570:	d7 df       	rcall	.-82     	; 0x520 <int_to_char_array>
     572:	84 b1       	in	r24, 0x04	; 4
     574:	95 b1       	in	r25, 0x05	; 5
     576:	08 95       	ret

00000578 <send_cmd>:
     578:	f8 dd       	rcall	.-1040   	; 0x16a <send_string>
     57a:	8d e0       	ldi	r24, 0x0D	; 13
     57c:	ed dd       	rcall	.-1062   	; 0x158 <USART_Transmit>
     57e:	8a e0       	ldi	r24, 0x0A	; 10
     580:	eb cd       	rjmp	.-1066   	; 0x158 <USART_Transmit>

00000582 <group_existing>:
     582:	ea e0       	ldi	r30, 0x0A	; 10
     584:	f1 e0       	ldi	r31, 0x01	; 1
     586:	91 91       	ld	r25, Z+
     588:	98 17       	cp	r25, r24
     58a:	39 f0       	breq	.+14     	; 0x59a <group_existing+0x18>
     58c:	91 e0       	ldi	r25, 0x01	; 1
     58e:	e4 31       	cpi	r30, 0x14	; 20
     590:	f9 07       	cpc	r31, r25
     592:	c9 f7       	brne	.-14     	; 0x586 <group_existing+0x4>
     594:	80 e0       	ldi	r24, 0x00	; 0
     596:	90 e0       	ldi	r25, 0x00	; 0
     598:	08 95       	ret
     59a:	81 e0       	ldi	r24, 0x01	; 1
     59c:	90 e0       	ldi	r25, 0x00	; 0
     59e:	08 95       	ret

000005a0 <add_lamp_to_group>:
     5a0:	cf 93       	push	r28
     5a2:	c8 2f       	mov	r28, r24
     5a4:	ee df       	rcall	.-36     	; 0x582 <group_existing>
     5a6:	89 2b       	or	r24, r25
     5a8:	c9 f4       	brne	.+50     	; 0x5dc <add_lamp_to_group+0x3c>
     5aa:	ea e0       	ldi	r30, 0x0A	; 10
     5ac:	f1 e0       	ldi	r31, 0x01	; 1
     5ae:	80 e0       	ldi	r24, 0x00	; 0
     5b0:	90 e0       	ldi	r25, 0x00	; 0
     5b2:	21 91       	ld	r18, Z+
     5b4:	21 50       	subi	r18, 0x01	; 1
     5b6:	2e 3f       	cpi	r18, 0xFE	; 254
     5b8:	28 f0       	brcs	.+10     	; 0x5c4 <add_lamp_to_group+0x24>
     5ba:	fc 01       	movw	r30, r24
     5bc:	e6 5f       	subi	r30, 0xF6	; 246
     5be:	fe 4f       	sbci	r31, 0xFE	; 254
     5c0:	c0 83       	st	Z, r28
     5c2:	04 c0       	rjmp	.+8      	; 0x5cc <add_lamp_to_group+0x2c>
     5c4:	01 96       	adiw	r24, 0x01	; 1
     5c6:	8a 30       	cpi	r24, 0x0A	; 10
     5c8:	91 05       	cpc	r25, r1
     5ca:	99 f7       	brne	.-26     	; 0x5b2 <add_lamp_to_group+0x12>
     5cc:	4a e0       	ldi	r20, 0x0A	; 10
     5ce:	50 e0       	ldi	r21, 0x00	; 0
     5d0:	63 e5       	ldi	r22, 0x53	; 83
     5d2:	70 e0       	ldi	r23, 0x00	; 0
     5d4:	8a e0       	ldi	r24, 0x0A	; 10
     5d6:	91 e0       	ldi	r25, 0x01	; 1
     5d8:	cf 91       	pop	r28
     5da:	59 ca       	rjmp	.-2894   	; 0xfffffa8e <__eeprom_end+0xff7efa8e>
     5dc:	cf 91       	pop	r28
     5de:	08 95       	ret

000005e0 <delete_lamp_from_group>:
     5e0:	ea e0       	ldi	r30, 0x0A	; 10
     5e2:	f1 e0       	ldi	r31, 0x01	; 1
     5e4:	9f ef       	ldi	r25, 0xFF	; 255
     5e6:	20 81       	ld	r18, Z
     5e8:	28 13       	cpse	r18, r24
     5ea:	01 c0       	rjmp	.+2      	; 0x5ee <delete_lamp_from_group+0xe>
     5ec:	90 83       	st	Z, r25
     5ee:	31 96       	adiw	r30, 0x01	; 1
     5f0:	21 e0       	ldi	r18, 0x01	; 1
     5f2:	e4 31       	cpi	r30, 0x14	; 20
     5f4:	f2 07       	cpc	r31, r18
     5f6:	b9 f7       	brne	.-18     	; 0x5e6 <delete_lamp_from_group+0x6>
     5f8:	4a e0       	ldi	r20, 0x0A	; 10
     5fa:	50 e0       	ldi	r21, 0x00	; 0
     5fc:	63 e5       	ldi	r22, 0x53	; 83
     5fe:	70 e0       	ldi	r23, 0x00	; 0
     600:	8a e0       	ldi	r24, 0x0A	; 10
     602:	91 e0       	ldi	r25, 0x01	; 1
     604:	44 ca       	rjmp	.-2936   	; 0xfffffa8e <__eeprom_end+0xff7efa8e>

00000606 <clear_buffer>:
     606:	ea e2       	ldi	r30, 0x2A	; 42
     608:	f3 e0       	ldi	r31, 0x03	; 3
     60a:	11 92       	st	Z+, r1
     60c:	83 e0       	ldi	r24, 0x03	; 3
     60e:	e5 33       	cpi	r30, 0x35	; 53
     610:	f8 07       	cpc	r31, r24
     612:	d9 f7       	brne	.-10     	; 0x60a <clear_buffer+0x4>
     614:	10 92 07 01 	sts	0x0107, r1	; 0x800107 <buffer_index>
     618:	10 92 06 01 	sts	0x0106, r1	; 0x800106 <buffer_length>
     61c:	08 95       	ret

0000061e <send_crc_in_api_mode>:
     61e:	cf 93       	push	r28
     620:	df 93       	push	r29
     622:	ec 01       	movw	r28, r24
     624:	8b ec       	ldi	r24, 0xCB	; 203
     626:	90 e0       	ldi	r25, 0x00	; 0
     628:	a7 df       	rcall	.-178    	; 0x578 <send_cmd>
     62a:	29 ea       	ldi	r18, 0xA9	; 169
     62c:	8e e2       	ldi	r24, 0x2E	; 46
     62e:	92 e0       	ldi	r25, 0x02	; 2
     630:	21 50       	subi	r18, 0x01	; 1
     632:	80 40       	sbci	r24, 0x00	; 0
     634:	90 40       	sbci	r25, 0x00	; 0
     636:	e1 f7       	brne	.-8      	; 0x630 <send_crc_in_api_mode+0x12>
     638:	00 c0       	rjmp	.+0      	; 0x63a <send_crc_in_api_mode+0x1c>
     63a:	00 00       	nop
     63c:	8f ec       	ldi	r24, 0xCF	; 207
     63e:	90 e0       	ldi	r25, 0x00	; 0
     640:	9b df       	rcall	.-202    	; 0x578 <send_cmd>
     642:	29 ea       	ldi	r18, 0xA9	; 169
     644:	8e e2       	ldi	r24, 0x2E	; 46
     646:	92 e0       	ldi	r25, 0x02	; 2
     648:	21 50       	subi	r18, 0x01	; 1
     64a:	80 40       	sbci	r24, 0x00	; 0
     64c:	90 40       	sbci	r25, 0x00	; 0
     64e:	e1 f7       	brne	.-8      	; 0x648 <send_crc_in_api_mode+0x2a>
     650:	00 c0       	rjmp	.+0      	; 0x652 <send_crc_in_api_mode+0x34>
     652:	00 00       	nop
     654:	86 ed       	ldi	r24, 0xD6	; 214
     656:	90 e0       	ldi	r25, 0x00	; 0
     658:	8f df       	rcall	.-226    	; 0x578 <send_cmd>
     65a:	29 ea       	ldi	r18, 0xA9	; 169
     65c:	8e e2       	ldi	r24, 0x2E	; 46
     65e:	92 e0       	ldi	r25, 0x02	; 2
     660:	21 50       	subi	r18, 0x01	; 1
     662:	80 40       	sbci	r24, 0x00	; 0
     664:	90 40       	sbci	r25, 0x00	; 0
     666:	e1 f7       	brne	.-8      	; 0x660 <send_crc_in_api_mode+0x42>
     668:	00 c0       	rjmp	.+0      	; 0x66a <send_crc_in_api_mode+0x4c>
     66a:	00 00       	nop
     66c:	8f ed       	ldi	r24, 0xDF	; 223
     66e:	90 e0       	ldi	r25, 0x00	; 0
     670:	83 df       	rcall	.-250    	; 0x578 <send_cmd>
     672:	29 ea       	ldi	r18, 0xA9	; 169
     674:	8e e2       	ldi	r24, 0x2E	; 46
     676:	92 e0       	ldi	r25, 0x02	; 2
     678:	21 50       	subi	r18, 0x01	; 1
     67a:	80 40       	sbci	r24, 0x00	; 0
     67c:	90 40       	sbci	r25, 0x00	; 0
     67e:	e1 f7       	brne	.-8      	; 0x678 <send_crc_in_api_mode+0x5a>
     680:	00 c0       	rjmp	.+0      	; 0x682 <send_crc_in_api_mode+0x64>
     682:	00 00       	nop
     684:	8e ec       	ldi	r24, 0xCE	; 206
     686:	90 e0       	ldi	r25, 0x00	; 0
     688:	77 df       	rcall	.-274    	; 0x578 <send_cmd>
     68a:	bd df       	rcall	.-134    	; 0x606 <clear_buffer>
     68c:	88 81       	ld	r24, Y
     68e:	8a 30       	cpi	r24, 0x0A	; 10
     690:	29 f0       	breq	.+10     	; 0x69c <send_crc_in_api_mode+0x7e>
     692:	8d 30       	cpi	r24, 0x0D	; 13
     694:	19 f0       	breq	.+6      	; 0x69c <send_crc_in_api_mode+0x7e>
     696:	80 32       	cpi	r24, 0x20	; 32
     698:	09 f0       	breq	.+2      	; 0x69c <send_crc_in_api_mode+0x7e>
     69a:	5e dd       	rcall	.-1348   	; 0x158 <USART_Transmit>
     69c:	89 81       	ldd	r24, Y+1	; 0x01
     69e:	8a 30       	cpi	r24, 0x0A	; 10
     6a0:	29 f0       	breq	.+10     	; 0x6ac <send_crc_in_api_mode+0x8e>
     6a2:	8d 30       	cpi	r24, 0x0D	; 13
     6a4:	19 f0       	breq	.+6      	; 0x6ac <send_crc_in_api_mode+0x8e>
     6a6:	80 32       	cpi	r24, 0x20	; 32
     6a8:	09 f0       	breq	.+2      	; 0x6ac <send_crc_in_api_mode+0x8e>
     6aa:	56 dd       	rcall	.-1364   	; 0x158 <USART_Transmit>
     6ac:	86 e2       	ldi	r24, 0x26	; 38
     6ae:	54 dd       	rcall	.-1368   	; 0x158 <USART_Transmit>
     6b0:	2f e8       	ldi	r18, 0x8F	; 143
     6b2:	8a e4       	ldi	r24, 0x4A	; 74
     6b4:	97 e5       	ldi	r25, 0x57	; 87
     6b6:	21 50       	subi	r18, 0x01	; 1
     6b8:	80 40       	sbci	r24, 0x00	; 0
     6ba:	90 40       	sbci	r25, 0x00	; 0
     6bc:	e1 f7       	brne	.-8      	; 0x6b6 <send_crc_in_api_mode+0x98>
     6be:	00 c0       	rjmp	.+0      	; 0x6c0 <send_crc_in_api_mode+0xa2>
     6c0:	00 00       	nop
     6c2:	4e dd       	rcall	.-1380   	; 0x160 <USART_Flush>
     6c4:	df 91       	pop	r29
     6c6:	cf 91       	pop	r28
     6c8:	9e cf       	rjmp	.-196    	; 0x606 <clear_buffer>

000006ca <read_network_status>:
     6ca:	cf 93       	push	r28
     6cc:	8b ec       	ldi	r24, 0xCB	; 203
     6ce:	90 e0       	ldi	r25, 0x00	; 0
     6d0:	53 df       	rcall	.-346    	; 0x578 <send_cmd>
     6d2:	29 ea       	ldi	r18, 0xA9	; 169
     6d4:	8e e2       	ldi	r24, 0x2E	; 46
     6d6:	92 e0       	ldi	r25, 0x02	; 2
     6d8:	21 50       	subi	r18, 0x01	; 1
     6da:	80 40       	sbci	r24, 0x00	; 0
     6dc:	90 40       	sbci	r25, 0x00	; 0
     6de:	e1 f7       	brne	.-8      	; 0x6d8 <read_network_status+0xe>
     6e0:	00 c0       	rjmp	.+0      	; 0x6e2 <read_network_status+0x18>
     6e2:	00 00       	nop
     6e4:	90 df       	rcall	.-224    	; 0x606 <clear_buffer>
     6e6:	84 ee       	ldi	r24, 0xE4	; 228
     6e8:	90 e0       	ldi	r25, 0x00	; 0
     6ea:	46 df       	rcall	.-372    	; 0x578 <send_cmd>
     6ec:	29 ea       	ldi	r18, 0xA9	; 169
     6ee:	8e e2       	ldi	r24, 0x2E	; 46
     6f0:	92 e0       	ldi	r25, 0x02	; 2
     6f2:	21 50       	subi	r18, 0x01	; 1
     6f4:	80 40       	sbci	r24, 0x00	; 0
     6f6:	90 40       	sbci	r25, 0x00	; 0
     6f8:	e1 f7       	brne	.-8      	; 0x6f2 <read_network_status+0x28>
     6fa:	00 c0       	rjmp	.+0      	; 0x6fc <read_network_status+0x32>
     6fc:	00 00       	nop
     6fe:	ea e2       	ldi	r30, 0x2A	; 42
     700:	f3 e0       	ldi	r31, 0x03	; 3
     702:	c0 e0       	ldi	r28, 0x00	; 0
     704:	81 91       	ld	r24, Z+
     706:	81 30       	cpi	r24, 0x01	; 1
     708:	11 f0       	breq	.+4      	; 0x70e <read_network_status+0x44>
     70a:	81 33       	cpi	r24, 0x31	; 49
     70c:	09 f4       	brne	.+2      	; 0x710 <read_network_status+0x46>
     70e:	c1 e0       	ldi	r28, 0x01	; 1
     710:	23 e0       	ldi	r18, 0x03	; 3
     712:	e5 33       	cpi	r30, 0x35	; 53
     714:	f2 07       	cpc	r31, r18
     716:	b1 f7       	brne	.-20     	; 0x704 <read_network_status+0x3a>
     718:	8f ed       	ldi	r24, 0xDF	; 223
     71a:	90 e0       	ldi	r25, 0x00	; 0
     71c:	2d df       	rcall	.-422    	; 0x578 <send_cmd>
     71e:	89 ea       	ldi	r24, 0xA9	; 169
     720:	9e e2       	ldi	r25, 0x2E	; 46
     722:	22 e0       	ldi	r18, 0x02	; 2
     724:	81 50       	subi	r24, 0x01	; 1
     726:	90 40       	sbci	r25, 0x00	; 0
     728:	20 40       	sbci	r18, 0x00	; 0
     72a:	e1 f7       	brne	.-8      	; 0x724 <read_network_status+0x5a>
     72c:	00 c0       	rjmp	.+0      	; 0x72e <read_network_status+0x64>
     72e:	00 00       	nop
     730:	8c 2f       	mov	r24, r28
     732:	cf 91       	pop	r28
     734:	08 95       	ret

00000736 <hardware_reset>:
     736:	c0 98       	cbi	0x18, 0	; 24
     738:	23 ea       	ldi	r18, 0xA3	; 163
     73a:	82 ed       	ldi	r24, 0xD2	; 210
     73c:	95 e1       	ldi	r25, 0x15	; 21
     73e:	21 50       	subi	r18, 0x01	; 1
     740:	80 40       	sbci	r24, 0x00	; 0
     742:	90 40       	sbci	r25, 0x00	; 0
     744:	e1 f7       	brne	.-8      	; 0x73e <hardware_reset+0x8>
     746:	00 c0       	rjmp	.+0      	; 0x748 <hardware_reset+0x12>
     748:	00 00       	nop
     74a:	c0 9a       	sbi	0x18, 0	; 24
     74c:	08 95       	ret

0000074e <send_in_api_mode>:
     74e:	0f 93       	push	r16
     750:	1f 93       	push	r17
     752:	cf 93       	push	r28
     754:	8c 01       	movw	r16, r24
     756:	8b ec       	ldi	r24, 0xCB	; 203
     758:	90 e0       	ldi	r25, 0x00	; 0
     75a:	0e df       	rcall	.-484    	; 0x578 <send_cmd>
     75c:	29 ea       	ldi	r18, 0xA9	; 169
     75e:	8e e2       	ldi	r24, 0x2E	; 46
     760:	92 e0       	ldi	r25, 0x02	; 2
     762:	21 50       	subi	r18, 0x01	; 1
     764:	80 40       	sbci	r24, 0x00	; 0
     766:	90 40       	sbci	r25, 0x00	; 0
     768:	e1 f7       	brne	.-8      	; 0x762 <send_in_api_mode+0x14>
     76a:	00 c0       	rjmp	.+0      	; 0x76c <send_in_api_mode+0x1e>
     76c:	00 00       	nop
     76e:	8f ec       	ldi	r24, 0xCF	; 207
     770:	90 e0       	ldi	r25, 0x00	; 0
     772:	02 df       	rcall	.-508    	; 0x578 <send_cmd>
     774:	29 ea       	ldi	r18, 0xA9	; 169
     776:	8e e2       	ldi	r24, 0x2E	; 46
     778:	92 e0       	ldi	r25, 0x02	; 2
     77a:	21 50       	subi	r18, 0x01	; 1
     77c:	80 40       	sbci	r24, 0x00	; 0
     77e:	90 40       	sbci	r25, 0x00	; 0
     780:	e1 f7       	brne	.-8      	; 0x77a <send_in_api_mode+0x2c>
     782:	00 c0       	rjmp	.+0      	; 0x784 <send_in_api_mode+0x36>
     784:	00 00       	nop
     786:	86 ed       	ldi	r24, 0xD6	; 214
     788:	90 e0       	ldi	r25, 0x00	; 0
     78a:	f6 de       	rcall	.-532    	; 0x578 <send_cmd>
     78c:	29 ea       	ldi	r18, 0xA9	; 169
     78e:	8e e2       	ldi	r24, 0x2E	; 46
     790:	92 e0       	ldi	r25, 0x02	; 2
     792:	21 50       	subi	r18, 0x01	; 1
     794:	80 40       	sbci	r24, 0x00	; 0
     796:	90 40       	sbci	r25, 0x00	; 0
     798:	e1 f7       	brne	.-8      	; 0x792 <send_in_api_mode+0x44>
     79a:	00 c0       	rjmp	.+0      	; 0x79c <send_in_api_mode+0x4e>
     79c:	00 00       	nop
     79e:	8f ed       	ldi	r24, 0xDF	; 223
     7a0:	90 e0       	ldi	r25, 0x00	; 0
     7a2:	ea de       	rcall	.-556    	; 0x578 <send_cmd>
     7a4:	29 ea       	ldi	r18, 0xA9	; 169
     7a6:	8e e2       	ldi	r24, 0x2E	; 46
     7a8:	92 e0       	ldi	r25, 0x02	; 2
     7aa:	21 50       	subi	r18, 0x01	; 1
     7ac:	80 40       	sbci	r24, 0x00	; 0
     7ae:	90 40       	sbci	r25, 0x00	; 0
     7b0:	e1 f7       	brne	.-8      	; 0x7aa <send_in_api_mode+0x5c>
     7b2:	00 c0       	rjmp	.+0      	; 0x7b4 <send_in_api_mode+0x66>
     7b4:	00 00       	nop
     7b6:	8e ec       	ldi	r24, 0xCE	; 206
     7b8:	90 e0       	ldi	r25, 0x00	; 0
     7ba:	de de       	rcall	.-580    	; 0x578 <send_cmd>
     7bc:	24 df       	rcall	.-440    	; 0x606 <clear_buffer>
     7be:	c0 e0       	ldi	r28, 0x00	; 0
     7c0:	f8 01       	movw	r30, r16
     7c2:	ec 0f       	add	r30, r28
     7c4:	f1 1d       	adc	r31, r1
     7c6:	80 81       	ld	r24, Z
     7c8:	86 32       	cpi	r24, 0x26	; 38
     7ca:	49 f0       	breq	.+18     	; 0x7de <send_in_api_mode+0x90>
     7cc:	8a 30       	cpi	r24, 0x0A	; 10
     7ce:	29 f0       	breq	.+10     	; 0x7da <send_in_api_mode+0x8c>
     7d0:	8d 30       	cpi	r24, 0x0D	; 13
     7d2:	19 f0       	breq	.+6      	; 0x7da <send_in_api_mode+0x8c>
     7d4:	80 32       	cpi	r24, 0x20	; 32
     7d6:	09 f0       	breq	.+2      	; 0x7da <send_in_api_mode+0x8c>
     7d8:	bf dc       	rcall	.-1666   	; 0x158 <USART_Transmit>
     7da:	cf 5f       	subi	r28, 0xFF	; 255
     7dc:	f1 cf       	rjmp	.-30     	; 0x7c0 <send_in_api_mode+0x72>
     7de:	bc dc       	rcall	.-1672   	; 0x158 <USART_Transmit>
     7e0:	2f e8       	ldi	r18, 0x8F	; 143
     7e2:	8a e4       	ldi	r24, 0x4A	; 74
     7e4:	97 e5       	ldi	r25, 0x57	; 87
     7e6:	21 50       	subi	r18, 0x01	; 1
     7e8:	80 40       	sbci	r24, 0x00	; 0
     7ea:	90 40       	sbci	r25, 0x00	; 0
     7ec:	e1 f7       	brne	.-8      	; 0x7e6 <send_in_api_mode+0x98>
     7ee:	00 c0       	rjmp	.+0      	; 0x7f0 <send_in_api_mode+0xa2>
     7f0:	00 00       	nop
     7f2:	ea e2       	ldi	r30, 0x2A	; 42
     7f4:	f3 e0       	ldi	r31, 0x03	; 3
     7f6:	81 91       	ld	r24, Z+
     7f8:	8f 34       	cpi	r24, 0x4F	; 79
     7fa:	19 f4       	brne	.+6      	; 0x802 <send_in_api_mode+0xb4>
     7fc:	80 81       	ld	r24, Z
     7fe:	8b 34       	cpi	r24, 0x4B	; 75
     800:	31 f0       	breq	.+12     	; 0x80e <send_in_api_mode+0xc0>
     802:	23 e0       	ldi	r18, 0x03	; 3
     804:	e5 33       	cpi	r30, 0x35	; 53
     806:	f2 07       	cpc	r31, r18
     808:	b1 f7       	brne	.-20     	; 0x7f6 <send_in_api_mode+0xa8>
     80a:	c0 e0       	ldi	r28, 0x00	; 0
     80c:	01 c0       	rjmp	.+2      	; 0x810 <send_in_api_mode+0xc2>
     80e:	c1 e0       	ldi	r28, 0x01	; 1
     810:	a7 dc       	rcall	.-1714   	; 0x160 <USART_Flush>
     812:	f9 de       	rcall	.-526    	; 0x606 <clear_buffer>
     814:	c1 11       	cpse	r28, r1
     816:	04 c0       	rjmp	.+8      	; 0x820 <send_in_api_mode+0xd2>
     818:	cf 91       	pop	r28
     81a:	1f 91       	pop	r17
     81c:	0f 91       	pop	r16
     81e:	8b cf       	rjmp	.-234    	; 0x736 <hardware_reset>
     820:	cf 91       	pop	r28
     822:	1f 91       	pop	r17
     824:	0f 91       	pop	r16
     826:	08 95       	ret

00000828 <send_rtc_packet>:
     828:	cf 93       	push	r28
     82a:	df 93       	push	r29
     82c:	cd b7       	in	r28, 0x3d	; 61
     82e:	de b7       	in	r29, 0x3e	; 62
     830:	27 97       	sbiw	r28, 0x07	; 7
     832:	0f b6       	in	r0, 0x3f	; 63
     834:	f8 94       	cli
     836:	de bf       	out	0x3e, r29	; 62
     838:	0f be       	out	0x3f, r0	; 63
     83a:	cd bf       	out	0x3d, r28	; 61
     83c:	90 91 08 01 	lds	r25, 0x0108	; 0x800108 <ID>
     840:	a0 91 09 01 	lds	r26, 0x0109	; 0x800109 <ID+0x1>
     844:	ed ea       	ldi	r30, 0xAD	; 173
     846:	f0 e0       	ldi	r31, 0x00	; 0
     848:	a5 83       	std	Z+5, r26	; 0x05
     84a:	96 83       	std	Z+6, r25	; 0x06
     84c:	95 2f       	mov	r25, r21
     84e:	92 95       	swap	r25
     850:	9f 70       	andi	r25, 0x0F	; 15
     852:	90 5d       	subi	r25, 0xD0	; 208
     854:	90 87       	std	Z+8, r25	; 0x08
     856:	5f 70       	andi	r21, 0x0F	; 15
     858:	50 5d       	subi	r21, 0xD0	; 208
     85a:	51 87       	std	Z+9, r21	; 0x09
     85c:	92 2f       	mov	r25, r18
     85e:	92 95       	swap	r25
     860:	9f 70       	andi	r25, 0x0F	; 15
     862:	90 5d       	subi	r25, 0xD0	; 208
     864:	93 87       	std	Z+11, r25	; 0x0b
     866:	2f 70       	andi	r18, 0x0F	; 15
     868:	20 5d       	subi	r18, 0xD0	; 208
     86a:	24 87       	std	Z+12, r18	; 0x0c
     86c:	96 2f       	mov	r25, r22
     86e:	92 95       	swap	r25
     870:	9f 70       	andi	r25, 0x0F	; 15
     872:	90 5d       	subi	r25, 0xD0	; 208
     874:	96 87       	std	Z+14, r25	; 0x0e
     876:	6f 70       	andi	r22, 0x0F	; 15
     878:	60 5d       	subi	r22, 0xD0	; 208
     87a:	67 87       	std	Z+15, r22	; 0x0f
     87c:	97 2f       	mov	r25, r23
     87e:	92 95       	swap	r25
     880:	9f 70       	andi	r25, 0x0F	; 15
     882:	90 5d       	subi	r25, 0xD0	; 208
     884:	91 8b       	std	Z+17, r25	; 0x11
     886:	7f 70       	andi	r23, 0x0F	; 15
     888:	70 5d       	subi	r23, 0xD0	; 208
     88a:	72 8b       	std	Z+18, r23	; 0x12
     88c:	94 2f       	mov	r25, r20
     88e:	92 95       	swap	r25
     890:	9f 70       	andi	r25, 0x0F	; 15
     892:	90 5d       	subi	r25, 0xD0	; 208
     894:	94 8b       	std	Z+20, r25	; 0x14
     896:	4f 70       	andi	r20, 0x0F	; 15
     898:	40 5d       	subi	r20, 0xD0	; 208
     89a:	45 8b       	std	Z+21, r20	; 0x15
     89c:	98 2f       	mov	r25, r24
     89e:	92 95       	swap	r25
     8a0:	9f 70       	andi	r25, 0x0F	; 15
     8a2:	90 5d       	subi	r25, 0xD0	; 208
     8a4:	97 8b       	std	Z+23, r25	; 0x17
     8a6:	8f 70       	andi	r24, 0x0F	; 15
     8a8:	80 5d       	subi	r24, 0xD0	; 208
     8aa:	80 8f       	std	Z+24, r24	; 0x18
     8ac:	83 2f       	mov	r24, r19
     8ae:	82 95       	swap	r24
     8b0:	8f 70       	andi	r24, 0x0F	; 15
     8b2:	80 5d       	subi	r24, 0xD0	; 208
     8b4:	82 8f       	std	Z+26, r24	; 0x1a
     8b6:	3f 70       	andi	r19, 0x0F	; 15
     8b8:	30 5d       	subi	r19, 0xD0	; 208
     8ba:	33 8f       	std	Z+27, r19	; 0x1b
     8bc:	cf 01       	movw	r24, r30
     8be:	27 96       	adiw	r28, 0x07	; 7
     8c0:	0f b6       	in	r0, 0x3f	; 63
     8c2:	f8 94       	cli
     8c4:	de bf       	out	0x3e, r29	; 62
     8c6:	0f be       	out	0x3f, r0	; 63
     8c8:	cd bf       	out	0x3d, r28	; 61
     8ca:	df 91       	pop	r29
     8cc:	cf 91       	pop	r28
     8ce:	3f cf       	rjmp	.-386    	; 0x74e <send_in_api_mode>

000008d0 <send_adc_packet>:
     8d0:	80 91 08 01 	lds	r24, 0x0108	; 0x800108 <ID>
     8d4:	90 91 09 01 	lds	r25, 0x0109	; 0x800109 <ID+0x1>
     8d8:	e5 e8       	ldi	r30, 0x85	; 133
     8da:	f0 e0       	ldi	r31, 0x00	; 0
     8dc:	95 83       	std	Z+5, r25	; 0x05
     8de:	86 83       	std	Z+6, r24	; 0x06
     8e0:	a6 e2       	ldi	r26, 0x26	; 38
     8e2:	b3 e0       	ldi	r27, 0x03	; 3
     8e4:	8c 91       	ld	r24, X
     8e6:	80 87       	std	Z+8, r24	; 0x08
     8e8:	11 96       	adiw	r26, 0x01	; 1
     8ea:	8c 91       	ld	r24, X
     8ec:	11 97       	sbiw	r26, 0x01	; 1
     8ee:	81 87       	std	Z+9, r24	; 0x09
     8f0:	12 96       	adiw	r26, 0x02	; 2
     8f2:	8c 91       	ld	r24, X
     8f4:	82 87       	std	Z+10, r24	; 0x0a
     8f6:	cf 01       	movw	r24, r30
     8f8:	2a cf       	rjmp	.-428    	; 0x74e <send_in_api_mode>

000008fa <send_all_packet>:
     8fa:	bf 92       	push	r11
     8fc:	cf 92       	push	r12
     8fe:	df 92       	push	r13
     900:	ef 92       	push	r14
     902:	ff 92       	push	r15
     904:	0f 93       	push	r16
     906:	1f 93       	push	r17
     908:	cf 93       	push	r28
     90a:	df 93       	push	r29
     90c:	cd b7       	in	r28, 0x3d	; 61
     90e:	de b7       	in	r29, 0x3e	; 62
     910:	28 97       	sbiw	r28, 0x08	; 8
     912:	0f b6       	in	r0, 0x3f	; 63
     914:	f8 94       	cli
     916:	de bf       	out	0x3e, r29	; 62
     918:	0f be       	out	0x3f, r0	; 63
     91a:	cd bf       	out	0x3d, r28	; 61
     91c:	bb dd       	rcall	.-1162   	; 0x494 <RTC_GET>
     91e:	c2 2e       	mov	r12, r18
     920:	13 2f       	mov	r17, r19
     922:	f4 2e       	mov	r15, r20
     924:	b5 2e       	mov	r11, r21
     926:	d6 2e       	mov	r13, r22
     928:	e7 2e       	mov	r14, r23
     92a:	08 2f       	mov	r16, r24
     92c:	29 83       	std	Y+1, r18	; 0x01
     92e:	3a 83       	std	Y+2, r19	; 0x02
     930:	4b 83       	std	Y+3, r20	; 0x03
     932:	5c 83       	std	Y+4, r21	; 0x04
     934:	6d 83       	std	Y+5, r22	; 0x05
     936:	7e 83       	std	Y+6, r23	; 0x06
     938:	8f 83       	std	Y+7, r24	; 0x07
     93a:	14 de       	rcall	.-984    	; 0x564 <get_illumination>
     93c:	18 86       	std	Y+8, r1	; 0x08
     93e:	41 e0       	ldi	r20, 0x01	; 1
     940:	50 e0       	ldi	r21, 0x00	; 0
     942:	60 e0       	ldi	r22, 0x00	; 0
     944:	70 e0       	ldi	r23, 0x00	; 0
     946:	ce 01       	movw	r24, r28
     948:	08 96       	adiw	r24, 0x08	; 8
     94a:	91 d8       	rcall	.-3806   	; 0xfffffa6e <__eeprom_end+0xff7efa6e>
     94c:	80 91 08 01 	lds	r24, 0x0108	; 0x800108 <ID>
     950:	90 91 09 01 	lds	r25, 0x0109	; 0x800109 <ID+0x1>
     954:	e0 e6       	ldi	r30, 0x60	; 96
     956:	f0 e0       	ldi	r31, 0x00	; 0
     958:	95 83       	std	Z+5, r25	; 0x05
     95a:	86 83       	std	Z+6, r24	; 0x06
     95c:	8b 2d       	mov	r24, r11
     95e:	82 95       	swap	r24
     960:	8f 70       	andi	r24, 0x0F	; 15
     962:	80 5d       	subi	r24, 0xD0	; 208
     964:	80 87       	std	Z+8, r24	; 0x08
     966:	8b 2d       	mov	r24, r11
     968:	8f 70       	andi	r24, 0x0F	; 15
     96a:	80 5d       	subi	r24, 0xD0	; 208
     96c:	81 87       	std	Z+9, r24	; 0x09
     96e:	8c 2d       	mov	r24, r12
     970:	82 95       	swap	r24
     972:	8f 70       	andi	r24, 0x0F	; 15
     974:	80 5d       	subi	r24, 0xD0	; 208
     976:	83 87       	std	Z+11, r24	; 0x0b
     978:	8c 2d       	mov	r24, r12
     97a:	8f 70       	andi	r24, 0x0F	; 15
     97c:	80 5d       	subi	r24, 0xD0	; 208
     97e:	84 87       	std	Z+12, r24	; 0x0c
     980:	8d 2d       	mov	r24, r13
     982:	82 95       	swap	r24
     984:	8f 70       	andi	r24, 0x0F	; 15
     986:	80 5d       	subi	r24, 0xD0	; 208
     988:	86 87       	std	Z+14, r24	; 0x0e
     98a:	8d 2d       	mov	r24, r13
     98c:	8f 70       	andi	r24, 0x0F	; 15
     98e:	80 5d       	subi	r24, 0xD0	; 208
     990:	87 87       	std	Z+15, r24	; 0x0f
     992:	8e 2d       	mov	r24, r14
     994:	82 95       	swap	r24
     996:	8f 70       	andi	r24, 0x0F	; 15
     998:	80 5d       	subi	r24, 0xD0	; 208
     99a:	81 8b       	std	Z+17, r24	; 0x11
     99c:	8e 2d       	mov	r24, r14
     99e:	8f 70       	andi	r24, 0x0F	; 15
     9a0:	80 5d       	subi	r24, 0xD0	; 208
     9a2:	82 8b       	std	Z+18, r24	; 0x12
     9a4:	8f 2d       	mov	r24, r15
     9a6:	82 95       	swap	r24
     9a8:	8f 70       	andi	r24, 0x0F	; 15
     9aa:	80 5d       	subi	r24, 0xD0	; 208
     9ac:	84 8b       	std	Z+20, r24	; 0x14
     9ae:	8f 2d       	mov	r24, r15
     9b0:	8f 70       	andi	r24, 0x0F	; 15
     9b2:	80 5d       	subi	r24, 0xD0	; 208
     9b4:	85 8b       	std	Z+21, r24	; 0x15
     9b6:	80 2f       	mov	r24, r16
     9b8:	82 95       	swap	r24
     9ba:	8f 70       	andi	r24, 0x0F	; 15
     9bc:	80 5d       	subi	r24, 0xD0	; 208
     9be:	87 8b       	std	Z+23, r24	; 0x17
     9c0:	0f 70       	andi	r16, 0x0F	; 15
     9c2:	00 5d       	subi	r16, 0xD0	; 208
     9c4:	00 8f       	std	Z+24, r16	; 0x18
     9c6:	81 2f       	mov	r24, r17
     9c8:	82 95       	swap	r24
     9ca:	8f 70       	andi	r24, 0x0F	; 15
     9cc:	80 5d       	subi	r24, 0xD0	; 208
     9ce:	82 8f       	std	Z+26, r24	; 0x1a
     9d0:	1f 70       	andi	r17, 0x0F	; 15
     9d2:	10 5d       	subi	r17, 0xD0	; 208
     9d4:	13 8f       	std	Z+27, r17	; 0x1b
     9d6:	a6 e2       	ldi	r26, 0x26	; 38
     9d8:	b3 e0       	ldi	r27, 0x03	; 3
     9da:	8c 91       	ld	r24, X
     9dc:	85 8f       	std	Z+29, r24	; 0x1d
     9de:	11 96       	adiw	r26, 0x01	; 1
     9e0:	8c 91       	ld	r24, X
     9e2:	11 97       	sbiw	r26, 0x01	; 1
     9e4:	86 8f       	std	Z+30, r24	; 0x1e
     9e6:	12 96       	adiw	r26, 0x02	; 2
     9e8:	8c 91       	ld	r24, X
     9ea:	87 8f       	std	Z+31, r24	; 0x1f
     9ec:	88 85       	ldd	r24, Y+8	; 0x08
     9ee:	81 a3       	std	Z+33, r24	; 0x21
     9f0:	80 b3       	in	r24, 0x10	; 16
     9f2:	82 fb       	bst	r24, 2
     9f4:	88 27       	eor	r24, r24
     9f6:	80 f9       	bld	r24, 0
     9f8:	80 5d       	subi	r24, 0xD0	; 208
     9fa:	83 a3       	std	Z+35, r24	; 0x23
     9fc:	cf 01       	movw	r24, r30
     9fe:	a7 de       	rcall	.-690    	; 0x74e <send_in_api_mode>
     a00:	28 96       	adiw	r28, 0x08	; 8
     a02:	0f b6       	in	r0, 0x3f	; 63
     a04:	f8 94       	cli
     a06:	de bf       	out	0x3e, r29	; 62
     a08:	0f be       	out	0x3f, r0	; 63
     a0a:	cd bf       	out	0x3d, r28	; 61
     a0c:	df 91       	pop	r29
     a0e:	cf 91       	pop	r28
     a10:	1f 91       	pop	r17
     a12:	0f 91       	pop	r16
     a14:	ff 90       	pop	r15
     a16:	ef 90       	pop	r14
     a18:	df 90       	pop	r13
     a1a:	cf 90       	pop	r12
     a1c:	bf 90       	pop	r11
     a1e:	08 95       	ret

00000a20 <send_serial_number_packet>:
     a20:	cf 93       	push	r28
     a22:	df 93       	push	r29
     a24:	80 91 08 01 	lds	r24, 0x0108	; 0x800108 <ID>
     a28:	90 91 09 01 	lds	r25, 0x0109	; 0x800109 <ID+0x1>
     a2c:	90 93 95 00 	sts	0x0095, r25	; 0x800095 <serial_packet+0x4>
     a30:	80 93 96 00 	sts	0x0096, r24	; 0x800096 <serial_packet+0x5>
     a34:	8b ec       	ldi	r24, 0xCB	; 203
     a36:	90 e0       	ldi	r25, 0x00	; 0
     a38:	9f dd       	rcall	.-1218   	; 0x578 <send_cmd>
     a3a:	29 ea       	ldi	r18, 0xA9	; 169
     a3c:	8e e2       	ldi	r24, 0x2E	; 46
     a3e:	92 e0       	ldi	r25, 0x02	; 2
     a40:	21 50       	subi	r18, 0x01	; 1
     a42:	80 40       	sbci	r24, 0x00	; 0
     a44:	90 40       	sbci	r25, 0x00	; 0
     a46:	e1 f7       	brne	.-8      	; 0xa40 <send_serial_number_packet+0x20>
     a48:	00 c0       	rjmp	.+0      	; 0xa4a <send_serial_number_packet+0x2a>
     a4a:	00 00       	nop
     a4c:	dc dd       	rcall	.-1096   	; 0x606 <clear_buffer>
     a4e:	89 ee       	ldi	r24, 0xE9	; 233
     a50:	90 e0       	ldi	r25, 0x00	; 0
     a52:	92 dd       	rcall	.-1244   	; 0x578 <send_cmd>
     a54:	21 e5       	ldi	r18, 0x51	; 81
     a56:	89 ee       	ldi	r24, 0xE9	; 233
     a58:	9a e0       	ldi	r25, 0x0A	; 10
     a5a:	21 50       	subi	r18, 0x01	; 1
     a5c:	80 40       	sbci	r24, 0x00	; 0
     a5e:	90 40       	sbci	r25, 0x00	; 0
     a60:	e1 f7       	brne	.-8      	; 0xa5a <send_serial_number_packet+0x3a>
     a62:	00 c0       	rjmp	.+0      	; 0xa64 <send_serial_number_packet+0x44>
     a64:	00 00       	nop
     a66:	ca e2       	ldi	r28, 0x2A	; 42
     a68:	d3 e0       	ldi	r29, 0x03	; 3
     a6a:	a8 e9       	ldi	r26, 0x98	; 152
     a6c:	b0 e0       	ldi	r27, 0x00	; 0
     a6e:	fe 01       	movw	r30, r28
     a70:	81 91       	ld	r24, Z+
     a72:	8d 93       	st	X+, r24
     a74:	23 e0       	ldi	r18, 0x03	; 3
     a76:	e5 33       	cpi	r30, 0x35	; 53
     a78:	f2 07       	cpc	r31, r18
     a7a:	d1 f7       	brne	.-12     	; 0xa70 <send_serial_number_packet+0x50>
     a7c:	c4 dd       	rcall	.-1144   	; 0x606 <clear_buffer>
     a7e:	8e ee       	ldi	r24, 0xEE	; 238
     a80:	90 e0       	ldi	r25, 0x00	; 0
     a82:	7a dd       	rcall	.-1292   	; 0x578 <send_cmd>
     a84:	81 e5       	ldi	r24, 0x51	; 81
     a86:	99 ee       	ldi	r25, 0xE9	; 233
     a88:	2a e0       	ldi	r18, 0x0A	; 10
     a8a:	81 50       	subi	r24, 0x01	; 1
     a8c:	90 40       	sbci	r25, 0x00	; 0
     a8e:	20 40       	sbci	r18, 0x00	; 0
     a90:	e1 f7       	brne	.-8      	; 0xa8a <send_serial_number_packet+0x6a>
     a92:	00 c0       	rjmp	.+0      	; 0xa94 <send_serial_number_packet+0x74>
     a94:	00 00       	nop
     a96:	e3 ea       	ldi	r30, 0xA3	; 163
     a98:	f0 e0       	ldi	r31, 0x00	; 0
     a9a:	89 91       	ld	r24, Y+
     a9c:	81 93       	st	Z+, r24
     a9e:	83 e0       	ldi	r24, 0x03	; 3
     aa0:	c5 33       	cpi	r28, 0x35	; 53
     aa2:	d8 07       	cpc	r29, r24
     aa4:	d1 f7       	brne	.-12     	; 0xa9a <send_serial_number_packet+0x7a>
     aa6:	86 e2       	ldi	r24, 0x26	; 38
     aa8:	80 93 ae 00 	sts	0x00AE, r24	; 0x8000ae <rtc_packet+0x1>
     aac:	8f ed       	ldi	r24, 0xDF	; 223
     aae:	90 e0       	ldi	r25, 0x00	; 0
     ab0:	63 dd       	rcall	.-1338   	; 0x578 <send_cmd>
     ab2:	99 ea       	ldi	r25, 0xA9	; 169
     ab4:	2e e2       	ldi	r18, 0x2E	; 46
     ab6:	82 e0       	ldi	r24, 0x02	; 2
     ab8:	91 50       	subi	r25, 0x01	; 1
     aba:	20 40       	sbci	r18, 0x00	; 0
     abc:	80 40       	sbci	r24, 0x00	; 0
     abe:	e1 f7       	brne	.-8      	; 0xab8 <send_serial_number_packet+0x98>
     ac0:	00 c0       	rjmp	.+0      	; 0xac2 <send_serial_number_packet+0xa2>
     ac2:	00 00       	nop
     ac4:	81 e9       	ldi	r24, 0x91	; 145
     ac6:	90 e0       	ldi	r25, 0x00	; 0
     ac8:	df 91       	pop	r29
     aca:	cf 91       	pop	r28
     acc:	40 ce       	rjmp	.-896    	; 0x74e <send_in_api_mode>

00000ace <on_off>:
     ace:	81 11       	cpse	r24, r1
     ad0:	02 c0       	rjmp	.+4      	; 0xad6 <on_off+0x8>
     ad2:	92 9a       	sbi	0x12, 2	; 18
     ad4:	05 c0       	rjmp	.+10     	; 0xae0 <on_off+0x12>
     ad6:	81 30       	cpi	r24, 0x01	; 1
     ad8:	21 f4       	brne	.+8      	; 0xae2 <on_off+0x14>
     ada:	82 b3       	in	r24, 0x12	; 18
     adc:	12 ba       	out	0x12, r1	; 18
     ade:	84 e6       	ldi	r24, 0x64	; 100
     ae0:	76 cb       	rjmp	.-2324   	; 0x1ce <set_brightness>
     ae2:	08 95       	ret

00000ae4 <Init_GPIO>:
     ae4:	c0 9a       	sbi	0x18, 0	; 24
     ae6:	87 b3       	in	r24, 0x17	; 23
     ae8:	83 60       	ori	r24, 0x03	; 3
     aea:	87 bb       	out	0x17, r24	; 23
     aec:	81 b3       	in	r24, 0x11	; 17
     aee:	8e 60       	ori	r24, 0x0E	; 14
     af0:	81 bb       	out	0x11, r24	; 17
     af2:	a2 9a       	sbi	0x14, 2	; 20
     af4:	90 9a       	sbi	0x12, 0	; 18
     af6:	80 e0       	ldi	r24, 0x00	; 0
     af8:	90 e0       	ldi	r25, 0x00	; 0
     afa:	e9 cf       	rjmp	.-46     	; 0xace <on_off>

00000afc <Init>:
     afc:	cf 93       	push	r28
     afe:	df 93       	push	r29
     b00:	1f 92       	push	r1
     b02:	cd b7       	in	r28, 0x3d	; 61
     b04:	de b7       	in	r29, 0x3e	; 62
     b06:	42 e0       	ldi	r20, 0x02	; 2
     b08:	50 e0       	ldi	r21, 0x00	; 0
     b0a:	61 e5       	ldi	r22, 0x51	; 81
     b0c:	70 e0       	ldi	r23, 0x00	; 0
     b0e:	88 e0       	ldi	r24, 0x08	; 8
     b10:	91 e0       	ldi	r25, 0x01	; 1
     b12:	ad d7       	rcall	.+3930   	; 0x1a6e <eeprom_read_block>
     b14:	4a e0       	ldi	r20, 0x0A	; 10
     b16:	50 e0       	ldi	r21, 0x00	; 0
     b18:	63 e5       	ldi	r22, 0x53	; 83
     b1a:	70 e0       	ldi	r23, 0x00	; 0
     b1c:	8a e0       	ldi	r24, 0x0A	; 10
     b1e:	91 e0       	ldi	r25, 0x01	; 1
     b20:	a6 d7       	rcall	.+3916   	; 0x1a6e <eeprom_read_block>
     b22:	09 de       	rcall	.-1006   	; 0x736 <hardware_reset>
     b24:	df df       	rcall	.-66     	; 0xae4 <Init_GPIO>
     b26:	78 dc       	rcall	.-1808   	; 0x418 <RTC_Init>
     b28:	8d e2       	ldi	r24, 0x2D	; 45
     b2a:	90 e0       	ldi	r25, 0x00	; 0
     b2c:	0d db       	rcall	.-2534   	; 0x148 <USART_Init>
     b2e:	69 dc       	rcall	.-1838   	; 0x402 <PWM_Init>
     b30:	f2 dc       	rcall	.-1564   	; 0x516 <adc_init>
     b32:	ec d3       	rcall	.+2008   	; 0x130c <softuart_init>
     b34:	78 94       	sei
     b36:	19 82       	std	Y+1, r1	; 0x01
     b38:	41 e0       	ldi	r20, 0x01	; 1
     b3a:	50 e0       	ldi	r21, 0x00	; 0
     b3c:	60 e0       	ldi	r22, 0x00	; 0
     b3e:	70 e0       	ldi	r23, 0x00	; 0
     b40:	ce 01       	movw	r24, r28
     b42:	01 96       	adiw	r24, 0x01	; 1
     b44:	94 d7       	rcall	.+3880   	; 0x1a6e <eeprom_read_block>
     b46:	89 81       	ldd	r24, Y+1	; 0x01
     b48:	8f 3f       	cpi	r24, 0xFF	; 255
     b4a:	09 f4       	brne	.+2      	; 0xb4e <Init+0x52>
     b4c:	80 e0       	ldi	r24, 0x00	; 0
     b4e:	3f db       	rcall	.-2434   	; 0x1ce <set_brightness>
     b50:	0f 90       	pop	r0
     b52:	df 91       	pop	r29
     b54:	cf 91       	pop	r28
     b56:	08 95       	ret

00000b58 <computeHash>:
     b58:	ac 01       	movw	r20, r24
     b5a:	40 5f       	subi	r20, 0xF0	; 240
     b5c:	5f 4f       	sbci	r21, 0xFF	; 255
     b5e:	26 e7       	ldi	r18, 0x76	; 118
     b60:	38 e0       	ldi	r19, 0x08	; 8
     b62:	6f e8       	ldi	r22, 0x8F	; 143
     b64:	75 e0       	ldi	r23, 0x05	; 5
     b66:	dc 01       	movw	r26, r24
     b68:	ed 91       	ld	r30, X+
     b6a:	cd 01       	movw	r24, r26
     b6c:	d9 01       	movw	r26, r18
     b6e:	ae 27       	eor	r26, r30
     b70:	fd 01       	movw	r30, r26
     b72:	e6 9f       	mul	r30, r22
     b74:	90 01       	movw	r18, r0
     b76:	e7 9f       	mul	r30, r23
     b78:	30 0d       	add	r19, r0
     b7a:	f6 9f       	mul	r31, r22
     b7c:	30 0d       	add	r19, r0
     b7e:	11 24       	eor	r1, r1
     b80:	48 17       	cp	r20, r24
     b82:	59 07       	cpc	r21, r25
     b84:	81 f7       	brne	.-32     	; 0xb66 <computeHash+0xe>
     b86:	c9 01       	movw	r24, r18
     b88:	88 0f       	add	r24, r24
     b8a:	89 2f       	mov	r24, r25
     b8c:	88 1f       	adc	r24, r24
     b8e:	99 0b       	sbc	r25, r25
     b90:	82 27       	eor	r24, r18
     b92:	93 27       	eor	r25, r19
     b94:	9c 01       	movw	r18, r24
     b96:	53 e0       	ldi	r21, 0x03	; 3
     b98:	22 0f       	add	r18, r18
     b9a:	33 1f       	adc	r19, r19
     b9c:	5a 95       	dec	r21
     b9e:	e1 f7       	brne	.-8      	; 0xb98 <computeHash+0x40>
     ba0:	82 0f       	add	r24, r18
     ba2:	93 1f       	adc	r25, r19
     ba4:	9c 01       	movw	r18, r24
     ba6:	65 e0       	ldi	r22, 0x05	; 5
     ba8:	22 0f       	add	r18, r18
     baa:	33 1f       	adc	r19, r19
     bac:	6a 95       	dec	r22
     bae:	e1 f7       	brne	.-8      	; 0xba8 <computeHash+0x50>
     bb0:	82 0f       	add	r24, r18
     bb2:	93 1f       	adc	r25, r19
     bb4:	08 95       	ret

00000bb6 <main>:
     bb6:	cf 93       	push	r28
     bb8:	df 93       	push	r29
     bba:	cd b7       	in	r28, 0x3d	; 61
     bbc:	de b7       	in	r29, 0x3e	; 62
     bbe:	ad 97       	sbiw	r28, 0x2d	; 45
     bc0:	0f b6       	in	r0, 0x3f	; 63
     bc2:	f8 94       	cli
     bc4:	de bf       	out	0x3e, r29	; 62
     bc6:	0f be       	out	0x3f, r0	; 63
     bc8:	cd bf       	out	0x3d, r28	; 61
     bca:	98 df       	rcall	.-208    	; 0xafc <Init>
     bcc:	84 e6       	ldi	r24, 0x64	; 100
     bce:	21 e5       	ldi	r18, 0x51	; 81
     bd0:	39 ee       	ldi	r19, 0xE9	; 233
     bd2:	9a e0       	ldi	r25, 0x0A	; 10
     bd4:	21 50       	subi	r18, 0x01	; 1
     bd6:	30 40       	sbci	r19, 0x00	; 0
     bd8:	90 40       	sbci	r25, 0x00	; 0
     bda:	e1 f7       	brne	.-8      	; 0xbd4 <main+0x1e>
     bdc:	00 c0       	rjmp	.+0      	; 0xbde <main+0x28>
     bde:	00 00       	nop
     be0:	81 50       	subi	r24, 0x01	; 1
     be2:	a9 f7       	brne	.-22     	; 0xbce <main+0x18>
     be4:	98 ee       	ldi	r25, 0xE8	; 232
     be6:	a9 2e       	mov	r10, r25
     be8:	93 e0       	ldi	r25, 0x03	; 3
     bea:	b9 2e       	mov	r11, r25
     bec:	51 2c       	mov	r5, r1
     bee:	26 ef       	ldi	r18, 0xF6	; 246
     bf0:	82 2e       	mov	r8, r18
     bf2:	99 24       	eor	r9, r9
     bf4:	9a 94       	dec	r9
     bf6:	32 e0       	ldi	r19, 0x02	; 2
     bf8:	63 2e       	mov	r6, r19
     bfa:	4d e0       	ldi	r20, 0x0D	; 13
     bfc:	34 2e       	mov	r3, r20
     bfe:	1b e0       	ldi	r17, 0x0B	; 11
     c00:	56 e2       	ldi	r21, 0x26	; 38
     c02:	45 2e       	mov	r4, r21
     c04:	80 91 ca 00 	lds	r24, 0x00CA	; 0x8000ca <state>
     c08:	90 e0       	ldi	r25, 0x00	; 0
     c0a:	fc 01       	movw	r30, r24
     c0c:	31 97       	sbiw	r30, 0x01	; 1
     c0e:	e1 31       	cpi	r30, 0x11	; 17
     c10:	f1 05       	cpc	r31, r1
     c12:	d8 f7       	brcc	.-10     	; 0xc0a <main+0x54>
     c14:	ed 5e       	subi	r30, 0xED	; 237
     c16:	ff 4f       	sbci	r31, 0xFF	; 255
     c18:	09 94       	ijmp
     c1a:	a2 da       	rcall	.-2748   	; 0x160 <USART_Flush>
     c1c:	f4 dc       	rcall	.-1560   	; 0x606 <clear_buffer>
     c1e:	83 e0       	ldi	r24, 0x03	; 3
     c20:	80 93 ca 00 	sts	0x00CA, r24	; 0x8000ca <state>
     c24:	2c c0       	rjmp	.+88     	; 0xc7e <main+0xc8>
     c26:	90 91 07 01 	lds	r25, 0x0107	; 0x800107 <buffer_index>
     c2a:	9b 30       	cpi	r25, 0x0B	; 11
     c2c:	a0 f0       	brcs	.+40     	; 0xc56 <main+0xa0>
     c2e:	80 91 06 01 	lds	r24, 0x0106	; 0x800106 <buffer_length>
     c32:	81 11       	cpse	r24, r1
     c34:	10 c0       	rjmp	.+32     	; 0xc56 <main+0xa0>
     c36:	80 91 2c 03 	lds	r24, 0x032C	; 0x80032c <buffer+0x2>
     c3a:	83 30       	cpi	r24, 0x03	; 3
     c3c:	19 f4       	brne	.+6      	; 0xc44 <main+0x8e>
     c3e:	10 93 06 01 	sts	0x0106, r17	; 0x800106 <buffer_length>
     c42:	09 c0       	rjmp	.+18     	; 0xc56 <main+0xa0>
     c44:	8a 30       	cpi	r24, 0x0A	; 10
     c46:	d9 f3       	breq	.-10     	; 0xc3e <main+0x88>
     c48:	8f 30       	cpi	r24, 0x0F	; 15
     c4a:	c9 f3       	breq	.-14     	; 0xc3e <main+0x88>
     c4c:	dc dc       	rcall	.-1608   	; 0x606 <clear_buffer>
     c4e:	82 e4       	ldi	r24, 0x42	; 66
     c50:	80 93 14 01 	sts	0x0114, r24	; 0x800114 <error_code>
     c54:	2b c1       	rjmp	.+598    	; 0xeac <main+0x2f6>
     c56:	80 91 06 01 	lds	r24, 0x0106	; 0x800106 <buffer_length>
     c5a:	98 17       	cp	r25, r24
     c5c:	98 f2       	brcs	.-90     	; 0xc04 <main+0x4e>
     c5e:	88 23       	and	r24, r24
     c60:	89 f2       	breq	.-94     	; 0xc04 <main+0x4e>
     c62:	8a e0       	ldi	r24, 0x0A	; 10
     c64:	80 93 ca 00 	sts	0x00CA, r24	; 0x8000ca <state>
     c68:	10 92 07 01 	sts	0x0107, r1	; 0x800107 <buffer_index>
     c6c:	cb cf       	rjmp	.-106    	; 0xc04 <main+0x4e>
     c6e:	80 91 04 01 	lds	r24, 0x0104	; 0x800104 <__data_end>
     c72:	82 34       	cpi	r24, 0x42	; 66
     c74:	11 f0       	breq	.+4      	; 0xc7a <main+0xc4>
     c76:	83 34       	cpi	r24, 0x43	; 67
     c78:	29 f6       	brne	.-118    	; 0xc04 <main+0x4e>
     c7a:	10 93 ca 00 	sts	0x00CA, r17	; 0x8000ca <state>
     c7e:	88 ee       	ldi	r24, 0xE8	; 232
     c80:	a8 2e       	mov	r10, r24
     c82:	83 e0       	ldi	r24, 0x03	; 3
     c84:	b8 2e       	mov	r11, r24
     c86:	be cf       	rjmp	.-132    	; 0xc04 <main+0x4e>
     c88:	05 dc       	rcall	.-2038   	; 0x494 <RTC_GET>
     c8a:	29 83       	std	Y+1, r18	; 0x01
     c8c:	3a 83       	std	Y+2, r19	; 0x02
     c8e:	4b 83       	std	Y+3, r20	; 0x03
     c90:	5c 83       	std	Y+4, r21	; 0x04
     c92:	6d 83       	std	Y+5, r22	; 0x05
     c94:	7e 83       	std	Y+6, r23	; 0x06
     c96:	8f 83       	std	Y+7, r24	; 0x07
     c98:	c7 dd       	rcall	.-1138   	; 0x828 <send_rtc_packet>
     c9a:	0a c0       	rjmp	.+20     	; 0xcb0 <main+0xfa>
     c9c:	85 2d       	mov	r24, r5
     c9e:	97 da       	rcall	.-2770   	; 0x1ce <set_brightness>
     ca0:	51 10       	cpse	r5, r1
     ca2:	06 c0       	rjmp	.+12     	; 0xcb0 <main+0xfa>
     ca4:	80 e0       	ldi	r24, 0x00	; 0
     ca6:	87 c0       	rjmp	.+270    	; 0xdb6 <main+0x200>
     ca8:	5d dc       	rcall	.-1862   	; 0x564 <get_illumination>
     caa:	86 e2       	ldi	r24, 0x26	; 38
     cac:	93 e0       	ldi	r25, 0x03	; 3
     cae:	10 de       	rcall	.-992    	; 0x8d0 <send_adc_packet>
     cb0:	10 93 ca 00 	sts	0x00CA, r17	; 0x8000ca <state>
     cb4:	a7 cf       	rjmp	.-178    	; 0xc04 <main+0x4e>
     cb6:	aa e2       	ldi	r26, 0x2A	; 42
     cb8:	b3 e0       	ldi	r27, 0x03	; 3
     cba:	fe 01       	movw	r30, r28
     cbc:	71 96       	adiw	r30, 0x11	; 17
     cbe:	cf 01       	movw	r24, r30
     cc0:	2d 91       	ld	r18, X+
     cc2:	21 93       	st	Z+, r18
     cc4:	23 e0       	ldi	r18, 0x03	; 3
     cc6:	a5 33       	cpi	r26, 0x35	; 53
     cc8:	b2 07       	cpc	r27, r18
     cca:	d1 f7       	brne	.-12     	; 0xcc0 <main+0x10a>
     ccc:	f0 90 06 01 	lds	r15, 0x0106	; 0x800106 <buffer_length>
     cd0:	6f 2d       	mov	r22, r15
     cd2:	70 e0       	ldi	r23, 0x00	; 0
     cd4:	62 50       	subi	r22, 0x02	; 2
     cd6:	71 09       	sbc	r23, r1
     cd8:	5a da       	rcall	.-2892   	; 0x18e <CalcCRC16>
     cda:	08 2f       	mov	r16, r24
     cdc:	79 2e       	mov	r7, r25
     cde:	8b 89       	ldd	r24, Y+19	; 0x13
     ce0:	83 30       	cpi	r24, 0x03	; 3
     ce2:	41 f4       	brne	.+16     	; 0xcf4 <main+0x13e>
     ce4:	3b e0       	ldi	r19, 0x0B	; 11
     ce6:	f3 12       	cpse	r15, r19
     ce8:	de c0       	rjmp	.+444    	; 0xea6 <main+0x2f0>
     cea:	8e 89       	ldd	r24, Y+22	; 0x16
     cec:	98 13       	cpse	r25, r24
     cee:	db c0       	rjmp	.+438    	; 0xea6 <main+0x2f0>
     cf0:	8f 89       	ldd	r24, Y+23	; 0x17
     cf2:	09 c0       	rjmp	.+18     	; 0xd06 <main+0x150>
     cf4:	8a 30       	cpi	r24, 0x0A	; 10
     cf6:	51 f4       	brne	.+20     	; 0xd0c <main+0x156>
     cf8:	8b e0       	ldi	r24, 0x0B	; 11
     cfa:	f8 12       	cpse	r15, r24
     cfc:	d4 c0       	rjmp	.+424    	; 0xea6 <main+0x2f0>
     cfe:	8a 8d       	ldd	r24, Y+26	; 0x1a
     d00:	98 13       	cpse	r25, r24
     d02:	d1 c0       	rjmp	.+418    	; 0xea6 <main+0x2f0>
     d04:	8b 8d       	ldd	r24, Y+27	; 0x1b
     d06:	80 13       	cpse	r24, r16
     d08:	ce c0       	rjmp	.+412    	; 0xea6 <main+0x2f0>
     d0a:	0c c0       	rjmp	.+24     	; 0xd24 <main+0x16e>
     d0c:	8f 30       	cpi	r24, 0x0F	; 15
     d0e:	09 f0       	breq	.+2      	; 0xd12 <main+0x15c>
     d10:	ca c0       	rjmp	.+404    	; 0xea6 <main+0x2f0>
     d12:	9b e0       	ldi	r25, 0x0B	; 11
     d14:	f9 12       	cpse	r15, r25
     d16:	c7 c0       	rjmp	.+398    	; 0xea6 <main+0x2f0>
     d18:	8a 8d       	ldd	r24, Y+26	; 0x1a
     d1a:	78 12       	cpse	r7, r24
     d1c:	c4 c0       	rjmp	.+392    	; 0xea6 <main+0x2f0>
     d1e:	8b 8d       	ldd	r24, Y+27	; 0x1b
     d20:	08 13       	cpse	r16, r24
     d22:	c1 c0       	rjmp	.+386    	; 0xea6 <main+0x2f0>
     d24:	c9 88       	ldd	r12, Y+17	; 0x11
     d26:	da 88       	ldd	r13, Y+18	; 0x12
     d28:	dc 24       	eor	r13, r12
     d2a:	cd 24       	eor	r12, r13
     d2c:	dc 24       	eor	r13, r12
     d2e:	ec 88       	ldd	r14, Y+20	; 0x14
     d30:	fd 88       	ldd	r15, Y+21	; 0x15
     d32:	fe 24       	eor	r15, r14
     d34:	ef 24       	eor	r14, r15
     d36:	fe 24       	eor	r15, r14
     d38:	80 91 08 01 	lds	r24, 0x0108	; 0x800108 <ID>
     d3c:	90 91 09 01 	lds	r25, 0x0109	; 0x800109 <ID+0x1>
     d40:	01 96       	adiw	r24, 0x01	; 1
     d42:	09 f4       	brne	.+2      	; 0xd46 <main+0x190>
     d44:	6d de       	rcall	.-806    	; 0xa20 <send_serial_number_packet>
     d46:	80 91 08 01 	lds	r24, 0x0108	; 0x800108 <ID>
     d4a:	90 91 09 01 	lds	r25, 0x0109	; 0x800109 <ID+0x1>
     d4e:	c8 16       	cp	r12, r24
     d50:	d9 06       	cpc	r13, r25
     d52:	31 f4       	brne	.+12     	; 0xd60 <main+0x1aa>
     d54:	8b 89       	ldd	r24, Y+19	; 0x13
     d56:	83 30       	cpi	r24, 0x03	; 3
     d58:	99 f0       	breq	.+38     	; 0xd80 <main+0x1ca>
     d5a:	8a 30       	cpi	r24, 0x0A	; 10
     d5c:	09 f4       	brne	.+2      	; 0xd60 <main+0x1aa>
     d5e:	47 c2       	rjmp	.+1166   	; 0x11ee <main+0x638>
     d60:	8c 2d       	mov	r24, r12
     d62:	0f dc       	rcall	.-2018   	; 0x582 <group_existing>
     d64:	89 2b       	or	r24, r25
     d66:	19 f0       	breq	.+6      	; 0xd6e <main+0x1b8>
     d68:	8b 89       	ldd	r24, Y+19	; 0x13
     d6a:	8f 30       	cpi	r24, 0x0F	; 15
     d6c:	91 f0       	breq	.+36     	; 0xd92 <main+0x1dc>
     d6e:	cd 28       	or	r12, r13
     d70:	09 f0       	breq	.+2      	; 0xd74 <main+0x1be>
     d72:	9e cf       	rjmp	.-196    	; 0xcb0 <main+0xfa>
     d74:	fe e5       	ldi	r31, 0x5E	; 94
     d76:	ef 16       	cp	r14, r31
     d78:	f1 04       	cpc	r15, r1
     d7a:	09 f0       	breq	.+2      	; 0xd7e <main+0x1c8>
     d7c:	99 cf       	rjmp	.-206    	; 0xcb0 <main+0xfa>
     d7e:	09 c0       	rjmp	.+18     	; 0xd92 <main+0x1dc>
     d80:	cd 28       	or	r12, r13
     d82:	09 f4       	brne	.+2      	; 0xd86 <main+0x1d0>
     d84:	95 cf       	rjmp	.-214    	; 0xcb0 <main+0xfa>
     d86:	7c 8e       	std	Y+28, r7	; 0x1c
     d88:	0d 8f       	std	Y+29, r16	; 0x1d
     d8a:	4e 8e       	std	Y+30, r4	; 0x1e
     d8c:	ce 01       	movw	r24, r28
     d8e:	4c 96       	adiw	r24, 0x1c	; 28
     d90:	46 dc       	rcall	.-1908   	; 0x61e <send_crc_in_api_mode>
     d92:	8b 89       	ldd	r24, Y+19	; 0x13
     d94:	8a 30       	cpi	r24, 0x0A	; 10
     d96:	09 f0       	breq	.+2      	; 0xd9a <main+0x1e4>
     d98:	78 c0       	rjmp	.+240    	; 0xe8a <main+0x2d4>
     d9a:	2f e5       	ldi	r18, 0x5F	; 95
     d9c:	e2 16       	cp	r14, r18
     d9e:	f1 04       	cpc	r15, r1
     da0:	29 f4       	brne	.+10     	; 0xdac <main+0x1f6>
     da2:	59 8c       	ldd	r5, Y+25	; 0x19
     da4:	36 e0       	ldi	r19, 0x06	; 6
     da6:	30 93 ca 00 	sts	0x00CA, r19	; 0x8000ca <state>
     daa:	2c cf       	rjmp	.-424    	; 0xc04 <main+0x4e>
     dac:	8d e5       	ldi	r24, 0x5D	; 93
     dae:	e8 16       	cp	r14, r24
     db0:	f1 04       	cpc	r15, r1
     db2:	19 f4       	brne	.+6      	; 0xdba <main+0x204>
     db4:	89 8d       	ldd	r24, Y+25	; 0x19
     db6:	8b de       	rcall	.-746    	; 0xace <on_off>
     db8:	7b cf       	rjmp	.-266    	; 0xcb0 <main+0xfa>
     dba:	9e e5       	ldi	r25, 0x5E	; 94
     dbc:	e9 16       	cp	r14, r25
     dbe:	f1 04       	cpc	r15, r1
     dc0:	09 f0       	breq	.+2      	; 0xdc4 <main+0x20e>
     dc2:	45 c0       	rjmp	.+138    	; 0xe4e <main+0x298>
     dc4:	20 e0       	ldi	r18, 0x00	; 0
     dc6:	97 e0       	ldi	r25, 0x07	; 7
     dc8:	e1 2c       	mov	r14, r1
     dca:	f1 2c       	mov	r15, r1
     dcc:	e9 2f       	mov	r30, r25
     dce:	f0 e0       	ldi	r31, 0x00	; 0
     dd0:	ef 56       	subi	r30, 0x6F	; 111
     dd2:	ff 4f       	sbci	r31, 0xFF	; 255
     dd4:	80 81       	ld	r24, Z
     dd6:	86 32       	cpi	r24, 0x26	; 38
     dd8:	a1 f0       	breq	.+40     	; 0xe02 <main+0x24c>
     dda:	8a 30       	cpi	r24, 0x0A	; 10
     ddc:	81 f0       	breq	.+32     	; 0xdfe <main+0x248>
     dde:	8d 30       	cpi	r24, 0x0D	; 13
     de0:	71 f0       	breq	.+28     	; 0xdfe <main+0x248>
     de2:	80 32       	cpi	r24, 0x20	; 32
     de4:	61 f0       	breq	.+24     	; 0xdfe <main+0x248>
     de6:	88 9f       	mul	r24, r24
     de8:	e0 0c       	add	r14, r0
     dea:	f1 1c       	adc	r15, r1
     dec:	11 24       	eor	r1, r1
     dee:	e1 e0       	ldi	r30, 0x01	; 1
     df0:	f0 e0       	ldi	r31, 0x00	; 0
     df2:	ec 0f       	add	r30, r28
     df4:	fd 1f       	adc	r31, r29
     df6:	e2 0f       	add	r30, r18
     df8:	f1 1d       	adc	r31, r1
     dfa:	80 83       	st	Z, r24
     dfc:	2f 5f       	subi	r18, 0xFF	; 255
     dfe:	9f 5f       	subi	r25, 0xFF	; 255
     e00:	e5 cf       	rjmp	.-54     	; 0xdcc <main+0x216>
     e02:	ce 01       	movw	r24, r28
     e04:	01 96       	adiw	r24, 0x01	; 1
     e06:	a8 de       	rcall	.-688    	; 0xb58 <computeHash>
     e08:	ce 88       	ldd	r12, Y+22	; 0x16
     e0a:	df 88       	ldd	r13, Y+23	; 0x17
     e0c:	c8 16       	cp	r12, r24
     e0e:	d9 06       	cpc	r13, r25
     e10:	19 f4       	brne	.+6      	; 0xe18 <main+0x262>
     e12:	83 ef       	ldi	r24, 0xF3	; 243
     e14:	90 e0       	ldi	r25, 0x00	; 0
     e16:	03 dc       	rcall	.-2042   	; 0x61e <send_crc_in_api_mode>
     e18:	ec 14       	cp	r14, r12
     e1a:	fd 04       	cpc	r15, r13
     e1c:	09 f0       	breq	.+2      	; 0xe20 <main+0x26a>
     e1e:	48 cf       	rjmp	.-368    	; 0xcb0 <main+0xfa>
     e20:	88 8d       	ldd	r24, Y+24	; 0x18
     e22:	99 8d       	ldd	r25, Y+25	; 0x19
     e24:	98 27       	eor	r25, r24
     e26:	89 27       	eor	r24, r25
     e28:	98 27       	eor	r25, r24
     e2a:	90 93 09 01 	sts	0x0109, r25	; 0x800109 <ID+0x1>
     e2e:	80 93 08 01 	sts	0x0108, r24	; 0x800108 <ID>
     e32:	42 e0       	ldi	r20, 0x02	; 2
     e34:	50 e0       	ldi	r21, 0x00	; 0
     e36:	61 e5       	ldi	r22, 0x51	; 81
     e38:	70 e0       	ldi	r23, 0x00	; 0
     e3a:	88 e0       	ldi	r24, 0x08	; 8
     e3c:	91 e0       	ldi	r25, 0x01	; 1
     e3e:	27 d6       	rcall	.+3150   	; 0x1a8e <eeprom_write_block>
     e40:	7c 8e       	std	Y+28, r7	; 0x1c
     e42:	0d 8f       	std	Y+29, r16	; 0x1d
     e44:	4e 8e       	std	Y+30, r4	; 0x1e
     e46:	ce 01       	movw	r24, r28
     e48:	4c 96       	adiw	r24, 0x1c	; 28
     e4a:	e9 db       	rcall	.-2094   	; 0x61e <send_crc_in_api_mode>
     e4c:	31 cf       	rjmp	.-414    	; 0xcb0 <main+0xfa>
     e4e:	e3 e6       	ldi	r30, 0x63	; 99
     e50:	ee 16       	cp	r14, r30
     e52:	f1 04       	cpc	r15, r1
     e54:	19 f4       	brne	.+6      	; 0xe5c <main+0x2a6>
     e56:	89 8d       	ldd	r24, Y+25	; 0x19
     e58:	a3 db       	rcall	.-2234   	; 0x5a0 <add_lamp_to_group>
     e5a:	2a cf       	rjmp	.-428    	; 0xcb0 <main+0xfa>
     e5c:	f4 e6       	ldi	r31, 0x64	; 100
     e5e:	ef 16       	cp	r14, r31
     e60:	f1 04       	cpc	r15, r1
     e62:	19 f4       	brne	.+6      	; 0xe6a <main+0x2b4>
     e64:	89 8d       	ldd	r24, Y+25	; 0x19
     e66:	bc db       	rcall	.-2184   	; 0x5e0 <delete_lamp_from_group>
     e68:	23 cf       	rjmp	.-442    	; 0xcb0 <main+0xfa>
     e6a:	20 e7       	ldi	r18, 0x70	; 112
     e6c:	e2 16       	cp	r14, r18
     e6e:	f1 04       	cpc	r15, r1
     e70:	09 f0       	breq	.+2      	; 0xe74 <main+0x2be>
     e72:	1e cf       	rjmp	.-452    	; 0xcb0 <main+0xfa>
     e74:	33 ea       	ldi	r19, 0xA3	; 163
     e76:	82 ed       	ldi	r24, 0xD2	; 210
     e78:	95 e1       	ldi	r25, 0x15	; 21
     e7a:	31 50       	subi	r19, 0x01	; 1
     e7c:	80 40       	sbci	r24, 0x00	; 0
     e7e:	90 40       	sbci	r25, 0x00	; 0
     e80:	e1 f7       	brne	.-8      	; 0xe7a <main+0x2c4>
     e82:	00 c0       	rjmp	.+0      	; 0xe84 <main+0x2ce>
     e84:	00 00       	nop
     e86:	39 dd       	rcall	.-1422   	; 0x8fa <send_all_packet>
     e88:	13 cf       	rjmp	.-474    	; 0xcb0 <main+0xfa>
     e8a:	8f 30       	cpi	r24, 0x0F	; 15
     e8c:	09 f0       	breq	.+2      	; 0xe90 <main+0x2da>
     e8e:	10 cf       	rjmp	.-480    	; 0xcb0 <main+0xfa>
     e90:	ef e5       	ldi	r30, 0x5F	; 95
     e92:	ee 16       	cp	r14, r30
     e94:	f1 04       	cpc	r15, r1
     e96:	09 f4       	brne	.+2      	; 0xe9a <main+0x2e4>
     e98:	84 cf       	rjmp	.-248    	; 0xda2 <main+0x1ec>
     e9a:	fd e5       	ldi	r31, 0x5D	; 93
     e9c:	ef 16       	cp	r14, r31
     e9e:	f1 04       	cpc	r15, r1
     ea0:	09 f0       	breq	.+2      	; 0xea4 <main+0x2ee>
     ea2:	06 cf       	rjmp	.-500    	; 0xcb0 <main+0xfa>
     ea4:	87 cf       	rjmp	.-242    	; 0xdb4 <main+0x1fe>
     ea6:	23 e4       	ldi	r18, 0x43	; 67
     ea8:	20 93 14 01 	sts	0x0114, r18	; 0x800114 <error_code>
     eac:	30 92 ca 00 	sts	0x00CA, r3	; 0x8000ca <state>
     eb0:	a9 ce       	rjmp	.-686    	; 0xc04 <main+0x4e>
     eb2:	1a 14       	cp	r1, r10
     eb4:	1b 04       	cpc	r1, r11
     eb6:	6c f4       	brge	.+26     	; 0xed2 <main+0x31c>
     eb8:	39 ea       	ldi	r19, 0xA9	; 169
     eba:	8e e2       	ldi	r24, 0x2E	; 46
     ebc:	92 e0       	ldi	r25, 0x02	; 2
     ebe:	31 50       	subi	r19, 0x01	; 1
     ec0:	80 40       	sbci	r24, 0x00	; 0
     ec2:	90 40       	sbci	r25, 0x00	; 0
     ec4:	e1 f7       	brne	.-8      	; 0xebe <main+0x308>
     ec6:	00 c0       	rjmp	.+0      	; 0xec8 <main+0x312>
     ec8:	00 00       	nop
     eca:	e4 e6       	ldi	r30, 0x64	; 100
     ecc:	ae 1a       	sub	r10, r30
     ece:	b1 08       	sbc	r11, r1
     ed0:	f0 cf       	rjmp	.-32     	; 0xeb2 <main+0x2fc>
     ed2:	60 92 ca 00 	sts	0x00CA, r6	; 0x8000ca <state>
     ed6:	96 ce       	rjmp	.-724    	; 0xc04 <main+0x4e>
     ed8:	80 91 05 01 	lds	r24, 0x0105	; 0x800105 <error_count>
     edc:	8f 5f       	subi	r24, 0xFF	; 255
     ede:	80 93 05 01 	sts	0x0105, r24	; 0x800105 <error_count>
     ee2:	3e d9       	rcall	.-3460   	; 0x160 <USART_Flush>
     ee4:	90 db       	rcall	.-2272   	; 0x606 <clear_buffer>
     ee6:	80 91 14 01 	lds	r24, 0x0114	; 0x800114 <error_code>
     eea:	82 34       	cpi	r24, 0x42	; 66
     eec:	49 f0       	breq	.+18     	; 0xf00 <main+0x34a>
     eee:	83 34       	cpi	r24, 0x43	; 67
     ef0:	09 f0       	breq	.+2      	; 0xef4 <main+0x33e>
     ef2:	88 ce       	rjmp	.-752    	; 0xc04 <main+0x4e>
     ef4:	80 93 04 01 	sts	0x0104, r24	; 0x800104 <__data_end>
     ef8:	24 e0       	ldi	r18, 0x04	; 4
     efa:	20 93 ca 00 	sts	0x00CA, r18	; 0x8000ca <state>
     efe:	82 ce       	rjmp	.-764    	; 0xc04 <main+0x4e>
     f00:	80 93 04 01 	sts	0x0104, r24	; 0x800104 <__data_end>
     f04:	f4 e0       	ldi	r31, 0x04	; 4
     f06:	f0 93 ca 00 	sts	0x00CA, r31	; 0x8000ca <state>
     f0a:	7c ce       	rjmp	.-776    	; 0xc04 <main+0x4e>
     f0c:	1d a6       	std	Y+45, r1	; 0x2d
     f0e:	1c a6       	std	Y+44, r1	; 0x2c
     f10:	1b a6       	std	Y+43, r1	; 0x2b
     f12:	1a a6       	std	Y+42, r1	; 0x2a
     f14:	19 a6       	std	Y+41, r1	; 0x29
     f16:	18 a6       	std	Y+40, r1	; 0x28
     f18:	41 e0       	ldi	r20, 0x01	; 1
     f1a:	50 e0       	ldi	r21, 0x00	; 0
     f1c:	61 e0       	ldi	r22, 0x01	; 1
     f1e:	70 e0       	ldi	r23, 0x00	; 0
     f20:	ce 01       	movw	r24, r28
     f22:	8d 96       	adiw	r24, 0x2d	; 45
     f24:	a4 d5       	rcall	.+2888   	; 0x1a6e <eeprom_read_block>
     f26:	8d a5       	ldd	r24, Y+45	; 0x2d
     f28:	86 70       	andi	r24, 0x06	; 6
     f2a:	86 95       	lsr	r24
     f2c:	8d a7       	std	Y+45, r24	; 0x2d
     f2e:	82 30       	cpi	r24, 0x02	; 2
     f30:	09 f4       	brne	.+2      	; 0xf34 <main+0x37e>
     f32:	64 c0       	rjmp	.+200    	; 0xffc <main+0x446>
     f34:	83 30       	cpi	r24, 0x03	; 3
     f36:	09 f4       	brne	.+2      	; 0xf3a <main+0x384>
     f38:	e1 c0       	rjmp	.+450    	; 0x10fc <main+0x546>
     f3a:	81 30       	cpi	r24, 0x01	; 1
     f3c:	09 f0       	breq	.+2      	; 0xf40 <main+0x38a>
     f3e:	62 ce       	rjmp	.-828    	; 0xc04 <main+0x4e>
     f40:	41 e0       	ldi	r20, 0x01	; 1
     f42:	50 e0       	ldi	r21, 0x00	; 0
     f44:	63 e3       	ldi	r22, 0x33	; 51
     f46:	70 e0       	ldi	r23, 0x00	; 0
     f48:	ce 01       	movw	r24, r28
     f4a:	8c 96       	adiw	r24, 0x2c	; 44
     f4c:	90 d5       	rcall	.+2848   	; 0x1a6e <eeprom_read_block>
     f4e:	41 e0       	ldi	r20, 0x01	; 1
     f50:	50 e0       	ldi	r21, 0x00	; 0
     f52:	64 e3       	ldi	r22, 0x34	; 52
     f54:	70 e0       	ldi	r23, 0x00	; 0
     f56:	ce 01       	movw	r24, r28
     f58:	8b 96       	adiw	r24, 0x2b	; 43
     f5a:	89 d5       	rcall	.+2834   	; 0x1a6e <eeprom_read_block>
     f5c:	41 e0       	ldi	r20, 0x01	; 1
     f5e:	50 e0       	ldi	r21, 0x00	; 0
     f60:	65 e3       	ldi	r22, 0x35	; 53
     f62:	70 e0       	ldi	r23, 0x00	; 0
     f64:	ce 01       	movw	r24, r28
     f66:	8a 96       	adiw	r24, 0x2a	; 42
     f68:	82 d5       	rcall	.+2820   	; 0x1a6e <eeprom_read_block>
     f6a:	41 e0       	ldi	r20, 0x01	; 1
     f6c:	50 e0       	ldi	r21, 0x00	; 0
     f6e:	66 e3       	ldi	r22, 0x36	; 54
     f70:	70 e0       	ldi	r23, 0x00	; 0
     f72:	ce 01       	movw	r24, r28
     f74:	89 96       	adiw	r24, 0x29	; 41
     f76:	7b d5       	rcall	.+2806   	; 0x1a6e <eeprom_read_block>
     f78:	41 e0       	ldi	r20, 0x01	; 1
     f7a:	50 e0       	ldi	r21, 0x00	; 0
     f7c:	67 e3       	ldi	r22, 0x37	; 55
     f7e:	70 e0       	ldi	r23, 0x00	; 0
     f80:	ce 01       	movw	r24, r28
     f82:	88 96       	adiw	r24, 0x28	; 40
     f84:	74 d5       	rcall	.+2792   	; 0x1a6e <eeprom_read_block>
     f86:	86 da       	rcall	.-2804   	; 0x494 <RTC_GET>
     f88:	2c 8f       	std	Y+28, r18	; 0x1c
     f8a:	3d 8f       	std	Y+29, r19	; 0x1d
     f8c:	4e 8f       	std	Y+30, r20	; 0x1e
     f8e:	5f 8f       	std	Y+31, r21	; 0x1f
     f90:	68 a3       	std	Y+32, r22	; 0x20
     f92:	79 a3       	std	Y+33, r23	; 0x21
     f94:	8a a3       	std	Y+34, r24	; 0x22
     f96:	16 2f       	mov	r17, r22
     f98:	16 95       	lsr	r17
     f9a:	16 95       	lsr	r17
     f9c:	16 95       	lsr	r17
     f9e:	1e 71       	andi	r17, 0x1E	; 30
     fa0:	81 2f       	mov	r24, r17
     fa2:	88 0f       	add	r24, r24
     fa4:	88 0f       	add	r24, r24
     fa6:	18 0f       	add	r17, r24
     fa8:	6f 70       	andi	r22, 0x0F	; 15
     faa:	16 0f       	add	r17, r22
     fac:	07 2f       	mov	r16, r23
     fae:	06 95       	lsr	r16
     fb0:	06 95       	lsr	r16
     fb2:	06 95       	lsr	r16
     fb4:	0e 71       	andi	r16, 0x1E	; 30
     fb6:	80 2f       	mov	r24, r16
     fb8:	88 0f       	add	r24, r24
     fba:	88 0f       	add	r24, r24
     fbc:	08 0f       	add	r16, r24
     fbe:	7f 70       	andi	r23, 0x0F	; 15
     fc0:	07 0f       	add	r16, r23
     fc2:	8b a5       	ldd	r24, Y+43	; 0x2b
     fc4:	08 13       	cpse	r16, r24
     fc6:	06 c0       	rjmp	.+12     	; 0xfd4 <main+0x41e>
     fc8:	8c a5       	ldd	r24, Y+44	; 0x2c
     fca:	18 13       	cpse	r17, r24
     fcc:	03 c0       	rjmp	.+6      	; 0xfd4 <main+0x41e>
     fce:	92 9a       	sbi	0x12, 2	; 18
     fd0:	88 a5       	ldd	r24, Y+40	; 0x28
     fd2:	fd d8       	rcall	.-3590   	; 0x1ce <set_brightness>
     fd4:	89 a5       	ldd	r24, Y+41	; 0x29
     fd6:	08 13       	cpse	r16, r24
     fd8:	07 c0       	rjmp	.+14     	; 0xfe8 <main+0x432>
     fda:	8a a5       	ldd	r24, Y+42	; 0x2a
     fdc:	18 13       	cpse	r17, r24
     fde:	04 c0       	rjmp	.+8      	; 0xfe8 <main+0x432>
     fe0:	82 b3       	in	r24, 0x12	; 18
     fe2:	12 ba       	out	0x12, r1	; 18
     fe4:	80 e0       	ldi	r24, 0x00	; 0
     fe6:	f3 d8       	rcall	.-3610   	; 0x1ce <set_brightness>
     fe8:	33 e3       	ldi	r19, 0x33	; 51
     fea:	8d e1       	ldi	r24, 0x1D	; 29
     fec:	9d e6       	ldi	r25, 0x6D	; 109
     fee:	31 50       	subi	r19, 0x01	; 1
     ff0:	80 40       	sbci	r24, 0x00	; 0
     ff2:	90 40       	sbci	r25, 0x00	; 0
     ff4:	e1 f7       	brne	.-8      	; 0xfee <main+0x438>
     ff6:	00 c0       	rjmp	.+0      	; 0xff8 <main+0x442>
     ff8:	00 00       	nop
     ffa:	c5 cf       	rjmp	.-118    	; 0xf86 <main+0x3d0>
     ffc:	4a e0       	ldi	r20, 0x0A	; 10
     ffe:	50 e0       	ldi	r21, 0x00	; 0
    1000:	68 e3       	ldi	r22, 0x38	; 56
    1002:	70 e0       	ldi	r23, 0x00	; 0
    1004:	ce 01       	movw	r24, r28
    1006:	41 96       	adiw	r24, 0x11	; 17
    1008:	32 d5       	rcall	.+2660   	; 0x1a6e <eeprom_read_block>
    100a:	4a e0       	ldi	r20, 0x0A	; 10
    100c:	50 e0       	ldi	r21, 0x00	; 0
    100e:	62 e4       	ldi	r22, 0x42	; 66
    1010:	70 e0       	ldi	r23, 0x00	; 0
    1012:	ce 01       	movw	r24, r28
    1014:	01 96       	adiw	r24, 0x01	; 1
    1016:	2b d5       	rcall	.+2646   	; 0x1a6e <eeprom_read_block>
    1018:	45 e0       	ldi	r20, 0x05	; 5
    101a:	50 e0       	ldi	r21, 0x00	; 0
    101c:	6c e4       	ldi	r22, 0x4C	; 76
    101e:	70 e0       	ldi	r23, 0x00	; 0
    1020:	ce 01       	movw	r24, r28
    1022:	83 96       	adiw	r24, 0x23	; 35
    1024:	24 d5       	rcall	.+2632   	; 0x1a6e <eeprom_read_block>
    1026:	36 da       	rcall	.-2964   	; 0x494 <RTC_GET>
    1028:	2c 8f       	std	Y+28, r18	; 0x1c
    102a:	3d 8f       	std	Y+29, r19	; 0x1d
    102c:	4e 8f       	std	Y+30, r20	; 0x1e
    102e:	5f 8f       	std	Y+31, r21	; 0x1f
    1030:	68 a3       	std	Y+32, r22	; 0x20
    1032:	79 a3       	std	Y+33, r23	; 0x21
    1034:	8a a3       	std	Y+34, r24	; 0x22
    1036:	06 2f       	mov	r16, r22
    1038:	06 95       	lsr	r16
    103a:	06 95       	lsr	r16
    103c:	06 95       	lsr	r16
    103e:	0e 71       	andi	r16, 0x1E	; 30
    1040:	80 2f       	mov	r24, r16
    1042:	88 0f       	add	r24, r24
    1044:	88 0f       	add	r24, r24
    1046:	08 0f       	add	r16, r24
    1048:	6f 70       	andi	r22, 0x0F	; 15
    104a:	06 0f       	add	r16, r22
    104c:	87 2f       	mov	r24, r23
    104e:	86 95       	lsr	r24
    1050:	86 95       	lsr	r24
    1052:	86 95       	lsr	r24
    1054:	8e 71       	andi	r24, 0x1E	; 30
    1056:	78 2e       	mov	r7, r24
    1058:	77 0c       	add	r7, r7
    105a:	77 0c       	add	r7, r7
    105c:	78 0e       	add	r7, r24
    105e:	7f 70       	andi	r23, 0x0F	; 15
    1060:	77 0e       	add	r7, r23
    1062:	fe 01       	movw	r30, r28
    1064:	71 96       	adiw	r30, 0x11	; 17
    1066:	6f 01       	movw	r12, r30
    1068:	9e 01       	movw	r18, r28
    106a:	2f 5f       	subi	r18, 0xFF	; 255
    106c:	3f 4f       	sbci	r19, 0xFF	; 255
    106e:	79 01       	movw	r14, r18
    1070:	21 2c       	mov	r2, r1
    1072:	f6 01       	movw	r30, r12
    1074:	80 81       	ld	r24, Z
    1076:	08 13       	cpse	r16, r24
    1078:	0e c0       	rjmp	.+28     	; 0x1096 <main+0x4e0>
    107a:	81 81       	ldd	r24, Z+1	; 0x01
    107c:	78 12       	cpse	r7, r24
    107e:	0b c0       	rjmp	.+22     	; 0x1096 <main+0x4e0>
    1080:	92 9a       	sbi	0x12, 2	; 18
    1082:	82 2d       	mov	r24, r2
    1084:	86 95       	lsr	r24
    1086:	e3 e2       	ldi	r30, 0x23	; 35
    1088:	f0 e0       	ldi	r31, 0x00	; 0
    108a:	ec 0f       	add	r30, r28
    108c:	fd 1f       	adc	r31, r29
    108e:	e8 0f       	add	r30, r24
    1090:	f1 1d       	adc	r31, r1
    1092:	80 81       	ld	r24, Z
    1094:	9c d8       	rcall	.-3784   	; 0x1ce <set_brightness>
    1096:	f7 01       	movw	r30, r14
    1098:	80 81       	ld	r24, Z
    109a:	08 13       	cpse	r16, r24
    109c:	07 c0       	rjmp	.+14     	; 0x10ac <main+0x4f6>
    109e:	81 81       	ldd	r24, Z+1	; 0x01
    10a0:	78 12       	cpse	r7, r24
    10a2:	04 c0       	rjmp	.+8      	; 0x10ac <main+0x4f6>
    10a4:	82 b3       	in	r24, 0x12	; 18
    10a6:	12 ba       	out	0x12, r1	; 18
    10a8:	80 e0       	ldi	r24, 0x00	; 0
    10aa:	91 d8       	rcall	.-3806   	; 0x1ce <set_brightness>
    10ac:	23 94       	inc	r2
    10ae:	23 94       	inc	r2
    10b0:	f2 e0       	ldi	r31, 0x02	; 2
    10b2:	cf 0e       	add	r12, r31
    10b4:	d1 1c       	adc	r13, r1
    10b6:	22 e0       	ldi	r18, 0x02	; 2
    10b8:	e2 0e       	add	r14, r18
    10ba:	f1 1c       	adc	r15, r1
    10bc:	3a e0       	ldi	r19, 0x0A	; 10
    10be:	23 12       	cpse	r2, r19
    10c0:	d8 cf       	rjmp	.-80     	; 0x1072 <main+0x4bc>
    10c2:	83 e3       	ldi	r24, 0x33	; 51
    10c4:	9d e1       	ldi	r25, 0x1D	; 29
    10c6:	ed e6       	ldi	r30, 0x6D	; 109
    10c8:	81 50       	subi	r24, 0x01	; 1
    10ca:	90 40       	sbci	r25, 0x00	; 0
    10cc:	e0 40       	sbci	r30, 0x00	; 0
    10ce:	e1 f7       	brne	.-8      	; 0x10c8 <main+0x512>
    10d0:	00 c0       	rjmp	.+0      	; 0x10d2 <main+0x51c>
    10d2:	00 00       	nop
    10d4:	97 cd       	rjmp	.-1234   	; 0xc04 <main+0x4e>
    10d6:	8c a5       	ldd	r24, Y+44	; 0x2c
    10d8:	08 13       	cpse	r16, r24
    10da:	03 c0       	rjmp	.+6      	; 0x10e2 <main+0x52c>
    10dc:	92 9a       	sbi	0x12, 2	; 18
    10de:	88 a5       	ldd	r24, Y+40	; 0x28
    10e0:	76 d8       	rcall	.-3860   	; 0x1ce <set_brightness>
    10e2:	89 a5       	ldd	r24, Y+41	; 0x29
    10e4:	f8 16       	cp	r15, r24
    10e6:	09 f4       	brne	.+2      	; 0x10ea <main+0x534>
    10e8:	5e c0       	rjmp	.+188    	; 0x11a6 <main+0x5f0>
    10ea:	23 e3       	ldi	r18, 0x33	; 51
    10ec:	3d e1       	ldi	r19, 0x1D	; 29
    10ee:	8d e6       	ldi	r24, 0x6D	; 109
    10f0:	21 50       	subi	r18, 0x01	; 1
    10f2:	30 40       	sbci	r19, 0x00	; 0
    10f4:	80 40       	sbci	r24, 0x00	; 0
    10f6:	e1 f7       	brne	.-8      	; 0x10f0 <main+0x53a>
    10f8:	00 c0       	rjmp	.+0      	; 0x10fa <main+0x544>
    10fa:	00 00       	nop
    10fc:	cb d9       	rcall	.-3178   	; 0x494 <RTC_GET>
    10fe:	06 2f       	mov	r16, r22
    1100:	f7 2e       	mov	r15, r23
    1102:	2c 8f       	std	Y+28, r18	; 0x1c
    1104:	3d 8f       	std	Y+29, r19	; 0x1d
    1106:	4e 8f       	std	Y+30, r20	; 0x1e
    1108:	5f 8f       	std	Y+31, r21	; 0x1f
    110a:	68 a3       	std	Y+32, r22	; 0x20
    110c:	79 a3       	std	Y+33, r23	; 0x21
    110e:	8a a3       	std	Y+34, r24	; 0x22
    1110:	2f 70       	andi	r18, 0x0F	; 15
    1112:	f4 e0       	ldi	r31, 0x04	; 4
    1114:	2f 9f       	mul	r18, r31
    1116:	20 0d       	add	r18, r0
    1118:	11 24       	eor	r1, r1
    111a:	16 ef       	ldi	r17, 0xF6	; 246
    111c:	12 0f       	add	r17, r18
    111e:	60 e1       	ldi	r22, 0x10	; 16
    1120:	61 0f       	add	r22, r17
    1122:	70 e0       	ldi	r23, 0x00	; 0
    1124:	41 e0       	ldi	r20, 0x01	; 1
    1126:	50 e0       	ldi	r21, 0x00	; 0
    1128:	ce 01       	movw	r24, r28
    112a:	8c 96       	adiw	r24, 0x2c	; 44
    112c:	a0 d4       	rcall	.+2368   	; 0x1a6e <eeprom_read_block>
    112e:	61 e1       	ldi	r22, 0x11	; 17
    1130:	61 0f       	add	r22, r17
    1132:	70 e0       	ldi	r23, 0x00	; 0
    1134:	41 e0       	ldi	r20, 0x01	; 1
    1136:	50 e0       	ldi	r21, 0x00	; 0
    1138:	ce 01       	movw	r24, r28
    113a:	8b 96       	adiw	r24, 0x2b	; 43
    113c:	98 d4       	rcall	.+2352   	; 0x1a6e <eeprom_read_block>
    113e:	62 e1       	ldi	r22, 0x12	; 18
    1140:	61 0f       	add	r22, r17
    1142:	70 e0       	ldi	r23, 0x00	; 0
    1144:	41 e0       	ldi	r20, 0x01	; 1
    1146:	50 e0       	ldi	r21, 0x00	; 0
    1148:	ce 01       	movw	r24, r28
    114a:	8a 96       	adiw	r24, 0x2a	; 42
    114c:	90 d4       	rcall	.+2336   	; 0x1a6e <eeprom_read_block>
    114e:	63 e1       	ldi	r22, 0x13	; 19
    1150:	61 0f       	add	r22, r17
    1152:	70 e0       	ldi	r23, 0x00	; 0
    1154:	41 e0       	ldi	r20, 0x01	; 1
    1156:	50 e0       	ldi	r21, 0x00	; 0
    1158:	ce 01       	movw	r24, r28
    115a:	89 96       	adiw	r24, 0x29	; 41
    115c:	88 d4       	rcall	.+2320   	; 0x1a6e <eeprom_read_block>
    115e:	1c 5e       	subi	r17, 0xEC	; 236
    1160:	61 2f       	mov	r22, r17
    1162:	70 e0       	ldi	r23, 0x00	; 0
    1164:	41 e0       	ldi	r20, 0x01	; 1
    1166:	50 e0       	ldi	r21, 0x00	; 0
    1168:	ce 01       	movw	r24, r28
    116a:	88 96       	adiw	r24, 0x28	; 40
    116c:	80 d4       	rcall	.+2304   	; 0x1a6e <eeprom_read_block>
    116e:	80 2f       	mov	r24, r16
    1170:	86 95       	lsr	r24
    1172:	86 95       	lsr	r24
    1174:	86 95       	lsr	r24
    1176:	8e 71       	andi	r24, 0x1E	; 30
    1178:	98 2f       	mov	r25, r24
    117a:	99 0f       	add	r25, r25
    117c:	99 0f       	add	r25, r25
    117e:	89 0f       	add	r24, r25
    1180:	0f 70       	andi	r16, 0x0F	; 15
    1182:	08 0f       	add	r16, r24
    1184:	8f 2d       	mov	r24, r15
    1186:	86 95       	lsr	r24
    1188:	86 95       	lsr	r24
    118a:	86 95       	lsr	r24
    118c:	8e 71       	andi	r24, 0x1E	; 30
    118e:	98 2f       	mov	r25, r24
    1190:	99 0f       	add	r25, r25
    1192:	99 0f       	add	r25, r25
    1194:	98 0f       	add	r25, r24
    1196:	8f 2d       	mov	r24, r15
    1198:	8f 70       	andi	r24, 0x0F	; 15
    119a:	f9 2e       	mov	r15, r25
    119c:	f8 0e       	add	r15, r24
    119e:	8b a5       	ldd	r24, Y+43	; 0x2b
    11a0:	f8 12       	cpse	r15, r24
    11a2:	9f cf       	rjmp	.-194    	; 0x10e2 <main+0x52c>
    11a4:	98 cf       	rjmp	.-208    	; 0x10d6 <main+0x520>
    11a6:	8a a5       	ldd	r24, Y+42	; 0x2a
    11a8:	08 13       	cpse	r16, r24
    11aa:	9f cf       	rjmp	.-194    	; 0x10ea <main+0x534>
    11ac:	82 b3       	in	r24, 0x12	; 18
    11ae:	12 ba       	out	0x12, r1	; 18
    11b0:	80 e0       	ldi	r24, 0x00	; 0
    11b2:	0d d8       	rcall	.-4070   	; 0x1ce <set_brightness>
    11b4:	9a cf       	rjmp	.-204    	; 0x10ea <main+0x534>
    11b6:	d6 d9       	rcall	.-3156   	; 0x564 <get_illumination>
    11b8:	b4 01       	movw	r22, r8
    11ba:	1c d4       	rcall	.+2104   	; 0x19f4 <__divmodhi4>
    11bc:	84 e6       	ldi	r24, 0x64	; 100
    11be:	86 0f       	add	r24, r22
    11c0:	06 d8       	rcall	.-4084   	; 0x1ce <set_brightness>
    11c2:	83 da       	rcall	.-2810   	; 0x6ca <read_network_status>
    11c4:	88 23       	and	r24, r24
    11c6:	29 f0       	breq	.+10     	; 0x11d2 <main+0x61c>
    11c8:	cb d7       	rcall	.+3990   	; 0x2160 <__TEXT_REGION_LENGTH__+0x160>
    11ca:	1d da       	rcall	.-3014   	; 0x606 <clear_buffer>
    11cc:	60 92 ca 00 	sts	0x00CA, r6	; 0x8000ca <state>
    11d0:	01 c0       	rjmp	.+2      	; 0x11d4 <main+0x61e>
    11d2:	b1 da       	rcall	.-2718   	; 0x736 <hardware_reset>
    11d4:	84 e6       	ldi	r24, 0x64	; 100
    11d6:	93 e5       	ldi	r25, 0x53	; 83
    11d8:	ed e5       	ldi	r30, 0x5D	; 93
    11da:	f4 e0       	ldi	r31, 0x04	; 4
    11dc:	91 50       	subi	r25, 0x01	; 1
    11de:	e0 40       	sbci	r30, 0x00	; 0
    11e0:	f0 40       	sbci	r31, 0x00	; 0
    11e2:	e1 f7       	brne	.-8      	; 0x11dc <main+0x626>
    11e4:	00 c0       	rjmp	.+0      	; 0x11e6 <main+0x630>
    11e6:	00 00       	nop
    11e8:	81 50       	subi	r24, 0x01	; 1
    11ea:	a9 f7       	brne	.-22     	; 0x11d6 <main+0x620>
    11ec:	0b cd       	rjmp	.-1514   	; 0xc04 <main+0x4e>
    11ee:	cd 28       	or	r12, r13
    11f0:	09 f4       	brne	.+2      	; 0x11f4 <main+0x63e>
    11f2:	d3 cd       	rjmp	.-1114   	; 0xd9a <main+0x1e4>
    11f4:	c8 cd       	rjmp	.-1136   	; 0xd86 <main+0x1d0>

000011f6 <__vector_3>:
    11f6:	1f 92       	push	r1
    11f8:	0f 92       	push	r0
    11fa:	0f b6       	in	r0, 0x3f	; 63
    11fc:	0f 92       	push	r0
    11fe:	11 24       	eor	r1, r1
    1200:	8f 93       	push	r24
    1202:	9f 93       	push	r25
    1204:	ef 93       	push	r30
    1206:	ff 93       	push	r31
    1208:	80 91 1e 01 	lds	r24, 0x011E	; 0x80011e <flag_tx_busy>
    120c:	81 30       	cpi	r24, 0x01	; 1
    120e:	19 f5       	brne	.+70     	; 0x1256 <__vector_3+0x60>
    1210:	80 91 1d 01 	lds	r24, 0x011D	; 0x80011d <timer_tx_ctr>
    1214:	81 50       	subi	r24, 0x01	; 1
    1216:	e9 f4       	brne	.+58     	; 0x1252 <__vector_3+0x5c>
    1218:	80 91 1a 01 	lds	r24, 0x011A	; 0x80011a <internal_tx_buffer>
    121c:	90 91 1b 01 	lds	r25, 0x011B	; 0x80011b <internal_tx_buffer+0x1>
    1220:	80 ff       	sbrs	r24, 0
    1222:	02 c0       	rjmp	.+4      	; 0x1228 <__vector_3+0x32>
    1224:	96 9a       	sbi	0x12, 6	; 18
    1226:	01 c0       	rjmp	.+2      	; 0x122a <__vector_3+0x34>
    1228:	96 98       	cbi	0x12, 6	; 18
    122a:	80 91 1a 01 	lds	r24, 0x011A	; 0x80011a <internal_tx_buffer>
    122e:	90 91 1b 01 	lds	r25, 0x011B	; 0x80011b <internal_tx_buffer+0x1>
    1232:	96 95       	lsr	r25
    1234:	87 95       	ror	r24
    1236:	90 93 1b 01 	sts	0x011B, r25	; 0x80011b <internal_tx_buffer+0x1>
    123a:	80 93 1a 01 	sts	0x011A, r24	; 0x80011a <internal_tx_buffer>
    123e:	80 91 1c 01 	lds	r24, 0x011C	; 0x80011c <bits_left_in_tx>
    1242:	81 50       	subi	r24, 0x01	; 1
    1244:	80 93 1c 01 	sts	0x011C, r24	; 0x80011c <bits_left_in_tx>
    1248:	81 11       	cpse	r24, r1
    124a:	02 c0       	rjmp	.+4      	; 0x1250 <__vector_3+0x5a>
    124c:	10 92 1e 01 	sts	0x011E, r1	; 0x80011e <flag_tx_busy>
    1250:	88 e0       	ldi	r24, 0x08	; 8
    1252:	80 93 1d 01 	sts	0x011D, r24	; 0x80011d <timer_tx_ctr>
    1256:	80 91 20 01 	lds	r24, 0x0120	; 0x800120 <flag_rx_off>
    125a:	81 11       	cpse	r24, r1
    125c:	4e c0       	rjmp	.+156    	; 0x12fa <__vector_3+0x104>
    125e:	80 91 19 01 	lds	r24, 0x0119	; 0x800119 <flag_rx_waiting_for_stop_bit.1761>
    1262:	88 23       	and	r24, r24
    1264:	c9 f0       	breq	.+50     	; 0x1298 <__vector_3+0xa2>
    1266:	80 91 18 01 	lds	r24, 0x0118	; 0x800118 <timer_rx_ctr.1763>
    126a:	81 50       	subi	r24, 0x01	; 1
    126c:	80 93 18 01 	sts	0x0118, r24	; 0x800118 <timer_rx_ctr.1763>
    1270:	81 11       	cpse	r24, r1
    1272:	43 c0       	rjmp	.+134    	; 0x12fa <__vector_3+0x104>
    1274:	10 92 19 01 	sts	0x0119, r1	; 0x800119 <flag_rx_waiting_for_stop_bit.1761>
    1278:	10 92 1f 01 	sts	0x011F, r1	; 0x80011f <flag_rx_ready>
    127c:	e0 91 21 01 	lds	r30, 0x0121	; 0x800121 <qin>
    1280:	f0 e0       	ldi	r31, 0x00	; 0
    1282:	80 91 17 01 	lds	r24, 0x0117	; 0x800117 <internal_rx_buffer.1765>
    1286:	ee 5d       	subi	r30, 0xDE	; 222
    1288:	fe 4f       	sbci	r31, 0xFE	; 254
    128a:	80 83       	st	Z, r24
    128c:	80 91 21 01 	lds	r24, 0x0121	; 0x800121 <qin>
    1290:	8f 5f       	subi	r24, 0xFF	; 255
    1292:	80 93 21 01 	sts	0x0121, r24	; 0x800121 <qin>
    1296:	31 c0       	rjmp	.+98     	; 0x12fa <__vector_3+0x104>
    1298:	80 91 1f 01 	lds	r24, 0x011F	; 0x80011f <flag_rx_ready>
    129c:	81 11       	cpse	r24, r1
    129e:	10 c0       	rjmp	.+32     	; 0x12c0 <__vector_3+0xca>
    12a0:	87 99       	sbic	0x10, 7	; 16
    12a2:	2b c0       	rjmp	.+86     	; 0x12fa <__vector_3+0x104>
    12a4:	81 e0       	ldi	r24, 0x01	; 1
    12a6:	80 93 1f 01 	sts	0x011F, r24	; 0x80011f <flag_rx_ready>
    12aa:	10 92 17 01 	sts	0x0117, r1	; 0x800117 <internal_rx_buffer.1765>
    12ae:	9c e0       	ldi	r25, 0x0C	; 12
    12b0:	90 93 18 01 	sts	0x0118, r25	; 0x800118 <timer_rx_ctr.1763>
    12b4:	98 e0       	ldi	r25, 0x08	; 8
    12b6:	90 93 16 01 	sts	0x0116, r25	; 0x800116 <bits_left_in_rx.1764>
    12ba:	80 93 15 01 	sts	0x0115, r24	; 0x800115 <rx_mask.1762>
    12be:	1d c0       	rjmp	.+58     	; 0x12fa <__vector_3+0x104>
    12c0:	80 91 18 01 	lds	r24, 0x0118	; 0x800118 <timer_rx_ctr.1763>
    12c4:	81 50       	subi	r24, 0x01	; 1
    12c6:	b9 f4       	brne	.+46     	; 0x12f6 <__vector_3+0x100>
    12c8:	80 91 15 01 	lds	r24, 0x0115	; 0x800115 <rx_mask.1762>
    12cc:	87 9b       	sbis	0x10, 7	; 16
    12ce:	05 c0       	rjmp	.+10     	; 0x12da <__vector_3+0xe4>
    12d0:	90 91 17 01 	lds	r25, 0x0117	; 0x800117 <internal_rx_buffer.1765>
    12d4:	98 2b       	or	r25, r24
    12d6:	90 93 17 01 	sts	0x0117, r25	; 0x800117 <internal_rx_buffer.1765>
    12da:	88 0f       	add	r24, r24
    12dc:	80 93 15 01 	sts	0x0115, r24	; 0x800115 <rx_mask.1762>
    12e0:	80 91 16 01 	lds	r24, 0x0116	; 0x800116 <bits_left_in_rx.1764>
    12e4:	81 50       	subi	r24, 0x01	; 1
    12e6:	80 93 16 01 	sts	0x0116, r24	; 0x800116 <bits_left_in_rx.1764>
    12ea:	81 11       	cpse	r24, r1
    12ec:	03 c0       	rjmp	.+6      	; 0x12f4 <__vector_3+0xfe>
    12ee:	81 e0       	ldi	r24, 0x01	; 1
    12f0:	80 93 19 01 	sts	0x0119, r24	; 0x800119 <flag_rx_waiting_for_stop_bit.1761>
    12f4:	88 e0       	ldi	r24, 0x08	; 8
    12f6:	80 93 18 01 	sts	0x0118, r24	; 0x800118 <timer_rx_ctr.1763>
    12fa:	ff 91       	pop	r31
    12fc:	ef 91       	pop	r30
    12fe:	9f 91       	pop	r25
    1300:	8f 91       	pop	r24
    1302:	0f 90       	pop	r0
    1304:	0f be       	out	0x3f, r0	; 63
    1306:	0f 90       	pop	r0
    1308:	1f 90       	pop	r1
    130a:	18 95       	reti

0000130c <softuart_init>:
    130c:	10 92 1e 01 	sts	0x011E, r1	; 0x80011e <flag_tx_busy>
    1310:	10 92 1f 01 	sts	0x011F, r1	; 0x80011f <flag_rx_ready>
    1314:	10 92 20 01 	sts	0x0120, r1	; 0x800120 <flag_rx_off>
    1318:	96 9a       	sbi	0x12, 6	; 18
    131a:	8f 98       	cbi	0x11, 7	; 17
    131c:	97 9a       	sbi	0x12, 7	; 18
    131e:	89 9a       	sbi	0x11, 1	; 17
    1320:	91 98       	cbi	0x12, 1	; 18
    1322:	8d e5       	ldi	r24, 0x5D	; 93
    1324:	83 bd       	out	0x23, r24	; 35
    1326:	89 e0       	ldi	r24, 0x09	; 9
    1328:	85 bd       	out	0x25, r24	; 37
    132a:	89 b7       	in	r24, 0x39	; 57
    132c:	80 68       	ori	r24, 0x80	; 128
    132e:	89 bf       	out	0x39, r24	; 57
    1330:	14 bc       	out	0x24, r1	; 36
    1332:	08 95       	ret

00001334 <__subsf3>:
    1334:	50 58       	subi	r21, 0x80	; 128

00001336 <__addsf3>:
    1336:	bb 27       	eor	r27, r27
    1338:	aa 27       	eor	r26, r26
    133a:	0e d0       	rcall	.+28     	; 0x1358 <__addsf3x>
    133c:	4d c1       	rjmp	.+666    	; 0x15d8 <__fp_round>
    133e:	3e d1       	rcall	.+636    	; 0x15bc <__fp_pscA>
    1340:	30 f0       	brcs	.+12     	; 0x134e <__addsf3+0x18>
    1342:	43 d1       	rcall	.+646    	; 0x15ca <__fp_pscB>
    1344:	20 f0       	brcs	.+8      	; 0x134e <__addsf3+0x18>
    1346:	31 f4       	brne	.+12     	; 0x1354 <__addsf3+0x1e>
    1348:	9f 3f       	cpi	r25, 0xFF	; 255
    134a:	11 f4       	brne	.+4      	; 0x1350 <__addsf3+0x1a>
    134c:	1e f4       	brtc	.+6      	; 0x1354 <__addsf3+0x1e>
    134e:	33 c1       	rjmp	.+614    	; 0x15b6 <__fp_nan>
    1350:	0e f4       	brtc	.+2      	; 0x1354 <__addsf3+0x1e>
    1352:	e0 95       	com	r30
    1354:	e7 fb       	bst	r30, 7
    1356:	29 c1       	rjmp	.+594    	; 0x15aa <__fp_inf>

00001358 <__addsf3x>:
    1358:	e9 2f       	mov	r30, r25
    135a:	4f d1       	rcall	.+670    	; 0x15fa <__fp_split3>
    135c:	80 f3       	brcs	.-32     	; 0x133e <__addsf3+0x8>
    135e:	ba 17       	cp	r27, r26
    1360:	62 07       	cpc	r22, r18
    1362:	73 07       	cpc	r23, r19
    1364:	84 07       	cpc	r24, r20
    1366:	95 07       	cpc	r25, r21
    1368:	18 f0       	brcs	.+6      	; 0x1370 <__addsf3x+0x18>
    136a:	71 f4       	brne	.+28     	; 0x1388 <__addsf3x+0x30>
    136c:	9e f5       	brtc	.+102    	; 0x13d4 <__addsf3x+0x7c>
    136e:	67 c1       	rjmp	.+718    	; 0x163e <__fp_zero>
    1370:	0e f4       	brtc	.+2      	; 0x1374 <__addsf3x+0x1c>
    1372:	e0 95       	com	r30
    1374:	0b 2e       	mov	r0, r27
    1376:	ba 2f       	mov	r27, r26
    1378:	a0 2d       	mov	r26, r0
    137a:	0b 01       	movw	r0, r22
    137c:	b9 01       	movw	r22, r18
    137e:	90 01       	movw	r18, r0
    1380:	0c 01       	movw	r0, r24
    1382:	ca 01       	movw	r24, r20
    1384:	a0 01       	movw	r20, r0
    1386:	11 24       	eor	r1, r1
    1388:	ff 27       	eor	r31, r31
    138a:	59 1b       	sub	r21, r25
    138c:	99 f0       	breq	.+38     	; 0x13b4 <__addsf3x+0x5c>
    138e:	59 3f       	cpi	r21, 0xF9	; 249
    1390:	50 f4       	brcc	.+20     	; 0x13a6 <__addsf3x+0x4e>
    1392:	50 3e       	cpi	r21, 0xE0	; 224
    1394:	68 f1       	brcs	.+90     	; 0x13f0 <__addsf3x+0x98>
    1396:	1a 16       	cp	r1, r26
    1398:	f0 40       	sbci	r31, 0x00	; 0
    139a:	a2 2f       	mov	r26, r18
    139c:	23 2f       	mov	r18, r19
    139e:	34 2f       	mov	r19, r20
    13a0:	44 27       	eor	r20, r20
    13a2:	58 5f       	subi	r21, 0xF8	; 248
    13a4:	f3 cf       	rjmp	.-26     	; 0x138c <__addsf3x+0x34>
    13a6:	46 95       	lsr	r20
    13a8:	37 95       	ror	r19
    13aa:	27 95       	ror	r18
    13ac:	a7 95       	ror	r26
    13ae:	f0 40       	sbci	r31, 0x00	; 0
    13b0:	53 95       	inc	r21
    13b2:	c9 f7       	brne	.-14     	; 0x13a6 <__addsf3x+0x4e>
    13b4:	7e f4       	brtc	.+30     	; 0x13d4 <__addsf3x+0x7c>
    13b6:	1f 16       	cp	r1, r31
    13b8:	ba 0b       	sbc	r27, r26
    13ba:	62 0b       	sbc	r22, r18
    13bc:	73 0b       	sbc	r23, r19
    13be:	84 0b       	sbc	r24, r20
    13c0:	ba f0       	brmi	.+46     	; 0x13f0 <__addsf3x+0x98>
    13c2:	91 50       	subi	r25, 0x01	; 1
    13c4:	a1 f0       	breq	.+40     	; 0x13ee <__addsf3x+0x96>
    13c6:	ff 0f       	add	r31, r31
    13c8:	bb 1f       	adc	r27, r27
    13ca:	66 1f       	adc	r22, r22
    13cc:	77 1f       	adc	r23, r23
    13ce:	88 1f       	adc	r24, r24
    13d0:	c2 f7       	brpl	.-16     	; 0x13c2 <__addsf3x+0x6a>
    13d2:	0e c0       	rjmp	.+28     	; 0x13f0 <__addsf3x+0x98>
    13d4:	ba 0f       	add	r27, r26
    13d6:	62 1f       	adc	r22, r18
    13d8:	73 1f       	adc	r23, r19
    13da:	84 1f       	adc	r24, r20
    13dc:	48 f4       	brcc	.+18     	; 0x13f0 <__addsf3x+0x98>
    13de:	87 95       	ror	r24
    13e0:	77 95       	ror	r23
    13e2:	67 95       	ror	r22
    13e4:	b7 95       	ror	r27
    13e6:	f7 95       	ror	r31
    13e8:	9e 3f       	cpi	r25, 0xFE	; 254
    13ea:	08 f0       	brcs	.+2      	; 0x13ee <__addsf3x+0x96>
    13ec:	b3 cf       	rjmp	.-154    	; 0x1354 <__addsf3+0x1e>
    13ee:	93 95       	inc	r25
    13f0:	88 0f       	add	r24, r24
    13f2:	08 f0       	brcs	.+2      	; 0x13f6 <__addsf3x+0x9e>
    13f4:	99 27       	eor	r25, r25
    13f6:	ee 0f       	add	r30, r30
    13f8:	97 95       	ror	r25
    13fa:	87 95       	ror	r24
    13fc:	08 95       	ret

000013fe <__divsf3>:
    13fe:	0c d0       	rcall	.+24     	; 0x1418 <__divsf3x>
    1400:	eb c0       	rjmp	.+470    	; 0x15d8 <__fp_round>
    1402:	e3 d0       	rcall	.+454    	; 0x15ca <__fp_pscB>
    1404:	40 f0       	brcs	.+16     	; 0x1416 <__divsf3+0x18>
    1406:	da d0       	rcall	.+436    	; 0x15bc <__fp_pscA>
    1408:	30 f0       	brcs	.+12     	; 0x1416 <__divsf3+0x18>
    140a:	21 f4       	brne	.+8      	; 0x1414 <__divsf3+0x16>
    140c:	5f 3f       	cpi	r21, 0xFF	; 255
    140e:	19 f0       	breq	.+6      	; 0x1416 <__divsf3+0x18>
    1410:	cc c0       	rjmp	.+408    	; 0x15aa <__fp_inf>
    1412:	51 11       	cpse	r21, r1
    1414:	15 c1       	rjmp	.+554    	; 0x1640 <__fp_szero>
    1416:	cf c0       	rjmp	.+414    	; 0x15b6 <__fp_nan>

00001418 <__divsf3x>:
    1418:	f0 d0       	rcall	.+480    	; 0x15fa <__fp_split3>
    141a:	98 f3       	brcs	.-26     	; 0x1402 <__divsf3+0x4>

0000141c <__divsf3_pse>:
    141c:	99 23       	and	r25, r25
    141e:	c9 f3       	breq	.-14     	; 0x1412 <__divsf3+0x14>
    1420:	55 23       	and	r21, r21
    1422:	b1 f3       	breq	.-20     	; 0x1410 <__divsf3+0x12>
    1424:	95 1b       	sub	r25, r21
    1426:	55 0b       	sbc	r21, r21
    1428:	bb 27       	eor	r27, r27
    142a:	aa 27       	eor	r26, r26
    142c:	62 17       	cp	r22, r18
    142e:	73 07       	cpc	r23, r19
    1430:	84 07       	cpc	r24, r20
    1432:	38 f0       	brcs	.+14     	; 0x1442 <__divsf3_pse+0x26>
    1434:	9f 5f       	subi	r25, 0xFF	; 255
    1436:	5f 4f       	sbci	r21, 0xFF	; 255
    1438:	22 0f       	add	r18, r18
    143a:	33 1f       	adc	r19, r19
    143c:	44 1f       	adc	r20, r20
    143e:	aa 1f       	adc	r26, r26
    1440:	a9 f3       	breq	.-22     	; 0x142c <__divsf3_pse+0x10>
    1442:	33 d0       	rcall	.+102    	; 0x14aa <__divsf3_pse+0x8e>
    1444:	0e 2e       	mov	r0, r30
    1446:	3a f0       	brmi	.+14     	; 0x1456 <__divsf3_pse+0x3a>
    1448:	e0 e8       	ldi	r30, 0x80	; 128
    144a:	30 d0       	rcall	.+96     	; 0x14ac <__divsf3_pse+0x90>
    144c:	91 50       	subi	r25, 0x01	; 1
    144e:	50 40       	sbci	r21, 0x00	; 0
    1450:	e6 95       	lsr	r30
    1452:	00 1c       	adc	r0, r0
    1454:	ca f7       	brpl	.-14     	; 0x1448 <__divsf3_pse+0x2c>
    1456:	29 d0       	rcall	.+82     	; 0x14aa <__divsf3_pse+0x8e>
    1458:	fe 2f       	mov	r31, r30
    145a:	27 d0       	rcall	.+78     	; 0x14aa <__divsf3_pse+0x8e>
    145c:	66 0f       	add	r22, r22
    145e:	77 1f       	adc	r23, r23
    1460:	88 1f       	adc	r24, r24
    1462:	bb 1f       	adc	r27, r27
    1464:	26 17       	cp	r18, r22
    1466:	37 07       	cpc	r19, r23
    1468:	48 07       	cpc	r20, r24
    146a:	ab 07       	cpc	r26, r27
    146c:	b0 e8       	ldi	r27, 0x80	; 128
    146e:	09 f0       	breq	.+2      	; 0x1472 <__divsf3_pse+0x56>
    1470:	bb 0b       	sbc	r27, r27
    1472:	80 2d       	mov	r24, r0
    1474:	bf 01       	movw	r22, r30
    1476:	ff 27       	eor	r31, r31
    1478:	93 58       	subi	r25, 0x83	; 131
    147a:	5f 4f       	sbci	r21, 0xFF	; 255
    147c:	2a f0       	brmi	.+10     	; 0x1488 <__divsf3_pse+0x6c>
    147e:	9e 3f       	cpi	r25, 0xFE	; 254
    1480:	51 05       	cpc	r21, r1
    1482:	68 f0       	brcs	.+26     	; 0x149e <__divsf3_pse+0x82>
    1484:	92 c0       	rjmp	.+292    	; 0x15aa <__fp_inf>
    1486:	dc c0       	rjmp	.+440    	; 0x1640 <__fp_szero>
    1488:	5f 3f       	cpi	r21, 0xFF	; 255
    148a:	ec f3       	brlt	.-6      	; 0x1486 <__divsf3_pse+0x6a>
    148c:	98 3e       	cpi	r25, 0xE8	; 232
    148e:	dc f3       	brlt	.-10     	; 0x1486 <__divsf3_pse+0x6a>
    1490:	86 95       	lsr	r24
    1492:	77 95       	ror	r23
    1494:	67 95       	ror	r22
    1496:	b7 95       	ror	r27
    1498:	f7 95       	ror	r31
    149a:	9f 5f       	subi	r25, 0xFF	; 255
    149c:	c9 f7       	brne	.-14     	; 0x1490 <__divsf3_pse+0x74>
    149e:	88 0f       	add	r24, r24
    14a0:	91 1d       	adc	r25, r1
    14a2:	96 95       	lsr	r25
    14a4:	87 95       	ror	r24
    14a6:	97 f9       	bld	r25, 7
    14a8:	08 95       	ret
    14aa:	e1 e0       	ldi	r30, 0x01	; 1
    14ac:	66 0f       	add	r22, r22
    14ae:	77 1f       	adc	r23, r23
    14b0:	88 1f       	adc	r24, r24
    14b2:	bb 1f       	adc	r27, r27
    14b4:	62 17       	cp	r22, r18
    14b6:	73 07       	cpc	r23, r19
    14b8:	84 07       	cpc	r24, r20
    14ba:	ba 07       	cpc	r27, r26
    14bc:	20 f0       	brcs	.+8      	; 0x14c6 <__divsf3_pse+0xaa>
    14be:	62 1b       	sub	r22, r18
    14c0:	73 0b       	sbc	r23, r19
    14c2:	84 0b       	sbc	r24, r20
    14c4:	ba 0b       	sbc	r27, r26
    14c6:	ee 1f       	adc	r30, r30
    14c8:	88 f7       	brcc	.-30     	; 0x14ac <__divsf3_pse+0x90>
    14ca:	e0 95       	com	r30
    14cc:	08 95       	ret

000014ce <__fixsfsi>:
    14ce:	04 d0       	rcall	.+8      	; 0x14d8 <__fixunssfsi>
    14d0:	68 94       	set
    14d2:	b1 11       	cpse	r27, r1
    14d4:	b5 c0       	rjmp	.+362    	; 0x1640 <__fp_szero>
    14d6:	08 95       	ret

000014d8 <__fixunssfsi>:
    14d8:	98 d0       	rcall	.+304    	; 0x160a <__fp_splitA>
    14da:	88 f0       	brcs	.+34     	; 0x14fe <__fixunssfsi+0x26>
    14dc:	9f 57       	subi	r25, 0x7F	; 127
    14de:	90 f0       	brcs	.+36     	; 0x1504 <__fixunssfsi+0x2c>
    14e0:	b9 2f       	mov	r27, r25
    14e2:	99 27       	eor	r25, r25
    14e4:	b7 51       	subi	r27, 0x17	; 23
    14e6:	a0 f0       	brcs	.+40     	; 0x1510 <__fixunssfsi+0x38>
    14e8:	d1 f0       	breq	.+52     	; 0x151e <__fixunssfsi+0x46>
    14ea:	66 0f       	add	r22, r22
    14ec:	77 1f       	adc	r23, r23
    14ee:	88 1f       	adc	r24, r24
    14f0:	99 1f       	adc	r25, r25
    14f2:	1a f0       	brmi	.+6      	; 0x14fa <__fixunssfsi+0x22>
    14f4:	ba 95       	dec	r27
    14f6:	c9 f7       	brne	.-14     	; 0x14ea <__fixunssfsi+0x12>
    14f8:	12 c0       	rjmp	.+36     	; 0x151e <__fixunssfsi+0x46>
    14fa:	b1 30       	cpi	r27, 0x01	; 1
    14fc:	81 f0       	breq	.+32     	; 0x151e <__fixunssfsi+0x46>
    14fe:	9f d0       	rcall	.+318    	; 0x163e <__fp_zero>
    1500:	b1 e0       	ldi	r27, 0x01	; 1
    1502:	08 95       	ret
    1504:	9c c0       	rjmp	.+312    	; 0x163e <__fp_zero>
    1506:	67 2f       	mov	r22, r23
    1508:	78 2f       	mov	r23, r24
    150a:	88 27       	eor	r24, r24
    150c:	b8 5f       	subi	r27, 0xF8	; 248
    150e:	39 f0       	breq	.+14     	; 0x151e <__fixunssfsi+0x46>
    1510:	b9 3f       	cpi	r27, 0xF9	; 249
    1512:	cc f3       	brlt	.-14     	; 0x1506 <__fixunssfsi+0x2e>
    1514:	86 95       	lsr	r24
    1516:	77 95       	ror	r23
    1518:	67 95       	ror	r22
    151a:	b3 95       	inc	r27
    151c:	d9 f7       	brne	.-10     	; 0x1514 <__fixunssfsi+0x3c>
    151e:	3e f4       	brtc	.+14     	; 0x152e <__fixunssfsi+0x56>
    1520:	90 95       	com	r25
    1522:	80 95       	com	r24
    1524:	70 95       	com	r23
    1526:	61 95       	neg	r22
    1528:	7f 4f       	sbci	r23, 0xFF	; 255
    152a:	8f 4f       	sbci	r24, 0xFF	; 255
    152c:	9f 4f       	sbci	r25, 0xFF	; 255
    152e:	08 95       	ret

00001530 <__floatunsisf>:
    1530:	e8 94       	clt
    1532:	09 c0       	rjmp	.+18     	; 0x1546 <__floatsisf+0x12>

00001534 <__floatsisf>:
    1534:	97 fb       	bst	r25, 7
    1536:	3e f4       	brtc	.+14     	; 0x1546 <__floatsisf+0x12>
    1538:	90 95       	com	r25
    153a:	80 95       	com	r24
    153c:	70 95       	com	r23
    153e:	61 95       	neg	r22
    1540:	7f 4f       	sbci	r23, 0xFF	; 255
    1542:	8f 4f       	sbci	r24, 0xFF	; 255
    1544:	9f 4f       	sbci	r25, 0xFF	; 255
    1546:	99 23       	and	r25, r25
    1548:	a9 f0       	breq	.+42     	; 0x1574 <__floatsisf+0x40>
    154a:	f9 2f       	mov	r31, r25
    154c:	96 e9       	ldi	r25, 0x96	; 150
    154e:	bb 27       	eor	r27, r27
    1550:	93 95       	inc	r25
    1552:	f6 95       	lsr	r31
    1554:	87 95       	ror	r24
    1556:	77 95       	ror	r23
    1558:	67 95       	ror	r22
    155a:	b7 95       	ror	r27
    155c:	f1 11       	cpse	r31, r1
    155e:	f8 cf       	rjmp	.-16     	; 0x1550 <__floatsisf+0x1c>
    1560:	fa f4       	brpl	.+62     	; 0x15a0 <__floatsisf+0x6c>
    1562:	bb 0f       	add	r27, r27
    1564:	11 f4       	brne	.+4      	; 0x156a <__floatsisf+0x36>
    1566:	60 ff       	sbrs	r22, 0
    1568:	1b c0       	rjmp	.+54     	; 0x15a0 <__floatsisf+0x6c>
    156a:	6f 5f       	subi	r22, 0xFF	; 255
    156c:	7f 4f       	sbci	r23, 0xFF	; 255
    156e:	8f 4f       	sbci	r24, 0xFF	; 255
    1570:	9f 4f       	sbci	r25, 0xFF	; 255
    1572:	16 c0       	rjmp	.+44     	; 0x15a0 <__floatsisf+0x6c>
    1574:	88 23       	and	r24, r24
    1576:	11 f0       	breq	.+4      	; 0x157c <__floatsisf+0x48>
    1578:	96 e9       	ldi	r25, 0x96	; 150
    157a:	11 c0       	rjmp	.+34     	; 0x159e <__floatsisf+0x6a>
    157c:	77 23       	and	r23, r23
    157e:	21 f0       	breq	.+8      	; 0x1588 <__floatsisf+0x54>
    1580:	9e e8       	ldi	r25, 0x8E	; 142
    1582:	87 2f       	mov	r24, r23
    1584:	76 2f       	mov	r23, r22
    1586:	05 c0       	rjmp	.+10     	; 0x1592 <__floatsisf+0x5e>
    1588:	66 23       	and	r22, r22
    158a:	71 f0       	breq	.+28     	; 0x15a8 <__floatsisf+0x74>
    158c:	96 e8       	ldi	r25, 0x86	; 134
    158e:	86 2f       	mov	r24, r22
    1590:	70 e0       	ldi	r23, 0x00	; 0
    1592:	60 e0       	ldi	r22, 0x00	; 0
    1594:	2a f0       	brmi	.+10     	; 0x15a0 <__floatsisf+0x6c>
    1596:	9a 95       	dec	r25
    1598:	66 0f       	add	r22, r22
    159a:	77 1f       	adc	r23, r23
    159c:	88 1f       	adc	r24, r24
    159e:	da f7       	brpl	.-10     	; 0x1596 <__floatsisf+0x62>
    15a0:	88 0f       	add	r24, r24
    15a2:	96 95       	lsr	r25
    15a4:	87 95       	ror	r24
    15a6:	97 f9       	bld	r25, 7
    15a8:	08 95       	ret

000015aa <__fp_inf>:
    15aa:	97 f9       	bld	r25, 7
    15ac:	9f 67       	ori	r25, 0x7F	; 127
    15ae:	80 e8       	ldi	r24, 0x80	; 128
    15b0:	70 e0       	ldi	r23, 0x00	; 0
    15b2:	60 e0       	ldi	r22, 0x00	; 0
    15b4:	08 95       	ret

000015b6 <__fp_nan>:
    15b6:	9f ef       	ldi	r25, 0xFF	; 255
    15b8:	80 ec       	ldi	r24, 0xC0	; 192
    15ba:	08 95       	ret

000015bc <__fp_pscA>:
    15bc:	00 24       	eor	r0, r0
    15be:	0a 94       	dec	r0
    15c0:	16 16       	cp	r1, r22
    15c2:	17 06       	cpc	r1, r23
    15c4:	18 06       	cpc	r1, r24
    15c6:	09 06       	cpc	r0, r25
    15c8:	08 95       	ret

000015ca <__fp_pscB>:
    15ca:	00 24       	eor	r0, r0
    15cc:	0a 94       	dec	r0
    15ce:	12 16       	cp	r1, r18
    15d0:	13 06       	cpc	r1, r19
    15d2:	14 06       	cpc	r1, r20
    15d4:	05 06       	cpc	r0, r21
    15d6:	08 95       	ret

000015d8 <__fp_round>:
    15d8:	09 2e       	mov	r0, r25
    15da:	03 94       	inc	r0
    15dc:	00 0c       	add	r0, r0
    15de:	11 f4       	brne	.+4      	; 0x15e4 <__fp_round+0xc>
    15e0:	88 23       	and	r24, r24
    15e2:	52 f0       	brmi	.+20     	; 0x15f8 <__fp_round+0x20>
    15e4:	bb 0f       	add	r27, r27
    15e6:	40 f4       	brcc	.+16     	; 0x15f8 <__fp_round+0x20>
    15e8:	bf 2b       	or	r27, r31
    15ea:	11 f4       	brne	.+4      	; 0x15f0 <__fp_round+0x18>
    15ec:	60 ff       	sbrs	r22, 0
    15ee:	04 c0       	rjmp	.+8      	; 0x15f8 <__fp_round+0x20>
    15f0:	6f 5f       	subi	r22, 0xFF	; 255
    15f2:	7f 4f       	sbci	r23, 0xFF	; 255
    15f4:	8f 4f       	sbci	r24, 0xFF	; 255
    15f6:	9f 4f       	sbci	r25, 0xFF	; 255
    15f8:	08 95       	ret

000015fa <__fp_split3>:
    15fa:	57 fd       	sbrc	r21, 7
    15fc:	90 58       	subi	r25, 0x80	; 128
    15fe:	44 0f       	add	r20, r20
    1600:	55 1f       	adc	r21, r21
    1602:	59 f0       	breq	.+22     	; 0x161a <__fp_splitA+0x10>
    1604:	5f 3f       	cpi	r21, 0xFF	; 255
    1606:	71 f0       	breq	.+28     	; 0x1624 <__fp_splitA+0x1a>
    1608:	47 95       	ror	r20

0000160a <__fp_splitA>:
    160a:	88 0f       	add	r24, r24
    160c:	97 fb       	bst	r25, 7
    160e:	99 1f       	adc	r25, r25
    1610:	61 f0       	breq	.+24     	; 0x162a <__fp_splitA+0x20>
    1612:	9f 3f       	cpi	r25, 0xFF	; 255
    1614:	79 f0       	breq	.+30     	; 0x1634 <__fp_splitA+0x2a>
    1616:	87 95       	ror	r24
    1618:	08 95       	ret
    161a:	12 16       	cp	r1, r18
    161c:	13 06       	cpc	r1, r19
    161e:	14 06       	cpc	r1, r20
    1620:	55 1f       	adc	r21, r21
    1622:	f2 cf       	rjmp	.-28     	; 0x1608 <__fp_split3+0xe>
    1624:	46 95       	lsr	r20
    1626:	f1 df       	rcall	.-30     	; 0x160a <__fp_splitA>
    1628:	08 c0       	rjmp	.+16     	; 0x163a <__fp_splitA+0x30>
    162a:	16 16       	cp	r1, r22
    162c:	17 06       	cpc	r1, r23
    162e:	18 06       	cpc	r1, r24
    1630:	99 1f       	adc	r25, r25
    1632:	f1 cf       	rjmp	.-30     	; 0x1616 <__fp_splitA+0xc>
    1634:	86 95       	lsr	r24
    1636:	71 05       	cpc	r23, r1
    1638:	61 05       	cpc	r22, r1
    163a:	08 94       	sec
    163c:	08 95       	ret

0000163e <__fp_zero>:
    163e:	e8 94       	clt

00001640 <__fp_szero>:
    1640:	bb 27       	eor	r27, r27
    1642:	66 27       	eor	r22, r22
    1644:	77 27       	eor	r23, r23
    1646:	cb 01       	movw	r24, r22
    1648:	97 f9       	bld	r25, 7
    164a:	08 95       	ret

0000164c <__mulsf3>:
    164c:	0b d0       	rcall	.+22     	; 0x1664 <__mulsf3x>
    164e:	c4 cf       	rjmp	.-120    	; 0x15d8 <__fp_round>
    1650:	b5 df       	rcall	.-150    	; 0x15bc <__fp_pscA>
    1652:	28 f0       	brcs	.+10     	; 0x165e <__mulsf3+0x12>
    1654:	ba df       	rcall	.-140    	; 0x15ca <__fp_pscB>
    1656:	18 f0       	brcs	.+6      	; 0x165e <__mulsf3+0x12>
    1658:	95 23       	and	r25, r21
    165a:	09 f0       	breq	.+2      	; 0x165e <__mulsf3+0x12>
    165c:	a6 cf       	rjmp	.-180    	; 0x15aa <__fp_inf>
    165e:	ab cf       	rjmp	.-170    	; 0x15b6 <__fp_nan>
    1660:	11 24       	eor	r1, r1
    1662:	ee cf       	rjmp	.-36     	; 0x1640 <__fp_szero>

00001664 <__mulsf3x>:
    1664:	ca df       	rcall	.-108    	; 0x15fa <__fp_split3>
    1666:	a0 f3       	brcs	.-24     	; 0x1650 <__mulsf3+0x4>

00001668 <__mulsf3_pse>:
    1668:	95 9f       	mul	r25, r21
    166a:	d1 f3       	breq	.-12     	; 0x1660 <__mulsf3+0x14>
    166c:	95 0f       	add	r25, r21
    166e:	50 e0       	ldi	r21, 0x00	; 0
    1670:	55 1f       	adc	r21, r21
    1672:	62 9f       	mul	r22, r18
    1674:	f0 01       	movw	r30, r0
    1676:	72 9f       	mul	r23, r18
    1678:	bb 27       	eor	r27, r27
    167a:	f0 0d       	add	r31, r0
    167c:	b1 1d       	adc	r27, r1
    167e:	63 9f       	mul	r22, r19
    1680:	aa 27       	eor	r26, r26
    1682:	f0 0d       	add	r31, r0
    1684:	b1 1d       	adc	r27, r1
    1686:	aa 1f       	adc	r26, r26
    1688:	64 9f       	mul	r22, r20
    168a:	66 27       	eor	r22, r22
    168c:	b0 0d       	add	r27, r0
    168e:	a1 1d       	adc	r26, r1
    1690:	66 1f       	adc	r22, r22
    1692:	82 9f       	mul	r24, r18
    1694:	22 27       	eor	r18, r18
    1696:	b0 0d       	add	r27, r0
    1698:	a1 1d       	adc	r26, r1
    169a:	62 1f       	adc	r22, r18
    169c:	73 9f       	mul	r23, r19
    169e:	b0 0d       	add	r27, r0
    16a0:	a1 1d       	adc	r26, r1
    16a2:	62 1f       	adc	r22, r18
    16a4:	83 9f       	mul	r24, r19
    16a6:	a0 0d       	add	r26, r0
    16a8:	61 1d       	adc	r22, r1
    16aa:	22 1f       	adc	r18, r18
    16ac:	74 9f       	mul	r23, r20
    16ae:	33 27       	eor	r19, r19
    16b0:	a0 0d       	add	r26, r0
    16b2:	61 1d       	adc	r22, r1
    16b4:	23 1f       	adc	r18, r19
    16b6:	84 9f       	mul	r24, r20
    16b8:	60 0d       	add	r22, r0
    16ba:	21 1d       	adc	r18, r1
    16bc:	82 2f       	mov	r24, r18
    16be:	76 2f       	mov	r23, r22
    16c0:	6a 2f       	mov	r22, r26
    16c2:	11 24       	eor	r1, r1
    16c4:	9f 57       	subi	r25, 0x7F	; 127
    16c6:	50 40       	sbci	r21, 0x00	; 0
    16c8:	8a f0       	brmi	.+34     	; 0x16ec <__mulsf3_pse+0x84>
    16ca:	e1 f0       	breq	.+56     	; 0x1704 <__mulsf3_pse+0x9c>
    16cc:	88 23       	and	r24, r24
    16ce:	4a f0       	brmi	.+18     	; 0x16e2 <__mulsf3_pse+0x7a>
    16d0:	ee 0f       	add	r30, r30
    16d2:	ff 1f       	adc	r31, r31
    16d4:	bb 1f       	adc	r27, r27
    16d6:	66 1f       	adc	r22, r22
    16d8:	77 1f       	adc	r23, r23
    16da:	88 1f       	adc	r24, r24
    16dc:	91 50       	subi	r25, 0x01	; 1
    16de:	50 40       	sbci	r21, 0x00	; 0
    16e0:	a9 f7       	brne	.-22     	; 0x16cc <__mulsf3_pse+0x64>
    16e2:	9e 3f       	cpi	r25, 0xFE	; 254
    16e4:	51 05       	cpc	r21, r1
    16e6:	70 f0       	brcs	.+28     	; 0x1704 <__mulsf3_pse+0x9c>
    16e8:	60 cf       	rjmp	.-320    	; 0x15aa <__fp_inf>
    16ea:	aa cf       	rjmp	.-172    	; 0x1640 <__fp_szero>
    16ec:	5f 3f       	cpi	r21, 0xFF	; 255
    16ee:	ec f3       	brlt	.-6      	; 0x16ea <__mulsf3_pse+0x82>
    16f0:	98 3e       	cpi	r25, 0xE8	; 232
    16f2:	dc f3       	brlt	.-10     	; 0x16ea <__mulsf3_pse+0x82>
    16f4:	86 95       	lsr	r24
    16f6:	77 95       	ror	r23
    16f8:	67 95       	ror	r22
    16fa:	b7 95       	ror	r27
    16fc:	f7 95       	ror	r31
    16fe:	e7 95       	ror	r30
    1700:	9f 5f       	subi	r25, 0xFF	; 255
    1702:	c1 f7       	brne	.-16     	; 0x16f4 <__mulsf3_pse+0x8c>
    1704:	fe 2b       	or	r31, r30
    1706:	88 0f       	add	r24, r24
    1708:	91 1d       	adc	r25, r1
    170a:	96 95       	lsr	r25
    170c:	87 95       	ror	r24
    170e:	97 f9       	bld	r25, 7
    1710:	08 95       	ret

00001712 <pow>:
    1712:	fa 01       	movw	r30, r20
    1714:	ee 0f       	add	r30, r30
    1716:	ff 1f       	adc	r31, r31
    1718:	30 96       	adiw	r30, 0x00	; 0
    171a:	21 05       	cpc	r18, r1
    171c:	31 05       	cpc	r19, r1
    171e:	99 f1       	breq	.+102    	; 0x1786 <pow+0x74>
    1720:	61 15       	cp	r22, r1
    1722:	71 05       	cpc	r23, r1
    1724:	61 f4       	brne	.+24     	; 0x173e <pow+0x2c>
    1726:	80 38       	cpi	r24, 0x80	; 128
    1728:	bf e3       	ldi	r27, 0x3F	; 63
    172a:	9b 07       	cpc	r25, r27
    172c:	49 f1       	breq	.+82     	; 0x1780 <pow+0x6e>
    172e:	68 94       	set
    1730:	90 38       	cpi	r25, 0x80	; 128
    1732:	81 05       	cpc	r24, r1
    1734:	61 f0       	breq	.+24     	; 0x174e <pow+0x3c>
    1736:	80 38       	cpi	r24, 0x80	; 128
    1738:	bf ef       	ldi	r27, 0xFF	; 255
    173a:	9b 07       	cpc	r25, r27
    173c:	41 f0       	breq	.+16     	; 0x174e <pow+0x3c>
    173e:	99 23       	and	r25, r25
    1740:	42 f5       	brpl	.+80     	; 0x1792 <pow+0x80>
    1742:	ff 3f       	cpi	r31, 0xFF	; 255
    1744:	e1 05       	cpc	r30, r1
    1746:	31 05       	cpc	r19, r1
    1748:	21 05       	cpc	r18, r1
    174a:	11 f1       	breq	.+68     	; 0x1790 <pow+0x7e>
    174c:	e8 94       	clt
    174e:	08 94       	sec
    1750:	e7 95       	ror	r30
    1752:	d9 01       	movw	r26, r18
    1754:	aa 23       	and	r26, r26
    1756:	29 f4       	brne	.+10     	; 0x1762 <pow+0x50>
    1758:	ab 2f       	mov	r26, r27
    175a:	be 2f       	mov	r27, r30
    175c:	f8 5f       	subi	r31, 0xF8	; 248
    175e:	d0 f3       	brcs	.-12     	; 0x1754 <pow+0x42>
    1760:	10 c0       	rjmp	.+32     	; 0x1782 <pow+0x70>
    1762:	ff 5f       	subi	r31, 0xFF	; 255
    1764:	70 f4       	brcc	.+28     	; 0x1782 <pow+0x70>
    1766:	a6 95       	lsr	r26
    1768:	e0 f7       	brcc	.-8      	; 0x1762 <pow+0x50>
    176a:	f7 39       	cpi	r31, 0x97	; 151
    176c:	50 f0       	brcs	.+20     	; 0x1782 <pow+0x70>
    176e:	19 f0       	breq	.+6      	; 0x1776 <pow+0x64>
    1770:	ff 3a       	cpi	r31, 0xAF	; 175
    1772:	38 f4       	brcc	.+14     	; 0x1782 <pow+0x70>
    1774:	9f 77       	andi	r25, 0x7F	; 127
    1776:	9f 93       	push	r25
    1778:	0c d0       	rcall	.+24     	; 0x1792 <pow+0x80>
    177a:	0f 90       	pop	r0
    177c:	07 fc       	sbrc	r0, 7
    177e:	90 58       	subi	r25, 0x80	; 128
    1780:	08 95       	ret
    1782:	3e f0       	brts	.+14     	; 0x1792 <pow+0x80>
    1784:	18 cf       	rjmp	.-464    	; 0x15b6 <__fp_nan>
    1786:	60 e0       	ldi	r22, 0x00	; 0
    1788:	70 e0       	ldi	r23, 0x00	; 0
    178a:	80 e8       	ldi	r24, 0x80	; 128
    178c:	9f e3       	ldi	r25, 0x3F	; 63
    178e:	08 95       	ret
    1790:	4f e7       	ldi	r20, 0x7F	; 127
    1792:	9f 77       	andi	r25, 0x7F	; 127
    1794:	5f 93       	push	r21
    1796:	4f 93       	push	r20
    1798:	3f 93       	push	r19
    179a:	2f 93       	push	r18
    179c:	9e d0       	rcall	.+316    	; 0x18da <log>
    179e:	2f 91       	pop	r18
    17a0:	3f 91       	pop	r19
    17a2:	4f 91       	pop	r20
    17a4:	5f 91       	pop	r21
    17a6:	52 df       	rcall	.-348    	; 0x164c <__mulsf3>
    17a8:	05 c0       	rjmp	.+10     	; 0x17b4 <exp>
    17aa:	19 f4       	brne	.+6      	; 0x17b2 <pow+0xa0>
    17ac:	0e f0       	brts	.+2      	; 0x17b0 <pow+0x9e>
    17ae:	fd ce       	rjmp	.-518    	; 0x15aa <__fp_inf>
    17b0:	46 cf       	rjmp	.-372    	; 0x163e <__fp_zero>
    17b2:	01 cf       	rjmp	.-510    	; 0x15b6 <__fp_nan>

000017b4 <exp>:
    17b4:	2a df       	rcall	.-428    	; 0x160a <__fp_splitA>
    17b6:	c8 f3       	brcs	.-14     	; 0x17aa <pow+0x98>
    17b8:	96 38       	cpi	r25, 0x86	; 134
    17ba:	c0 f7       	brcc	.-16     	; 0x17ac <pow+0x9a>
    17bc:	07 f8       	bld	r0, 7
    17be:	0f 92       	push	r0
    17c0:	e8 94       	clt
    17c2:	2b e3       	ldi	r18, 0x3B	; 59
    17c4:	3a ea       	ldi	r19, 0xAA	; 170
    17c6:	48 eb       	ldi	r20, 0xB8	; 184
    17c8:	5f e7       	ldi	r21, 0x7F	; 127
    17ca:	4e df       	rcall	.-356    	; 0x1668 <__mulsf3_pse>
    17cc:	0f 92       	push	r0
    17ce:	0f 92       	push	r0
    17d0:	0f 92       	push	r0
    17d2:	4d b7       	in	r20, 0x3d	; 61
    17d4:	5e b7       	in	r21, 0x3e	; 62
    17d6:	0f 92       	push	r0
    17d8:	c0 d0       	rcall	.+384    	; 0x195a <modf>
    17da:	e8 e4       	ldi	r30, 0x48	; 72
    17dc:	f0 e0       	ldi	r31, 0x00	; 0
    17de:	16 d0       	rcall	.+44     	; 0x180c <__fp_powser>
    17e0:	4f 91       	pop	r20
    17e2:	5f 91       	pop	r21
    17e4:	ef 91       	pop	r30
    17e6:	ff 91       	pop	r31
    17e8:	e5 95       	asr	r30
    17ea:	ee 1f       	adc	r30, r30
    17ec:	ff 1f       	adc	r31, r31
    17ee:	49 f0       	breq	.+18     	; 0x1802 <exp+0x4e>
    17f0:	fe 57       	subi	r31, 0x7E	; 126
    17f2:	e0 68       	ori	r30, 0x80	; 128
    17f4:	44 27       	eor	r20, r20
    17f6:	ee 0f       	add	r30, r30
    17f8:	44 1f       	adc	r20, r20
    17fa:	fa 95       	dec	r31
    17fc:	e1 f7       	brne	.-8      	; 0x17f6 <exp+0x42>
    17fe:	41 95       	neg	r20
    1800:	55 0b       	sbc	r21, r21
    1802:	32 d0       	rcall	.+100    	; 0x1868 <ldexp>
    1804:	0f 90       	pop	r0
    1806:	07 fe       	sbrs	r0, 7
    1808:	26 c0       	rjmp	.+76     	; 0x1856 <inverse>
    180a:	08 95       	ret

0000180c <__fp_powser>:
    180c:	df 93       	push	r29
    180e:	cf 93       	push	r28
    1810:	1f 93       	push	r17
    1812:	0f 93       	push	r16
    1814:	ff 92       	push	r15
    1816:	ef 92       	push	r14
    1818:	df 92       	push	r13
    181a:	7b 01       	movw	r14, r22
    181c:	8c 01       	movw	r16, r24
    181e:	68 94       	set
    1820:	05 c0       	rjmp	.+10     	; 0x182c <__fp_powser+0x20>
    1822:	da 2e       	mov	r13, r26
    1824:	ef 01       	movw	r28, r30
    1826:	1e df       	rcall	.-452    	; 0x1664 <__mulsf3x>
    1828:	fe 01       	movw	r30, r28
    182a:	e8 94       	clt
    182c:	a5 91       	lpm	r26, Z+
    182e:	25 91       	lpm	r18, Z+
    1830:	35 91       	lpm	r19, Z+
    1832:	45 91       	lpm	r20, Z+
    1834:	55 91       	lpm	r21, Z+
    1836:	ae f3       	brts	.-22     	; 0x1822 <__fp_powser+0x16>
    1838:	ef 01       	movw	r28, r30
    183a:	8e dd       	rcall	.-1252   	; 0x1358 <__addsf3x>
    183c:	fe 01       	movw	r30, r28
    183e:	97 01       	movw	r18, r14
    1840:	a8 01       	movw	r20, r16
    1842:	da 94       	dec	r13
    1844:	79 f7       	brne	.-34     	; 0x1824 <__fp_powser+0x18>
    1846:	df 90       	pop	r13
    1848:	ef 90       	pop	r14
    184a:	ff 90       	pop	r15
    184c:	0f 91       	pop	r16
    184e:	1f 91       	pop	r17
    1850:	cf 91       	pop	r28
    1852:	df 91       	pop	r29
    1854:	08 95       	ret

00001856 <inverse>:
    1856:	9b 01       	movw	r18, r22
    1858:	ac 01       	movw	r20, r24
    185a:	60 e0       	ldi	r22, 0x00	; 0
    185c:	70 e0       	ldi	r23, 0x00	; 0
    185e:	80 e8       	ldi	r24, 0x80	; 128
    1860:	9f e3       	ldi	r25, 0x3F	; 63
    1862:	cd cd       	rjmp	.-1126   	; 0x13fe <__divsf3>
    1864:	a2 ce       	rjmp	.-700    	; 0x15aa <__fp_inf>
    1866:	ac c0       	rjmp	.+344    	; 0x19c0 <__fp_mpack>

00001868 <ldexp>:
    1868:	d0 de       	rcall	.-608    	; 0x160a <__fp_splitA>
    186a:	e8 f3       	brcs	.-6      	; 0x1866 <inverse+0x10>
    186c:	99 23       	and	r25, r25
    186e:	d9 f3       	breq	.-10     	; 0x1866 <inverse+0x10>
    1870:	94 0f       	add	r25, r20
    1872:	51 1d       	adc	r21, r1
    1874:	bb f3       	brvs	.-18     	; 0x1864 <inverse+0xe>
    1876:	91 50       	subi	r25, 0x01	; 1
    1878:	50 40       	sbci	r21, 0x00	; 0
    187a:	94 f0       	brlt	.+36     	; 0x18a0 <ldexp+0x38>
    187c:	59 f0       	breq	.+22     	; 0x1894 <ldexp+0x2c>
    187e:	88 23       	and	r24, r24
    1880:	32 f0       	brmi	.+12     	; 0x188e <ldexp+0x26>
    1882:	66 0f       	add	r22, r22
    1884:	77 1f       	adc	r23, r23
    1886:	88 1f       	adc	r24, r24
    1888:	91 50       	subi	r25, 0x01	; 1
    188a:	50 40       	sbci	r21, 0x00	; 0
    188c:	c1 f7       	brne	.-16     	; 0x187e <ldexp+0x16>
    188e:	9e 3f       	cpi	r25, 0xFE	; 254
    1890:	51 05       	cpc	r21, r1
    1892:	44 f7       	brge	.-48     	; 0x1864 <inverse+0xe>
    1894:	88 0f       	add	r24, r24
    1896:	91 1d       	adc	r25, r1
    1898:	96 95       	lsr	r25
    189a:	87 95       	ror	r24
    189c:	97 f9       	bld	r25, 7
    189e:	08 95       	ret
    18a0:	5f 3f       	cpi	r21, 0xFF	; 255
    18a2:	ac f0       	brlt	.+42     	; 0x18ce <ldexp+0x66>
    18a4:	98 3e       	cpi	r25, 0xE8	; 232
    18a6:	9c f0       	brlt	.+38     	; 0x18ce <ldexp+0x66>
    18a8:	bb 27       	eor	r27, r27
    18aa:	86 95       	lsr	r24
    18ac:	77 95       	ror	r23
    18ae:	67 95       	ror	r22
    18b0:	b7 95       	ror	r27
    18b2:	08 f4       	brcc	.+2      	; 0x18b6 <ldexp+0x4e>
    18b4:	b1 60       	ori	r27, 0x01	; 1
    18b6:	93 95       	inc	r25
    18b8:	c1 f7       	brne	.-16     	; 0x18aa <ldexp+0x42>
    18ba:	bb 0f       	add	r27, r27
    18bc:	58 f7       	brcc	.-42     	; 0x1894 <ldexp+0x2c>
    18be:	11 f4       	brne	.+4      	; 0x18c4 <ldexp+0x5c>
    18c0:	60 ff       	sbrs	r22, 0
    18c2:	e8 cf       	rjmp	.-48     	; 0x1894 <ldexp+0x2c>
    18c4:	6f 5f       	subi	r22, 0xFF	; 255
    18c6:	7f 4f       	sbci	r23, 0xFF	; 255
    18c8:	8f 4f       	sbci	r24, 0xFF	; 255
    18ca:	9f 4f       	sbci	r25, 0xFF	; 255
    18cc:	e3 cf       	rjmp	.-58     	; 0x1894 <ldexp+0x2c>
    18ce:	b8 ce       	rjmp	.-656    	; 0x1640 <__fp_szero>
    18d0:	0e f0       	brts	.+2      	; 0x18d4 <ldexp+0x6c>
    18d2:	76 c0       	rjmp	.+236    	; 0x19c0 <__fp_mpack>
    18d4:	70 ce       	rjmp	.-800    	; 0x15b6 <__fp_nan>
    18d6:	68 94       	set
    18d8:	68 ce       	rjmp	.-816    	; 0x15aa <__fp_inf>

000018da <log>:
    18da:	97 de       	rcall	.-722    	; 0x160a <__fp_splitA>
    18dc:	c8 f3       	brcs	.-14     	; 0x18d0 <ldexp+0x68>
    18de:	99 23       	and	r25, r25
    18e0:	d1 f3       	breq	.-12     	; 0x18d6 <ldexp+0x6e>
    18e2:	c6 f3       	brts	.-16     	; 0x18d4 <ldexp+0x6c>
    18e4:	df 93       	push	r29
    18e6:	cf 93       	push	r28
    18e8:	1f 93       	push	r17
    18ea:	0f 93       	push	r16
    18ec:	ff 92       	push	r15
    18ee:	c9 2f       	mov	r28, r25
    18f0:	dd 27       	eor	r29, r29
    18f2:	88 23       	and	r24, r24
    18f4:	2a f0       	brmi	.+10     	; 0x1900 <log+0x26>
    18f6:	21 97       	sbiw	r28, 0x01	; 1
    18f8:	66 0f       	add	r22, r22
    18fa:	77 1f       	adc	r23, r23
    18fc:	88 1f       	adc	r24, r24
    18fe:	da f7       	brpl	.-10     	; 0x18f6 <log+0x1c>
    1900:	20 e0       	ldi	r18, 0x00	; 0
    1902:	30 e0       	ldi	r19, 0x00	; 0
    1904:	40 e8       	ldi	r20, 0x80	; 128
    1906:	5f eb       	ldi	r21, 0xBF	; 191
    1908:	9f e3       	ldi	r25, 0x3F	; 63
    190a:	88 39       	cpi	r24, 0x98	; 152
    190c:	20 f0       	brcs	.+8      	; 0x1916 <log+0x3c>
    190e:	80 3e       	cpi	r24, 0xE0	; 224
    1910:	30 f0       	brcs	.+12     	; 0x191e <log+0x44>
    1912:	21 96       	adiw	r28, 0x01	; 1
    1914:	8f 77       	andi	r24, 0x7F	; 127
    1916:	0f dd       	rcall	.-1506   	; 0x1336 <__addsf3>
    1918:	e0 e7       	ldi	r30, 0x70	; 112
    191a:	f0 e0       	ldi	r31, 0x00	; 0
    191c:	03 c0       	rjmp	.+6      	; 0x1924 <log+0x4a>
    191e:	0b dd       	rcall	.-1514   	; 0x1336 <__addsf3>
    1920:	ed e9       	ldi	r30, 0x9D	; 157
    1922:	f0 e0       	ldi	r31, 0x00	; 0
    1924:	73 df       	rcall	.-282    	; 0x180c <__fp_powser>
    1926:	8b 01       	movw	r16, r22
    1928:	be 01       	movw	r22, r28
    192a:	ec 01       	movw	r28, r24
    192c:	fb 2e       	mov	r15, r27
    192e:	6f 57       	subi	r22, 0x7F	; 127
    1930:	71 09       	sbc	r23, r1
    1932:	75 95       	asr	r23
    1934:	77 1f       	adc	r23, r23
    1936:	88 0b       	sbc	r24, r24
    1938:	99 0b       	sbc	r25, r25
    193a:	fc dd       	rcall	.-1032   	; 0x1534 <__floatsisf>
    193c:	28 e1       	ldi	r18, 0x18	; 24
    193e:	32 e7       	ldi	r19, 0x72	; 114
    1940:	41 e3       	ldi	r20, 0x31	; 49
    1942:	5f e3       	ldi	r21, 0x3F	; 63
    1944:	8f de       	rcall	.-738    	; 0x1664 <__mulsf3x>
    1946:	af 2d       	mov	r26, r15
    1948:	98 01       	movw	r18, r16
    194a:	ae 01       	movw	r20, r28
    194c:	ff 90       	pop	r15
    194e:	0f 91       	pop	r16
    1950:	1f 91       	pop	r17
    1952:	cf 91       	pop	r28
    1954:	df 91       	pop	r29
    1956:	00 dd       	rcall	.-1536   	; 0x1358 <__addsf3x>
    1958:	3f ce       	rjmp	.-898    	; 0x15d8 <__fp_round>

0000195a <modf>:
    195a:	fa 01       	movw	r30, r20
    195c:	dc 01       	movw	r26, r24
    195e:	aa 0f       	add	r26, r26
    1960:	bb 1f       	adc	r27, r27
    1962:	9b 01       	movw	r18, r22
    1964:	ac 01       	movw	r20, r24
    1966:	bf 57       	subi	r27, 0x7F	; 127
    1968:	28 f4       	brcc	.+10     	; 0x1974 <modf+0x1a>
    196a:	22 27       	eor	r18, r18
    196c:	33 27       	eor	r19, r19
    196e:	44 27       	eor	r20, r20
    1970:	50 78       	andi	r21, 0x80	; 128
    1972:	1f c0       	rjmp	.+62     	; 0x19b2 <modf+0x58>
    1974:	b7 51       	subi	r27, 0x17	; 23
    1976:	88 f4       	brcc	.+34     	; 0x199a <modf+0x40>
    1978:	ab 2f       	mov	r26, r27
    197a:	00 24       	eor	r0, r0
    197c:	46 95       	lsr	r20
    197e:	37 95       	ror	r19
    1980:	27 95       	ror	r18
    1982:	01 1c       	adc	r0, r1
    1984:	a3 95       	inc	r26
    1986:	d2 f3       	brmi	.-12     	; 0x197c <modf+0x22>
    1988:	00 20       	and	r0, r0
    198a:	69 f0       	breq	.+26     	; 0x19a6 <modf+0x4c>
    198c:	22 0f       	add	r18, r18
    198e:	33 1f       	adc	r19, r19
    1990:	44 1f       	adc	r20, r20
    1992:	b3 95       	inc	r27
    1994:	da f3       	brmi	.-10     	; 0x198c <modf+0x32>
    1996:	0d d0       	rcall	.+26     	; 0x19b2 <modf+0x58>
    1998:	cd cc       	rjmp	.-1638   	; 0x1334 <__subsf3>
    199a:	61 30       	cpi	r22, 0x01	; 1
    199c:	71 05       	cpc	r23, r1
    199e:	a0 e8       	ldi	r26, 0x80	; 128
    19a0:	8a 07       	cpc	r24, r26
    19a2:	b9 46       	sbci	r27, 0x69	; 105
    19a4:	30 f4       	brcc	.+12     	; 0x19b2 <modf+0x58>
    19a6:	9b 01       	movw	r18, r22
    19a8:	ac 01       	movw	r20, r24
    19aa:	66 27       	eor	r22, r22
    19ac:	77 27       	eor	r23, r23
    19ae:	88 27       	eor	r24, r24
    19b0:	90 78       	andi	r25, 0x80	; 128
    19b2:	30 96       	adiw	r30, 0x00	; 0
    19b4:	21 f0       	breq	.+8      	; 0x19be <modf+0x64>
    19b6:	20 83       	st	Z, r18
    19b8:	31 83       	std	Z+1, r19	; 0x01
    19ba:	42 83       	std	Z+2, r20	; 0x02
    19bc:	53 83       	std	Z+3, r21	; 0x03
    19be:	08 95       	ret

000019c0 <__fp_mpack>:
    19c0:	9f 3f       	cpi	r25, 0xFF	; 255
    19c2:	31 f0       	breq	.+12     	; 0x19d0 <__fp_mpack_finite+0xc>

000019c4 <__fp_mpack_finite>:
    19c4:	91 50       	subi	r25, 0x01	; 1
    19c6:	20 f4       	brcc	.+8      	; 0x19d0 <__fp_mpack_finite+0xc>
    19c8:	87 95       	ror	r24
    19ca:	77 95       	ror	r23
    19cc:	67 95       	ror	r22
    19ce:	b7 95       	ror	r27
    19d0:	88 0f       	add	r24, r24
    19d2:	91 1d       	adc	r25, r1
    19d4:	96 95       	lsr	r25
    19d6:	87 95       	ror	r24
    19d8:	97 f9       	bld	r25, 7
    19da:	08 95       	ret

000019dc <__udivmodqi4>:
    19dc:	99 1b       	sub	r25, r25
    19de:	79 e0       	ldi	r23, 0x09	; 9
    19e0:	04 c0       	rjmp	.+8      	; 0x19ea <__udivmodqi4_ep>

000019e2 <__udivmodqi4_loop>:
    19e2:	99 1f       	adc	r25, r25
    19e4:	96 17       	cp	r25, r22
    19e6:	08 f0       	brcs	.+2      	; 0x19ea <__udivmodqi4_ep>
    19e8:	96 1b       	sub	r25, r22

000019ea <__udivmodqi4_ep>:
    19ea:	88 1f       	adc	r24, r24
    19ec:	7a 95       	dec	r23
    19ee:	c9 f7       	brne	.-14     	; 0x19e2 <__udivmodqi4_loop>
    19f0:	80 95       	com	r24
    19f2:	08 95       	ret

000019f4 <__divmodhi4>:
    19f4:	97 fb       	bst	r25, 7
    19f6:	07 2e       	mov	r0, r23
    19f8:	16 f4       	brtc	.+4      	; 0x19fe <__divmodhi4+0xa>
    19fa:	00 94       	com	r0
    19fc:	06 d0       	rcall	.+12     	; 0x1a0a <__divmodhi4_neg1>
    19fe:	77 fd       	sbrc	r23, 7
    1a00:	08 d0       	rcall	.+16     	; 0x1a12 <__divmodhi4_neg2>
    1a02:	15 d0       	rcall	.+42     	; 0x1a2e <__udivmodhi4>
    1a04:	07 fc       	sbrc	r0, 7
    1a06:	05 d0       	rcall	.+10     	; 0x1a12 <__divmodhi4_neg2>
    1a08:	3e f4       	brtc	.+14     	; 0x1a18 <__divmodhi4_exit>

00001a0a <__divmodhi4_neg1>:
    1a0a:	90 95       	com	r25
    1a0c:	81 95       	neg	r24
    1a0e:	9f 4f       	sbci	r25, 0xFF	; 255
    1a10:	08 95       	ret

00001a12 <__divmodhi4_neg2>:
    1a12:	70 95       	com	r23
    1a14:	61 95       	neg	r22
    1a16:	7f 4f       	sbci	r23, 0xFF	; 255

00001a18 <__divmodhi4_exit>:
    1a18:	08 95       	ret

00001a1a <__muluhisi3>:
    1a1a:	1d d0       	rcall	.+58     	; 0x1a56 <__umulhisi3>
    1a1c:	a5 9f       	mul	r26, r21
    1a1e:	90 0d       	add	r25, r0
    1a20:	b4 9f       	mul	r27, r20
    1a22:	90 0d       	add	r25, r0
    1a24:	a4 9f       	mul	r26, r20
    1a26:	80 0d       	add	r24, r0
    1a28:	91 1d       	adc	r25, r1
    1a2a:	11 24       	eor	r1, r1
    1a2c:	08 95       	ret

00001a2e <__udivmodhi4>:
    1a2e:	aa 1b       	sub	r26, r26
    1a30:	bb 1b       	sub	r27, r27
    1a32:	51 e1       	ldi	r21, 0x11	; 17
    1a34:	07 c0       	rjmp	.+14     	; 0x1a44 <__udivmodhi4_ep>

00001a36 <__udivmodhi4_loop>:
    1a36:	aa 1f       	adc	r26, r26
    1a38:	bb 1f       	adc	r27, r27
    1a3a:	a6 17       	cp	r26, r22
    1a3c:	b7 07       	cpc	r27, r23
    1a3e:	10 f0       	brcs	.+4      	; 0x1a44 <__udivmodhi4_ep>
    1a40:	a6 1b       	sub	r26, r22
    1a42:	b7 0b       	sbc	r27, r23

00001a44 <__udivmodhi4_ep>:
    1a44:	88 1f       	adc	r24, r24
    1a46:	99 1f       	adc	r25, r25
    1a48:	5a 95       	dec	r21
    1a4a:	a9 f7       	brne	.-22     	; 0x1a36 <__udivmodhi4_loop>
    1a4c:	80 95       	com	r24
    1a4e:	90 95       	com	r25
    1a50:	bc 01       	movw	r22, r24
    1a52:	cd 01       	movw	r24, r26
    1a54:	08 95       	ret

00001a56 <__umulhisi3>:
    1a56:	a2 9f       	mul	r26, r18
    1a58:	b0 01       	movw	r22, r0
    1a5a:	b3 9f       	mul	r27, r19
    1a5c:	c0 01       	movw	r24, r0
    1a5e:	a3 9f       	mul	r26, r19
    1a60:	01 d0       	rcall	.+2      	; 0x1a64 <__umulhisi3+0xe>
    1a62:	b2 9f       	mul	r27, r18
    1a64:	70 0d       	add	r23, r0
    1a66:	81 1d       	adc	r24, r1
    1a68:	11 24       	eor	r1, r1
    1a6a:	91 1d       	adc	r25, r1
    1a6c:	08 95       	ret

00001a6e <eeprom_read_block>:
    1a6e:	dc 01       	movw	r26, r24
    1a70:	cb 01       	movw	r24, r22

00001a72 <eeprom_read_blraw>:
    1a72:	fc 01       	movw	r30, r24
    1a74:	e1 99       	sbic	0x1c, 1	; 28
    1a76:	fe cf       	rjmp	.-4      	; 0x1a74 <eeprom_read_blraw+0x2>
    1a78:	06 c0       	rjmp	.+12     	; 0x1a86 <eeprom_read_blraw+0x14>
    1a7a:	ff bb       	out	0x1f, r31	; 31
    1a7c:	ee bb       	out	0x1e, r30	; 30
    1a7e:	e0 9a       	sbi	0x1c, 0	; 28
    1a80:	31 96       	adiw	r30, 0x01	; 1
    1a82:	0d b2       	in	r0, 0x1d	; 29
    1a84:	0d 92       	st	X+, r0
    1a86:	41 50       	subi	r20, 0x01	; 1
    1a88:	50 40       	sbci	r21, 0x00	; 0
    1a8a:	b8 f7       	brcc	.-18     	; 0x1a7a <eeprom_read_blraw+0x8>
    1a8c:	08 95       	ret

00001a8e <eeprom_write_block>:
    1a8e:	dc 01       	movw	r26, r24
    1a90:	cb 01       	movw	r24, r22
    1a92:	02 c0       	rjmp	.+4      	; 0x1a98 <eeprom_write_block+0xa>
    1a94:	2d 91       	ld	r18, X+
    1a96:	05 d0       	rcall	.+10     	; 0x1aa2 <eeprom_write_r18>
    1a98:	41 50       	subi	r20, 0x01	; 1
    1a9a:	50 40       	sbci	r21, 0x00	; 0
    1a9c:	d8 f7       	brcc	.-10     	; 0x1a94 <eeprom_write_block+0x6>
    1a9e:	08 95       	ret

00001aa0 <eeprom_write_byte>:
    1aa0:	26 2f       	mov	r18, r22

00001aa2 <eeprom_write_r18>:
    1aa2:	e1 99       	sbic	0x1c, 1	; 28
    1aa4:	fe cf       	rjmp	.-4      	; 0x1aa2 <eeprom_write_r18>
    1aa6:	9f bb       	out	0x1f, r25	; 31
    1aa8:	8e bb       	out	0x1e, r24	; 30
    1aaa:	2d bb       	out	0x1d, r18	; 29
    1aac:	0f b6       	in	r0, 0x3f	; 63
    1aae:	f8 94       	cli
    1ab0:	e2 9a       	sbi	0x1c, 2	; 28
    1ab2:	e1 9a       	sbi	0x1c, 1	; 28
    1ab4:	0f be       	out	0x3f, r0	; 63
    1ab6:	01 96       	adiw	r24, 0x01	; 1
    1ab8:	08 95       	ret

00001aba <_exit>:
    1aba:	f8 94       	cli

00001abc <__stop_program>:
    1abc:	ff cf       	rjmp	.-2      	; 0x1abc <__stop_program>
